:100000005CEF04F00000000000EF00F000000000D2
:0A0010000000000000000000F3D71C
:0E001C00ACB202D00000FCD755C1ADFF1200FF
:10002A0055C1C9FFC7B002D00000FCD7C9CF00F044
:02003A001200B2
:10003C00F250026EF29E0500FF6A0150FE6E0050F7
:08004C00FD6E02BEF28E1200EF
:10005400086A096A100E0C6E013408360936045019
:10006400085E0550D8A0053C095ED8B007D00450FE
:1000740008260550D8B0053C0926D890003601362C
:060084000C2EEAD7120069
:10008A004EC1C9FFC7B002D00000FCD7C9CF00F0EB
:02009A00120052
:10009C0023C1E1FF24C1E2FF4EC1E6FF21C100F004
:0800AC0022C101F0C5DF1200C2
:1000B4000101526B050E525D0AE252515025E16E68
:1000C400000E5121E26E200EE66E522BF3D75251F0
:1000D4005025E16E000E5121E26EE66A520752513C
:1000E4005025536F000E5121546F0A0E046E000EFA
:1000F400056E4EC100F04FC101F0AADF08C000F048
:1001040009C001F0300E002653C1E1FF54C1E2FFE3
:1001140000C0E6FF0A0E046E000E056E4EC100F02C
:100124004FC101F095DF00C04EF101C04FF1000E48
:10013400011802E1000E001801E102D05207CFD7E6
:020144001200A7
:100146000101476B44C1E9FF45C1EAFFEECF46F125
:100156004651000A0EE046C14EF19DDF0101472BD4
:1001660047514425E96E000E4521EA6EEECF46F171
:04017600EFD71200AD
:10017A0001014A6B4B6B44C14CF145C14DF1800EF4
:10018A004519006E800E005C02E1000E445D0BE230
:10019A00010E4A6F000E4B6F445100084C6F45C167
:1001AA004DF1000E4D574CC14EF14DC14FF146C1B4
:1001BA0050F147C151F179DF060E486F000E496FC1
:1001CA00000E006E4951005C02E14851000819E234
:1001DA0048514625E16E49514721E26E010E485DBC
:1001EA00006E000E4959016E00504625E96E015015
:1001FA004721EA6EEECFE6FF010E485F000E495B2B
:10020A00DFD746C1E1FF47C1E2FF200EE66E4A5141
:10021A004B111AE0486B496B48514625E96E495122
:10022A004721EA6EEE50200A03E1484B492BF4D7E6
:10023A00010E485F000E495B48514625E16E49515F
:0A024A004721E26E2D0EE66E120051
:0E025400C282C2A201D0FDD7C4CF00F01200BA
:10026200FF0E0101556FE0DE400E01014411556F92
:10027200DBDE48C100F0016A026A036A00C055F180
:10028200D3DE47C100F048C101F0026A036A00C030
:1002920055F1CADE46C100F047C101F048C102F083
:1002A200036A00C055F1C0DE45C155F1BDDE49C14A
:1002B20055F1BADEFF0E01014E6FE6DE00C01BF102
:0202C200120028
:1002C4000101496BFF0E556FAEDEFF0E01014E6F4B
:1002D400DADE00C01BF101011B51FF0AF6E1400EFA
:1002E4004411556FA0DE48C100F0016A026A036A36
:1002F40000C055F198DE47C100F048C101F0026A20
:10030400036A00C055F18FDE46C100F047C101F019
:1003140048C102F0036A00C055F185DE45C155F1BC
:1003240082DE950E0101556F7EDEFF0E01014E6FD8
:10033400AADE00C01BF10A0E0101495D0CE21B514B
:10034400000A01E108D0FF0E4E6F9DDE00C01BF1D4
:100354000101492BF0D70A0E495D03E3010E006E3B
:0603640001D0006A120046
:10036A008A0E0101136F000E146F4E0E156F010EE7
:10037A00166F2A0E176F000E186F550E196F010EA1
:10038A001A6F949A3951040A02E1948601D094961C
:10039A009488C66A3951C6123B51C6123A51C712DD
:1003AA003B5305E03C51000AD8B4C78C03D03C53F8
:0803BA00D8A4C78CC68A12000A
:1003C2000900F5CFE6FF0006FBE10106F9E11200A4
:1003D2001C0E0101216F000E226F550E236F010EBC
:1003E200246FFF0E1D6FFF0E1E6F000E1F6F000E9B
:1003F200206FFF0E296FFF0E2A6F000E2B6F000E6B
:100402002C6FFF0E256FFF0E266F000E276F000E5A
:10041200286FAC8A900EAB6E948E949C9EAA03D0E9
:08042200AECF00F0FBD7120081
:10042A00190E0101446F456B466B476B486B45DFFC
:10043A00005202E13C6B0AD0010E3C6F3B51010FA6
:10044A00006E00C03BF1320E3B5DEAE33C53D8A498
:10045A0092D0FF0E556FE4DDFF0E0101556FE0DD0E
:10046A00FF0E0101556FDCDD0101116B126B716A20
:10047A00726A83A469D0FC0E556FD2DD0101396B13
:10048A003A6B020E3A5D02E1000E395D10E2DDDEE2
:10049A0000C055F1C5DD010E01013925006E000EBF
:1004AA003A21016E00C039F101C03AF1EAD7FF0ED4
:1004BA00556FB6DDFF0E0101556FB2DD01011C6BF0
:1004CA001E0E1C5D1DE2FF0E4E6FDADD00C01BF131
:1004DA001F0E01011B15016E0150050A0BE1010EE9
:1004EA001125006E000E1221016E00C011F101C02B
:1004FA0012F106D01C51010F006E00C01CF1E0D7AA
:10050A001E0E1C5D16E3620E446F000E456F16DE6A
:10051A000D0E4E6FBEDD0A0E01014E6FBADD010EE1
:10052A007124006E000E7220016E00C071F001C0CD
:10053A0072F0FF0E01014E6FA3DD00C01BF1010135
:10054A001B51FF0AF6E195D7FD0E556F69DDFF0EC7
:10055A000101556F65DDFF0E01014E6F91DD00C08F
:10056A001BF101011B51FF0A06E0FF0E4E6F88DDE9
:0C057A0000C01BF1F6D73CC100F01200DD
:100586000101426B436BFF0E4E6F7CDD00C01BF119
:1005960001011B51FF0AF7E1120E446F39C045F104
:1005A6003AC046F13BC047F13CC048F1950E496F51
:1005B60055DE01011C6B1B51000A0DE1270E446F2D
:1005C600000E456FBDDD0D0E4E6F65DD0A0E010195
:1005D6004E6F61DD0FD0FF0E01014E6F53DD00C07F
:1005E6001BF101011C51010F006E00C01CF10A0E27
:1005F6001C5DE1E301010A0E1C5D0DE3150E446F5F
:10060600000E456F9DDD0D0E4E6F45DD0A0E010194
:100616004E6F41DDFFD7000E0101435D02E10A0E78
:10062600425D59E2FF0E4E6F2DDD00C01BF1010148
:100636001B51FE0AF7E1396B3A6B020E3A5D02E195
:10064600000E395D31E2FF0E4E6F1CDD00C01BF15E
:100656001BC144F1000E0101456F3B0E466F010EB2
:10066600476F88DD3B0E446F010E456F69DD0D0E49
:100676004E6F11DD0A0E01014E6F0DDD0D0E0C6E73
:10068600FB0E0D6E0D2EFED70C2EFCD700000000C3
:10069600010E01013925006E000E3A21016E00C0DF
:1006A60039F101C03AF1C9D7FF0E4E6FEBDC00C03D
:1006B6001BF1FF0E01014E6FE5DC00C01BF1010EC0
:1006C60001014225006E000E4321016E00C042F179
:1006D60001C043F1A0D70C0E446F456B466B476BC8
:1006E600486B950E496FBADD01011C6B1B51000A60
:1006F6000DE1500E446F000E456F22DD0D0E4E6F5C
:10070600CADC0A0E01014E6FC6DC0FD0FF0E0101D6
:100716004E6FB8DC00C01BF101011C51010F006EC9
:1007260000C01CF10A0E1C5DE1E30101FF0E4E6FD5
:10073600A9DC00C01BF101011B51FF0AF6E1450EC1
:10074600446F000E456FFCDC0D0E4E6FA4DC0A0EE6
:0807560001014E6FA0DC12004E
:10075E0001013A6B0D0E0C6EFB0E0D6E0D2EFED7BB
:10076E000C2EFCD7000000008B84396B0A0E395D0D
:10077E0006E2FF0E556F52DC0101392BF7D78B9431
:10078E00070E0C6E7D0E0D6E0D2EFED70C2EFCD7A9
:10079E00446B456B466B476B486B950E496F5ADD44
:1007AE0001011C6B1B51010A0FE00A0E1C5D0CE2CD
:1007BE00FF0E4E6F63DC00C01BF101011C51010FD7
:1007CE00006E00C01CF1EED70A0E1C5D02E3010E96
:1007DE003A6F010E446F456B466B476B486BFF0ECD
:1007EE00496F38DD01011C6B1B51000A1FE0800EA2
:1007FE00006E800E030A005C02E1E80E1C5D16E23C
:10080E00010E446F456B466B476B486BFF0E496F8D
:10081E0021DDFF0E01014E6F31DC00C01BF1010125
:10082E001C51010F006E00C01CF1DED7800E006E51
:10083E00800E030A005C02E1E80E1C5D02E3020E6C
:10084E003A6F100E446F000E456F020E466F000E8B
:10085E00476F486FFF0E496FFDDC01011C6B1B518A
:10086E00000A15E0800E006E800E030A005C02E1A5
:10087E00E80E1C5D0CE2FF0E4E6F00DC00C01BF19B
:10088E0001011C51010F006E00C01CF1E8D7800E53
:10089E00006E800E030A005C02E1E80E1C5D02E3AE
:0A08AE00030E3A6F3AC100F0120089
:1008B800B5EC06F00101386B0E0EC1122D0EC012F8
:1008C800C09EC280030E0B6E8A0E0C6E550E0D6E06
:1008D8000D2EFED70C2EFCD70B2EFAD700000000E9
:1008E800F30E956E928495849586936A946AB88679
:1008F800020EB06E080EAF6EAC8467DD020E396F63
:100908003A6B3B6B010E3C6F2CDD25DF0050000A73
:100918000FE1E10E446F000E456F11DC0D0E4E6FB6
:100928004EEC00F00A0E01014E6F4EEC00F01AD0AA
:1009380001013851010F006E00C038F13851320AF8
:1009480010E1C80E446F000E456FA3EC00F00D0EC9
:100958004E6F4EEC00F00A0E01014E6F4EEC00F0A7
:10096800FFD7D3D70101396B3A6B3B6B010E3C6F54
:10097800F8DC83A401D0FDD70101030E446F010EFA
:10098800456FA3EC00F00D0E4E6F4EEC00F00A0E12
:1009980001014E6F4EEC00F083A673D083B423D0D0
:1009A800080E0B6E9D0E0C6E050E0D6E0D2EFED7ED
:1009B8000C2EFCD70B2EFAD700000000010E010107
:1009C8000125006E000E0221016E00C001F101C078
:1009D80002F1000E021902E1030E011904E1010EF1
:1009E800016F000E026F0101000E021902E1010EF3
:1009F8000119010ED8A4000E016E000E021902E1C1
:100A080001512D19000ED8A4010E006E01500016D8
:100A180010E0F90E446F000E456FA3EC00F00D0EC8
:100A28004E6F4EEC00F00A0E01014E6F4EEC00F0D6
:100A380025D0000E0101021902E1020E0119010E72
:100A4800D8A4000E016E000E021902E101512D1901
:100A5800000ED8A4010E006E015000160FE0C20E61
:100A6800446F000E456FA3EC00F00D0E4E6F4EEC78
:100A780000F00A0E01014E6F4EEC00F001C12DF19D
:100A88008BD7000E0101021902E1010E0119D8A449
:100A9800C9D00001916B926B890E0101446F000E61
:100AA800456FA3EC00F00D0E4E6F4EEC00F00A0EF1
:100AB80001014E6F4EEC00F0816A020E0101396FA0
:100AC8003A6B3B6B010E3C6F4CDC45DE0050000A74
:100AD80010E17A0E446F000E456FA3EC00F00D0E86
:100AE8004E6F4EEC00F00A0E01014E6F4EEC00F016
:100AF8001AD001013851010F006E00C038F1385189
:100B0800320A10E1A90E446F000E456FA3EC00F005
:100B18000D0E4E6F4EEC00F00A0E01014E6F4EECBA
:100B280000F0FFD7D2D70101396B3A6B3B6B010E4E
:100B38003C6F17DC76DC005211E09C0E0101446F1B
:100B4800000E456FA3EC00F00D0E4E6F4EEC00F05A
:100B58000A0E01014E6F4EEC00F064D0930E0101B5
:100B6800446F000E456FA3EC00F00D0E4E6F4EEC77
:100B780000F00A0E01014E6F4EEC00F011C144F175
:100B880012C145F12E0E0101466F010E476FBDECF3
:100B980000F0F00E446F000E456FA3EC00F00D0E50
:100BA8004E6F4EEC00F00A0E01014E6F4EEC00F055
:100BB8002E0E0101446F010E456FA3EC00F00D0EDF
:100BC8004E6F4EEC00F00A0E01014E6F4EEC00F035
:100BD80071C044F172C045F12E0E0101466F010E3D
:100BE800476FBDEC00F0730E446F000E456FA3EC29
:100BF80000F00D0E4E6F4EEC00F00A0E01014E6F24
:100C08004EEC00F02E0E0101446F010E456FA3EC6F
:100C180000F00D0E4E6F4EEC00F00A0E01014E6F03
:100C28004EEC00F0000E0101021902E1020E01195A
:100C380018E13D0E446F000E456FA3EC00F00D0E59
:100C48004E6F4EEC00F00A0E01014E6F4EEC00F0B4
:100C58000001916B926B93DC83A403D083A601D02F
:060C6800FBD787D6FFD781
:100D6A0010EE15F0FC0E006E010E016E6E0EF66EA0
:0E0D7A000C0EF76E000EF86EE1EC01F01200A8
:100C6E00436F6D6D616E642052656A656374656471
:020C7E00210053
:100C8000436F6D6D616E642061636365707465644C
:020C9000210041
:040C9200000000005E
:080C960052656164696E67009C
:0B0C9E004361726420667265652100EE
:100CA90053746F70706564205472616E73666572F7
:020CB900210018
:0F0CBB00446174612072656A6563746564210029
:020CCA00000028
:070CCC004C6F73743A200025
:0F0CD30043617264206465746563746564210015
:080CE20057726974696E670026
:020CEA00000008
:090CEC0053544F505045442100BF
:0D0CF5005772697465206572726F7221007C
:100D020043617264206572726F722C2043505520C9
:090D1200747261707065642100C7
:060D1B00506C61790A0032
:100D210043617264206572726F722C2043505520AA
:090D3100747261707065642100A8
:0F0D3A00436172642064657465637465642100AD
:090D49005772697474656E3A007A
:080D52005265636F72640A0030
:020D5A00000097
:0E0D5C0053656C6563742061204D656E7500F3
:020000040030CA
:0D000100021F1EFF8381FF0FC00FE00F40A4
:00000001FF
