:100000003BEF05F00000000000EF00F000000000F2
:0A0010000000000000000000F3D71C
:0E001C00ACB202D00000FCD786C1ADFF1200CE
:10002A0086C1C9FFC7B002D00000FCD7C9CF00F013
:02003A001200B2
:10003C00F250026EF29E0500FF6A0150FE6E0050F7
:08004C00FD6E02BEF28E1200EF
:10005400086A096A100E0C6E013408360936045019
:10006400085E0550D8A0053C095ED8B007D00450FE
:1000740008260550D8B0053C0926D890003601362C
:060084000C2EEAD7120069
:10008A005DC1E1FF5EC1E2FF85C1E6FF5BC100F031
:08009A005CC101F0CEDF120091
:1000A2000101826B050E825D0AE282518025E16EBA
:1000B200000E8121E26E200EE66E822BF3D7825172
:1000C2008025E16E000E8121E26EE66A820782518E
:1000D2008025836F000E8121846F0A0E046E000E4C
:1000E200056E7EC100F07FC101F0B3DF08C000F0F1
:1000F20009C001F0300E002683C1E1FF84C1E2FF96
:1001020000C0E6FF0A0E046E000E056E7EC100F00E
:100112007FC101F09EDF00C07EF101C07FF1000EC1
:10012200011802E1000E001801E102D08207CFD7C8
:020132001200B9
:100134000101816B7EC1E9FF7FC1EAFFEECF80F14F
:100144008051000A0EE080C185F19DDF0101812B01
:1001540081517E25E96E000E7F21EA6EEECF80F19B
:04016400EFD71200BF
:100168007EC1C9FFC7B002D00000FCD7C9CF00F0DC
:02017800120073
:10017A0001017A6B7B6B74C17CF175C17DF1800ED4
:10018A007519006E800E005C02E1000E745D0BE2D0
:10019A00010E7A6F000E7B6F745100087C6F75C177
:1001AA007DF1000E7D577CC17EF17DC17FF176C164
:1001BA0080F177C181F170DF060E786F000E796FDA
:1001CA00000E006E7951005C02E17851000819E2D4
:1001DA0078517625E16E79517721E26E010E785DCC
:1001EA00006E000E7959016E00507625E96E0150B5
:1001FA007721EA6EEECFE6FF010E785F000E795B9B
:10020A00DFD776C1E1FF77C1E2FF200EE66E7A51B1
:10021A007B111AE0786B796B78517625E96E795102
:10022A007721EA6EEE50200A03E1784B792BF4D756
:10023A00010E785F000E795B78517625E16E79516F
:0A024A007721E26E2D0EE66E120021
:10025400680E01014D6F010E4E6F7E0E4F6F010E41
:10026400506F2A0E516F000E526F860E536F010E9F
:10027400546F949A7451040A02E1948601D09496BE
:100284009488C66A7451C6127651C6127551C71243
:10029400765305E07751000AD8B4C78C03D077535E
:0802A400D8A4C78CC68A120021
:1002AC00FF0E0101866FBBDE400E01017411866FDB
:1002BC00B6DE78C100F0016A026A036A00C086F1FA
:1002CC00AEDE77C100F078C101F0026A036A00C0AB
:1002DC0086F1A5DE76C100F077C101F078C102F09D
:1002EC00036A00C086F19BDE75C186F198DE79C188
:1002FC0086F195DEFF0E01017E6F30DF00C055F1F7
:02030C001200DD
:10030E000101796BFF0E866F89DEFF0E01017E6F94
:10031E0024DF00C055F101015551FF0A01E0FBD762
:10032E00FF0E7E6F1ADF00C055F1A60E01017E6F23
:10033E00000E7F6FF8DE0D0E856FA0DE0A0E010136
:10034E00856F9CDE400E01017411866F67DE78C1E9
:10035E0000F0016A026A036A00C086F15FDE77C1AF
:10036E0000F078C101F0026A036A00C086F156DE21
:10037E0076C100F077C101F078C102F0036A00C0C7
:10038E0086F14CDE75C186F149DE950E0101866F50
:10039E0045DEFF0E01017E6FE0DE00C055F10A0E54
:1003AE000101795D0CE25551000A01E108D0FF0E02
:1003BE007E6FD3DE00C055F10101792BF0D70A0E06
:0E03CE00795D03E3010E006E01D0006A12009B
:1003DC001C0E01015B6F000E5C6F860E5D6F010ED3
:1003EC005E6FFF0E576FFF0E586F000E596F000EA9
:1003FC005A6FFF0E636FFF0E646F000E656F000E79
:10040C00666FFF0E5F6FFF0E606F000E616F000E68
:10041C00626FAC8A900EAB6E948E949C9EAA03D0A5
:08042C00AECF00F0FBD7120077
:100434000900F5CFE6FF0006FBE10106F9E1120031
:10044400020E0101746F756B766B010E776F00DF1E
:100454000D0E0C6EFB0E0D6E0D2EFED70C2EFCD762
:10046400000000008B84C30E7E6F000E7F6F60DE81
:100474000D0E856F08DE0A0E0101856F04DE010191
:10048400686B0A0E685D06E2FF0E866FCCDD010123
:10049400682BF7D7B10E7E6F000E7F6F49DE0D0E0D
:1004A400856FF1DD0A0E0101856FEDDD8B94D70EAA
:1004B40001017E6F000E7F6F3BDE0D0E856FE3DD65
:1004C4000A0E0101856FDFDD070E0C6E7D0E0D6EC9
:1004D4000D2EFED70C2EFCD70101746B756B766B59
:1004E400776B786B950E796FDFDE070E01017E6FF7
:1004F400010E7F6F1DDE0D0E856FC5DD0A0E010135
:10050400856FC1DD0101566B5551010A0FE00A0EDA
:10051400565D0CE2FF0E7E6F25DE00C055F1010131
:100524005651010F006E00C056F1EED70A0E565D0B
:100534000DE3F50E7E6F000E7F6FFADD0D0E856FF5
:10054400A2DD0A0E0101856F9EDDFFD7010E0101B8
:10055400746F756B766B776B786BFF0E796FA4DEB7
:100564000101566B5551000A1FE0800E006E800E8B
:10057400030A005C02E1E80E565D16E2010E746F98
:10058400756B766B776B786BFF0E796F8DDEFF0E74
:1005940001017E6FE7DD00C055F101015651010FE5
:1005A400006E00C056F1DED7800E006E800E030A86
:1005B400005C02E1E80E565D0DE3E30E7E6F000E73
:1005C4007F6FB6DD0D0E856F5EDD0A0E0101856F4E
:1005D4005ADDFFD7100E0101746F000E756F020E05
:1005E400766F000E776F786FFF0E796F5DDE010115
:1005F400566B5551000A15E0800E006E800E030AFA
:10060400005C02E1E80E565D0CE2FF0E7E6FAADD8F
:1006140000C055F101015651010F006E00C056F1A2
:10062400E8D7800E006E800E030A005C02E1E80E3B
:10063400565D0DE3220E7E6F010E7F6F79DD0D0E88
:10064400856F21DD0A0E0101856F1DDDFFD7770E51
:1006540001017E6F000E7F6F6BDD0D0E856F13DD64
:100664000A0E0101856F0FDD820E0C6EDD0E0D6E1C
:0E0674000D2EFED70C2EFCD700000000120049
:100682000101716B726B736B190E746F756B766B04
:10069200776B786B3BDE00C071F171530AE0190E83
:1006A200746F756B766B776B786B30DE00C071F1AF
:1006B200F4D7850E7E6F000E7F6F3BDD0D0E856FCA
:1006C200E3DC0A0E0101856FDFDCFF0E0101866F9C
:1006D200ABDCFF0E0101866FA7DCFF0E0101866F06
:1006E200A3DC050E0101715DD8B098D0FC0E866FB7
:1006F2009BDC0101686B696B020E695D02E1000E11
:10070200685D2FE268C186F18FDC68C174F169C14E
:1007120075F16A0E0101766F010E776F2DDD6A0E9B
:100722007E6F010E7F6F05DD0D0E856FADDC0A0E4B
:100732000101856FA9DC0D0E0C6EFB0E0D6E0D2EE8
:10074200FED70C2EFCD700000000010E0101682527
:10075200006E000E6921016E00C068F101C069F1EE
:10076200CBD7FF0E866F60DCFF0E0101866F5CDC6B
:100772000101566B080E565D20E2FF0E7E6FF3DC20
:1007820000C055F11F0E01015515016E0150050AF9
:100792000DE1970E7E6F000E7F6FCBDC0D0E856F25
:1007A20073DC0A0E0101856F6FDC07D0010156511F
:1007B200010F006E00C056F1DDD70101080E565D33
:1007C20017E3270E7E6F000E7F6FB3DC0D0E856F71
:1007D2005BDC0A0E0101856F57DC010E01017225F7
:1007E200006E000E7321016E00C072F101C073F140
:1007F200FF0E7E6FB8DC00C055F101015551FF0AB2
:1008020006E0FF0E7E6FAFDC00C055F1F6D70101A6
:100812007151010F006E00C071F163D7FD0E866F3A
:1008220003DCFF0E0101866F15EC00F0FF0E0101E3
:100832007E6F99DC00C055F101015551FF0A06E0B7
:10084200FF0E7E6F90DC00C055F1F6D7190E010144
:100852007E6F000E7F6F6DDC0D0E856F15DC0A0E4C
:100862000101856F11DC72C174F173C175F16A0EF9
:100872000101766F010E776F7FDC6A0E7E6F010ECB
:100882007F6F57DC0D0E856F45EC00F00A0E0101FB
:08089200856F45EC00F0120037
:10089A00FF0E01017E6F63DC00C055F10101555165
:1008AA00FF0AF6E1120E746F15C075F116C076F1E3
:1008BA0017C077F118C078F1950E796FF2DC010153
:1008CA00566B5551000A0FE1360E7E6F000E7F6F90
:1008DA002CDC0D0E856F45EC00F00A0E0101856FC8
:1008EA0045EC00F00FD0FF0E01017E6F38DC00C02E
:1008FA0055F101015651010F006E00C056F10A0E62
:10090A00565DDFE301010A0E565D0FE3650E7E6F49
:10091A00000E7F6F0ADC0D0E856F45EC00F00A0EA3
:10092A000101856F45EC00F0FFD783A454D0FF0E78
:10093A0001017E6F14DC00C055F101015551FE0A18
:10094A00F6E1686B696B020E695D02E1000E685D93
:10095A0034E2FF0E7E6F03DC00C055F155C174F11D
:10096A00000E0101756F6A0E766F010E776F00DC5B
:10097A006A0E7E6F010E7F6F9AEC00F00D0E856F86
:10098A0045EC00F00A0E0101856F45EC00F00D0EF2
:10099A000C6EFB0E0D6E0D2EFED70C2EFCD7000032
:1009AA000000010E01016825006E000E6921016E2A
:1009BA0000C068F101C069F1C6D7FF0E7E6FB4ECC2
:1009CA0000F000C055F1FF0E01017E6FB4EC00F09B
:1009DA0000C055F1AAD70C0E0101746F756B766BC6
:1009EA00776B786B950E796F5CDC0101566B55510C
:1009FA00000A10E1530E7E6F000E7F6F9AEC00F032
:100A0A000D0E856F45EC00F00A0E0101856F45EC6D
:100A1A0000F010D0FF0E01017E6FB4EC00F000C0B0
:100A2A0055F101015651010F006E00C056F10A0E30
:100A3A00565DDDE30101FF0E7E6FB4EC00F000C0ED
:100A4A0055F101015551FF0AF5E1480E7E6F000E7E
:100A5A007F6F9AEC00F00D0E856F45EC00F00A0EE0
:0C0A6A000101856F45EC00F0FFD7120081
:100A7600BFEC06F00E0EC1122D0EC012C09EC28033
:100A8600030E0B6E8A0E0C6E550E0D6E0D2EFED7D6
:100A96000C2EFCD70B2EFAD700000000F30E956E35
:100AA600928495849586936A946AB886020EB06E8F
:100AB600080EAF6EAC848FDCC2DC83A401D0FDD7F8
:100AC600140E01017E6F010E7F6F9AEC00F00D0E81
:100AD600856F45EC00F00A0E0101856F45EC00F0CC
:100AE60083A673D083B423D0080E0B6E9D0E0C6EB6
:100AF600050E0D6E0D2EFED70C2EFCD70B2EFAD73B
:100B060000000000010E01011225006E000E1321E7
:100B1600016E00C012F101C013F1000E131902E1BB
:100B2600030E121904E1010E126F000E136F01017C
:100B3600000E131902E1010E1219010ED8A4000EBF
:100B4600016E000E131902E112516719000ED8A4A6
:100B5600010E006E0150001610E0350E7E6F010E7C
:100B66007F6F9AEC00F00D0E856F45EC00F00A0ED3
:100B76000101856F45EC00F025D0000E0101131927
:100B860002E1020E1219010ED8A4000E016E000E2B
:100B9600131902E112516719000ED8A4010E006E56
:100BA600015000160FE0470E7E6F010E7F6F9AEC24
:100BB60000F00D0E856F45EC00F00A0E0101856F01
:100BC60045EC00F012C167F18BD7000E0101131935
:100BD60002E1010E121913E1456B466B3D0E7E6F65
:100BE600010E7F6F9AEC00F00D0E856F45EC00F05C
:100BF6000A0E0101856F45EC00F0816A3FDD000EAB
:100C06000101131902E1020E121918E1CF0E7E6FCF
:100C1600000E7F6F9AEC00F00D0E856F45EC00F02C
:100C26000A0E0101856F45EC00F00101456B466B2C
:100C360031DE83A403D083A601D0FBD73ED7FFD7EE
:100D7E0010EE15F0380E006E020E016E460EF66E77
:0E0D8E000C0EF76E000EF86E1AEC02F012005A
:040C460000000000AA
:0E0C4A00444F4E452057726974696E67210051
:0F0C5800446174612072656A656374656421008C
:100C6700436F6D6D616E6420616363657074656465
:020C770021005A
:0B0C7900436172642066726565210013
:100C840053746F70706564205472616E736665721C
:020C940021003D
:100C9600436F6D6D616E642052656A656374656449
:020CA60021002B
:0E0CA8004D4D432044657465637465642100FE
:100CB600436F6D6D616E6420616363657074656416
:020CC60021000B
:0F0CC80044617461206163636570746564210029
:0B0CD7004361726420667265652100B5
:100CE20044756D6D7920636C6F636B2073656E74F0
:020CF2002100DF
:0C0CF40043532069732048494748210001
:080D000052656164696E670031
:0C0D08004353206973204C4F57210A0010
:100D140043617264204552524F52202D20434D446A
:020D240031009C
:100D260043415244204552524F52202D20434D44B8
:020D360030008B
:0B0D3800434D44302073656E742100B1
:020D43000000AE
:0E0D450053656C6563742061204D656E75000A
:100D530043617264206572726F72202D20434D448B
:030D630031360026
:080D66005265636F72640A001C
:080D6E0057726974696E670099
:020D760000007B
:060D7800506C61790A00D5
:020000040030CA
:0D000100021F1EFF8381FF0FC00FE00F40A4
:00000001FF
