:0400000009EF05F00F
:1000080000C016F001C015F0E1CF19F0E2CF1AF0E8
:10001800E9CF17F0EACF18F09EA038D08B7C9E90DD
:1000280026C0CFFF1BC0CEFF2850010A02E1C282C2
:100038002DD03F502A24E96E40502B20EA6EEECF97
:1000480000F000C08CFF010E3F24006E000E40201F
:10005800016E00C03FF001C040F04050020A02E1CA
:10006800000E3F1813E13F6A406A010E296E4650A0
:10007800000A07E1470E2A6E020E2B6E010E466E2D
:1000880005D0470E2A6E000E2B6E466A9EAC2ED007
:100098009E9CC4CF27F03F502A24E16E40502B206D
:1000A800E26E27C0E6FF010E3F24006E000E4020DE
:1000B800016E00C03FF001C040F04050020A02E16A
:1000C800000E3F1813E13F6A406A010E296E465040
:1000D800000A07E1470E2A6E020E2B6E010E466ECD
:1000E80005D0470E2A6E000E2B6E466A16C000F029
:1000F80015C001F017C0E9FF18C0EAFF19C0E1FFF9
:060108001AC0E2FF110025
:10010E0069C4C9FFC7B002D00000FCD7C9CF00F048
:02011E001200CD
:0A012000530E0D6E0D2EFED71200D7
:0C012A00000000000000000000001200B7
:10013600240E0C6EB50E0D6E0D2EFED70C2EFCD7B2
:06014600000000001200A1
:10014C00F250026EF29E0500FF6A0150FE6E0050E6
:08015C00FD6E02BEF28E1200DE
:040164008B94120066
:10016800040160BF02D0819401D0818460BD02D0B7
:10017800819601D0818660BB02D0819801D08188A8
:1001880060B902D0819A01D0818A41B002D0818EB3
:1001980001D0819E818CC5DF819C60B702D081949B
:1001A80001D0818460B502D0819601D0818660B388
:1001B80002D0819801D0818860B102D0819A01D0A3
:1001C800818A41B002D0818E01D0819E818CA9DFC5
:0E01D800819C41A002D0ABDF01D09EDF12005F
:1001E6008B843DC0E1FF3EC0E2FFFF0EE66E3BC0E2
:0A01F60000F03CC001F0A7DF12008A
:10020000400E04016025006E3DC0E1FF3EC0E2FFEC
:1002100000C0E6FF3BC000F03CC001F097DF3DC0EE
:10022000E1FF3EC0E2FF64C4E6FF3BC000F03CC01B
:1002300001F08CDF3DC0E1FF3EC0E2FF63C4E6FF9A
:100240003BC000F03CC001F081DF3DC0E1FF3EC09B
:10025000E2FF62C4E6FF3BC000F03CC001F076DF85
:100260003DC0E1FF3EC0E2FF61C4E6FF3BC000F0DD
:100270003CC001F06BDF3DC0E1FF3EC0E2FF65C462
:10028000E6FF3BC000F03CC001F060DF0401676B9B
:10029000686B3DC0E1FF3EC0E2FFFF0EE66E3BC073
:1002A00000F03CC001F052DF00C066F40401674B6F
:1002B000682B800E0014016E0150000A07E0000E4A
:1002C000685D02E1640E675D01E2E3D766C400F099
:0202D00012001A
:0C02D20041905BC460F447DF41801200E3
:1002DE0004015C6B5D6B270E5D5D02E1100E5C5DD3
:1002EE00D8B09AD0000E000A02E1000E5B1915E19B
:1002FE0032DF010E606F616B626B636B646BFF0EBE
:10030E00656F77DF00C05EF467DF04015E51000A9F
:10031E0003E11C6A006A82D07CD01DDF370E606F4D
:10032E00616B626B636B646BFF0E656F62DF00C0A7
:10033E005EF452DF04015E51010AD8A469D00BDFCE
:10034E00290E606F000E616F000E626F000E636FFC
:10035E00400E646FFF0E656F4CDF00C05EF43CDF35
:10036E0004015E51000A53E1000E000A02E1020E82
:10037E005B1949E1F0DE3A0E606F616B626B636B85
:10038E00646BFF0E656F35DF00C05EF43DC0E1FFAC
:10039E003EC0E2FFFF0EE66E3BC000F03CC001F037
:1003AE00CEDE00C05FF43DC0E1FF3EC0E2FFFF0EB7
:1003BE00E66E3BC000F03CC001F0C1DE3DC0E1FF87
:1003CE003EC0E2FFFF0EE66E3BC000F03CC001F007
:1003DE00B6DE3DC0E1FF3EC0E2FFFF0EE66E3BC063
:1003EE0000F03CC001F0ABDEF7DE04015E51000A06
:1003FE0009E15FAD03D0040E1C6E02D0030E1C6E1D
:10040E00006A0CD004D0010E1C6E006A07D001D019
:0E041E0003D05C4B5D2B5FD7010E006E120009
:10042C0010D0800E04014D6F1AD0C00E4D6F17D036
:10043C00940E4D6F14D0D40E4D6F11D0800E4D6FA5
:10044C000ED004014D51010AECE04D51020AEDE0D1
:10045C004D51030AEDE04D51040AEDE0EFD74E0586
:10046C00006E4D51002600C04DF400C060F476DEE5
:10047C004190516B51514F25E96E000E5021EA6E9F
:10048C00EE520BE051514F25E96E000E5021EA6EF1
:0E049C00EECF5BF418DF512BEDD7418012003C
:1004AA00036A2C0E016E000E026E03500126D8B0AC
:1004BA00022A035004014D25F66E000E4E21F76EF6
:1004CA00000E4F21F86E0900F5CF00F001C0E1FFE0
:1004DA0002C0E2FF00C0E6FF01C0E9FF02C0EAFF76
:1004EA00EE5202E0032ADDD72C0E006E000E016EDA
:0204FA001200EE
:1004FC000900F5CFE6FF0006FBE10106F9E1120069
:0C050C000E0EC16E2D0EC06EC2801200DB
:10051800939C939E939A939893969394819C819E8F
:10052800819481968198819A02DE01DE00DE8188BD
:10053800818A818CF6DD819CFADD818CF2DD819CDB
:10054800F6DD818CEEDD819CF2DD819A818CE9DD1E
:10055800819CEDDD818CE5DD819C81988184818C95
:10056800E0DD819CE4DD8194818A818CDADD819CE7
:10057800819A818CD6DD819CDADD818CD2DD819CEB
:10058800818A818CCEDD819CD2DD819A818CC9DD06
:10059800819C818481868188818A818CC2DD819C4D
:0605A800C6DD41801200D7
:1005AE000E0E3B6E010E3C6E690E3D6E040E3E6EDF
:1005BE00FF0E426EFF0E436EFF0E446EFF0E456E33
:1005CE00949A04014D51040A02E1948601D0949646
:1005DE009488C66A4D51C6124F51C6124E51C7125B
:1005EE004F5305E05051000AD8B4C78C03D0505376
:0805FE00D8A4C78CC68A1200C4
:10060600050E1C6E9494ECDD04014D6B4E6B000ED2
:100616004E5D02E10A0E4D5D0FE23DC0E1FF3EC0B8
:10062600E2FFFF0EE66E3BC000F03CC001F08BDD42
:1006360004014D4B4E2BEBD792DD606B616B626B09
:10064600636B646B950E656FD8DD00C04FF4C8DD33
:1006560004014F51010A03E0010E006E72D07FDDE6
:10066600080E606FAA0E616F010E626F000E636F57
:10067600646F870E656FC1DD00C04FF43DC0E1FFBA
:100686003EC0E2FFFF0EE66E3BC000F03CC001F04C
:100696005ADD3DC0E1FF3EC0E2FFFF0EE66E3BC005
:1006A60000F03CC001F04FDD3DC0E1FF3EC0E2FF7F
:1006B600FF0EE66E3BC000F03CC001F044DD3DC0DD
:1006C600E1FF3EC0E2FFFF0EE66E3BC000F03CC01D
:1006D60001F039DD85DD04014F51010A08E0010E04
:1006E6005B6FFADD005202E05B6BF6DD03D0020EB3
:1006F6005B6FF2DD000E000A02E1050E1C1803E135
:10070600020E006E1ED0000E000A02E1040E1C1836
:1007160017E025DD100E606F000E616F020E626F2E
:10072600000E636F646FFF0E656F67DD00C04FF4E8
:1007360057DD04014F51000A03E0030E006E01D09D
:04074600006A120033
:10074A00010E9D6E2550000A05E1FE0E266ED70E9B
:10075A001B6E07D02550010A04E1FD0E266EBF0E5E
:0C076A001B6E26C0CFFF1BC0CEFF12008C
:10077600F6DC000E000A02E1040E1C1809E14DC465
:1007860055F44EC456F44FC457F450C458F414D01C
:10079600090E006E4DC455F44EC456F44FC457F4BA
:1007A60050C458F4005008E00401553755915637A7
:1007B60057375837FF0FF7D70401110E606F55C42E
:1007C60061F456C462F457C463F458C464F4FF0E6B
:1007D600656F13DD005204E003DD010E006E4BD0A1
:1007E6003DC0E1FF3EC0E2FFFF0EE66E3BC000F0FB
:1007F6003CC001F0A8DC0050FE0A01E0F1D704017C
:10080600536B546B020E545D02E1000E535D1BE206
:1008160053515125596F545152215A6F3DC0E1FF32
:100826003EC0E2FFFF0EE66E3BC000F03CC001F0AA
:100836008ADC59C4E1FF5AC4E2FF00C0E6FF0401A6
:10084600534B542BDFD73DC0E1FF3EC0E2FFFF0E06
:10085600E66E3BC000F03CC001F075DC3DC0E1FF38
:100866003EC0E2FFFF0EE66E3BC000F03CC001F06A
:080876006ADCB6DC006A120026
:10087E0072DC000E000A02E1040E1C1809E14DC4E0
:10088E0055F44EC456F44FC457F450C458F414D013
:10089E00090E006E4DC455F44EC456F44FC457F4B1
:1008AE0050C458F4005008E004015537559156379E
:1008BE0057375837FF0FF7D70401180E606F55C41E
:1008CE0061F456C462F457C463F458C464F4FF0E62
:1008DE00656F8FDC005204E07FDC010E006E91D05C
:1008EE003DC0E1FF3EC0E2FFFF0EE66E3BC000F0F2
:1008FE003CC001F024DC3DC0E1FF3EC0E2FFFF0E34
:10090E00E66E3BC000F03CC001F019DC3DC0E1FFDB
:10091E003EC0E2FFFE0EE66E3BC000F03CC001F0B2
:10092E000EDC0401536B546B5451010802E1535118
:10093E00FF0816E353515125E96E54515221EA6EC8
:10094E003DC0E1FF3EC0E2FFEECFE6FF3BC000F050
:10095E003CC001F0A6EC00F00401534B542BE4D73D
:10096E003DC0E1FF3EC0E2FFFF0EE66E3BC000F071
:10097E003CC001F0A6EC00F03DC0E1FF3EC0E2FF3E
:10098E00FF0EE66E3BC000F03CC001F0A6EC00F09E
:10099E003DC0E1FF3EC0E2FFFF0EE66E3BC000F041
:1009AE003CC001F0A6EC00F000C053F4000E0401B0
:1009BE00546F1F0E5315016E54C402F0000E021632
:1009CE0001C053F402C054F4000E021802E1050EE9
:1009DE00011804E001DC020E006E13D03DC0E1FFF1
:1009EE003EC0E2FFFF0EE66E3BC000F03CC001F0E1
:1009FE00A6EC00F00050FF0A01E0F0D7F3EC00F097
:040A0E00006A120068
:100A1200F9EC07F03F6A406A466A296A286A276A3F
:100A22007F0EF116470E2A6E000E2B6E6EDD030E40
:100A32000B6E8A0E0C6E550E0D6E0D2EFED70C2E01
:100A4200FCD70B2EFAD700000000956A030E936EB6
:100A5200BB0E9416400E8C6E5EDD010E0401606FBB
:100A6200B4EC00F00C0E606FB4EC00F08A0E4D6F27
:100A72000F0E4E6F000E4F6F17DD00C04FF401C016
:100A820050F4010E4D6F020E4E6FCFDC020E4D6F11
:100A92004E6B4F6B010E506F89DDB4DD0050000AC2
:100AA20001E0FBD74D6B4E6B4F6B010E506F7EDD3D
:100AB200C00EF21281A001D0FDD70401010E606FB9
:100AC200B4EC00F081A289D081B018D0080E0B6E70
:100AD2009D0E0C6E050E0D6E0D2EFED70C2EFCD744
:100AE2000B2EFAD7000000002850010F006E00C044
:100AF20028F02850040A02E1010E286E0401285051
:100B0200010A010ED8A4000E016E47512818000EEA
:100B1200D8A4010E006E0150001615E0010E606FA0
:100B2200B4EC00F0CB0E4D6F0F0E4E6F000E4F6FF8
:100B3200BBDC00C04FF401C050F4010E4D6F020E39
:100B42004E6F73DC47D02850020A010ED8A4000E63
:100B5200016E47512818000ED8A4010E006E0150F4
:100B6200001615E0010E606FB4EC00F0DC0E4D6F64
:100B72000F0E4E6F000E4F6F97DC00C04FF401C096
:100B820050F4010E4D6F020E4E6F4FDC23D02850F1
:100B9200030A010ED8A4000E016E47512818000E58
:100BA200D8A4010E006E0150001614E0010E606F11
:100BB200B4EC00F0990E4D6F0F0E4E6F000E4F6F9A
:100BC20073DC00C04FF401C050F4010E4D6F020EF1
:100BD2004E6F2BDC28C047F475D72850010AD8A4E1
:100BE2008AD0B2DD010E0401606FB4EC00F0A70EF2
:100BF2004D6F0F0E4E6F000E4F6F56DC00C04FF45C
:100C020001C050F4010E4D6F020E4E6F0EDC470E06
:100C12002A6E000E2B6E3F6A406A486B496B4A6B24
:100C22004B6B296A466A010ECD6E81A054D02950C1
:100C3200010A50E1296A465227E0040148C44DF4F2
:100C420049C44EF44AC44FF44BC450F4010E482731
:100C5200000E49234A234B23470E516F000E526F59
:100C62000DDE0050000A0FE0010E0401606FB4ECCB
:100C720000F0020E4D6F020E4E6F1D0E4F6F000EF2
:100C8200506F16EC02F026D0040148C44DF449C45A
:100C92004EF44AC44FF44BC450F4010E4827000EE0
:100CA20049234A234B23470E516F020E526FE6DD52
:100CB2000050000A0FE0010E0401606FB4EC00F076
:100CC200020E4D6F020E4E6F230E4F6F000E506FCD
:100CD20016EC02F0AAD7CD90030E0B6E8A0E0C6EA4
:100CE200550E0D6E0D2EFED70C2EFCD70B2EFAD7FD
:100CF2000000000047D12850020AD8A49CD0040169
:100D0200486B496B4A6B4B6B1FDD010E0401606F30
:100D1200B4EC00F0C00E4D6F0F0E4E6F000E4F6F11
:100D220055EC02F000C04FF401C050F4010E4D6FBB
:100D3200020E4E6F16EC02F0470E2A6E000E2B6E5C
:100D42003F6A406A296A466A48C44DF449C44EF46F
:100D52004AC44FF44BC450F4470E516F000E526F09
:100D620009DD0050000A00E0CD8081A054D0295056
:100D7200010A50E1296A465227E048C44DF449C4A9
:100D82004EF44AC44FF44BC450F4010E04014827F8
:100D9200000E49234A234B23470E516F000E526F18
:100DA200E9DC0050000A0FE0010E0401606FB4ECB0
:100DB20000F0020E4D6F020E4E6F210E4F6F000EAD
:100DC200506F16EC02F026D0040148C44DF449C419
:100DD2004EF44AC44FF44BC450F4010E4827000E9F
:100DE20049234A234B23470E516F020E526FC2DC36
:100DF2000050000A0FE0010E0401606FB4EC00F035
:100E0200020E4D6F020E4E6F1F0E4F6F000E506F8F
:100E120016EC02F0AAD7CD90030E0B6E8A0E0C6E62
:100E2200550E0D6E0D2EFED70C2EFCD70B2EFAD7BB
:100E320000000000A7D02850030AD8A4A3D028C0DD
:100E42004CF4010E286E0D0E0B6EAF0E0C6EB60E2C
:100E52000D6E04010D2EFDD70C2EFBD70B2EF9D7EC
:100E62000000010E606FB4EC00F081A269D081B085
:100E720018D0080E0B6E9D0E0C6E050E0D6E0D2E0B
:100E8200FED70C2EFCD70B2EFAD7000000002850FC
:100E9200010F006E00C028F02850030A02E1010E83
:100EA200286E04012850010A010ED8A4000E016E1A
:100EB20047512818000ED8A4010E006E01500016EA
:100EC20017E0010E606FB4EC00F0D40E4D6F0F0E00
:100ED2004E6F000E4F6F55EC02F000C04FF401C090
:100EE20050F4010E4D6F020E4E6F16EC02F025D03B
:100EF2002850020A010ED8A4000E016E475128188C
:100F0200000ED8A4010E006E0150001616E0010E6C
:100F1200606FB4EC00F0EA0E4D6F0F0E4E6F000ED4
:100F22004F6F55EC02F000C04FF401C050F4010EB7
:100F32004D6F020E4E6F16EC02F028C047F495D7A3
:100F42002850010A02E1256A05D02850020A02E16E
:100F5200010E256E010E606FB4EC00F0E30E4D6FD2
:100F62000F0E4E6F000E4F6F55EC02F000C04FF4A3
:100F720001C050F4010E4D6F020E4E6F16EC02F0DE
:080F82004CC428F097D5FFD7FD
:100FF20010EE1BF00C0E006E010E016EB40EF66EBA
:0E1002000F0EF76E000EF86E7EEC02F012007C
:0F0F8A00564F494345205245434F52444552006C
:0E0F99003E2053616D706C65205261746500DE
:0D0FA7005265636F7264696E672E2E2E0016
:010FB400D765
:010FB500003B
:020FB6004500F4
:020FB8004500F2
:020FBA004500F0
:020FBC004500EE
:010FBE000032
:010FBF00FE33
:0B0FC000506C6179696E672E2E2E00C8
:090FCB003E205265636F72640060
:080FD4003E2031364B687A0023
:070FDC003E20506C6179001A
:070FE30053617665642100F3
:070FEA003E20386B687A001D
:020000040030CA
:0D000100021F1EFF8381FF0FC00FE00F40A4
:00000001FF
