:10000000BCEF03F00000000000EF00F00000000073
:0A0010000000000000000000F3D71C
:0E001C00ACB202D00000FCD739C1ADFF12001B
:10002A0039C1C9FFC7B002D00000FCD7C9CF00F060
:02003A001200B2
:10003C00F250026EF29E0500FF6A0150FE6E0050F7
:08004C00FD6E02BEF28E1200EF
:10005400086A096A100E0C6E013408360936045019
:10006400085E0550D8A0053C095ED8B007D00450FE
:1000740008260550D8B0053C0926D890003601362C
:060084000C2EEAD7120069
:10008A000101366B050E365D0AE236513425E16E02
:10009A00000E3521E26E200EE66E362BF3D736516E
:1000AA003425E16E000E3521E26EE66A36073651D6
:1000BA003425376F000E3521386F0A0E046E000E94
:1000CA00056E32C100F033C101F0BFDF08C000F095
:1000DA0009C001F0300E002637C1E1FF38C1E2FF46
:1000EA0000C0E6FF0A0E046E000E056E32C100F073
:1000FA0033C101F0AADF00C032F101C033F1000EB2
:10010A00011802E1000E001801E102D03607CFD72C
:02011A001200D1
:10011C0010C1E1FF11C1E2FF32C1E6FF0EC100F0D8
:08012C000FC101F085DF120094
:1001340032C1C9FFC7B002D00000FCD7C9CF00F05C
:020144001200A7
:1001460001012E6B2F6B28C130F129C131F1800ED0
:100156002919006E800E005C02E1000E285D0BE29C
:10016600010E2E6F000E2F6F28510008306F29C127
:1001760031F1000E315730C132F131C133F12AC1AC
:1001860034F12BC135F17EDF060E2C6F000E2D6F7C
:10019600000E006E2D51005C02E12C51000819E2A0
:1001A6002C512A25E16E2D512B21E26E010E2C5D7C
:1001B600006E000E2D59016E00502A25E96E015081
:1001C6002B21EA6EEECFE6FF010E2C5F000E2D5BB3
:1001D600DFD72AC1E1FF2BC1E2FF200EE66E2E51CA
:1001E6002F111AE02C6B2D6B2C512A25E96E2D51FF
:1001F6002B21EA6EEE50200A03E12C4B2D2BF4D76F
:10020600010E2C5F000E2D5B2C512A25E16E2D511F
:0A0216002B21E26E2D0EE66E1200A1
:10022000FF0E0101396F01DF400E01012811396F06
:10023000FCDE2CC100F0016A026A036A00C039F1D9
:10024000F4DE2BC100F02CC101F0026A036A00C089
:1002500039F1EBDE2AC100F02BC101F02CC102F014
:10026000036A00C039F1E1DE29C139F1DEDE2DC1BA
:1002700039F1DBDEFF0E0101326F5CDF00C004F1FB
:0202800012006A
:10028200340E01010A6F010E0B6F320E0C6F010E5C
:100292000D6F2A0E066F000E076F390E086F010EE2
:1002A200096F949A2851040A02E1948601D0949627
:1002B2009488C66A2851C6122A51C6122951C712F9
:1002C2002A5305E02B51000AD8B4C78C03D02B5314
:0802D200D8A4C78CC68A1200F3
:1002DA0001012B6B28C1E9FF29C1EAFFEECF2AF100
:1002EA002A51000A0EE02AC132F113DF01012B2B39
:1002FA002B512825E96E000E2921EA6EEECF2AF14C
:04030A00EFD7120017
:10030E001C0E01010E6F000E0F6F390E106F010ED5
:10031E00116FFF0E1A6FFF0E1B6F000E1C6F000E7B
:10032E001D6FFF0E166FFF0E176F000E186F000E6B
:10033E00196FFF0E126FFF0E136F000E146F000E6B
:10034E00156FAC8A900EAB6E948E949C9EAA03D0C1
:08035E00AECF00F0FBD7120046
:100366000900F5CFE6FF0006FBE10106F9E1120000
:10037600020E0101286F296B2A6B010E2B6F7EDF9F
:100386000D0E0C6EFB0E0D6E0D2EFED70C2EFCD731
:10039600000000008B84990E286F000E296F9ADFEB
:1003A6000D0E326FB8DE0A0E0101326FB4DE0101A6
:1003B6001F6B0A0E1F5D06E2FF0E396F33DE010169
:1003C6001F2BF7D7870E286F000E296F83DF0D0EC0
:1003D600326FA1DE0A0E0101326F9DDE8B947B0E19
:1003E6000101286F000E296F75DF0D0E326F93DE47
:1003F6000A0E0101326F8FDE070E0C6E7D0E0D6E3A
:100406000D2EFED70C2EFCD70101286B296B2A6B0B
:100416002B6B2C6B950E2D6F00DFA50E0101286F3F
:10042600000E296F57DF0D0E326F75DE0A0E0101C1
:10043600326F71DE0101056B0451010A0FE00A0EED
:10044600055D0CE2FF0E326F72DE00C004F10101A1
:100456000551010F006E00C005F1EED70A0E055DCD
:100466000DE3B00E286F000E296F34DF0D0E326FCC
:1004760052DE0A0E0101326F4EDEFFD7010E010178
:10048600286F296B2A6B2B6B2C6BFF0E2D6FC5DE2D
:100496000101056B0451000A1FE0800E006E800EFC
:1004A600030A005C02E1E80E055D16E2010E286F04
:1004B600296B2A6B2B6B2C6BFF0E2D6FAEDEFF0E9E
:1004C6000101326F34DE00C004F101010551010F54
:1004D600006E00C005F1DED7800E006E800E030AA6
:1004E600005C02E1E80E055D0DE3690E286F000E63
:1004F600296FF0DE0D0E326F0EDE0A0E0101326F2D
:100506000ADEFFD7100E0101286F000E296F020EBA
:100516002A6F000E2B6F2C6FFF0E2D6F7EDE0101F2
:10052600056B0451000A15E0800E006E800E030A6A
:10053600005C02E1E80E055D0CE2FF0E326FF7DDAE
:1005460000C004F101010551010F006E00C005F164
:10055600E8D7800E006E800E030A005C02E1E80E0A
:10056600055D0DE32E0E286F000E296FB3DE0D0E0E
:10057600326FD1DD0A0E0101326FCDDDFFD7200EBD
:100586000101286F000E296FA5DE0D0E326FC3DD47
:100596000A0E0101326FBFDD820E0C6EDD0E0D6E8E
:0E05A6000D2EFED70C2EFCD700000000120018
:1005B400FF0E0101396F37DDFF0E0101326FB8DD27
:1005C40000C004F101010451FF0A01E0FBD7FF0E52
:1005D400326FAEDD00C004F1C20E0101286F000EBF
:1005E400296F79DE0D0E326F97DD0A0E0101326F2D
:0605F40093DDFFD71200A9
:1005FA00FF0E0101396F14DDFF0E0101326F95DD27
:10060A0000C004F101010451FF0A13E0FF0E326F2A
:10061A008CDD00C004F1150E0101286F000E296F50
:10062A0057DE0D0E326F75DD0A0E0101326F71DD74
:10063A00E9D7110E0101286F41C029F142C02AF100
:10064A0043C02BF144C02CF1950E2D6FE4DD01015E
:10065A000451000A13E0FF0E326F67DD00C004F197
:10066A00630E0101286F000E296F32DE0D0E326F04
:10067A0050DD0A0E0101326F4CDDE9D7550E01013A
:10068A00286F000E296F24DE0D0E326F42DD0A0E2E
:10069A000101326F3EDD01010451FE0A06E0FF0E40
:1006AA00326F43DD00C004F1F6D7450E0101286F11
:1006BA00000E296F0DDE0D0E326F2BDD0A0E0101C1
:1006CA00326F27DD01011F6B206B020E205D02E1F4
:1006DA00000E1F5D33E2FF0E326F27DD00C004F10A
:1006EA0004C128F1000E0101296F210E2A6F010EA3
:1006FA002B6F24DD210E286F010E296FE9DD0D0E07
:10070A00326F07DD0A0E0101326F03DD04C18AFF71
:10071A000D0E0C6EFB0E0D6E0D2EFED70C2EFCD799
:10072A0000000000010E01011F25006E000E2021AD
:10073A00016E00C01FF101C020F1C7D7FF0E326F52
:10074A00F4DC00C004F1FF0E0101326FEEDC00C0E0
:10075A0004F1E60E0101286F000E296FB9DD0D0EB6
:0E076A00326FD7DC0A0E0101326FD3DC1200B1
:1007780014EC05F00E0EC1122D0EC012C09EC280E0
:10078800030E0B6E8A0E0C6E550E0D6E0D2EFED7D7
:100798000C2EFCD70B2EFAD700000000F30E956E36
:1007A800928495849586936A946AB886020EB06E90
:1007B800080EAF6EAC84A7DDDADD83A401D0FDD7C7
:1007C800D80E0101286F000E296F83DD0D0E326FE0
:1007D800A1DC0A0E0101326F9DDC83A671D083B4BF
:1007E80023D0080E0B6E9D0E0C6E050E0D6E0D2E91
:1007F800FED70C2EFCD70B2EFAD700000000010EF6
:100808000001D625006E000ED721016E00C0D6F07B
:1008180001C0D7F0000ED71902E1030ED61904E182
:10082800010ED66F000ED76F0001000ED71902E136
:10083800010ED619010ED8A4000E016E000ED719AC
:1008480003E1D65101011E19000ED8A4010E006E55
:10085800015000160EE00101EC0E286F000E296F02
:1008680038DD0D0E326F56DC0A0E0101326F52DC94
:1008780024D0000E0001D71902E1020ED619010E8C
:10088800D8A4000E016E000ED71903E1D65101015C
:100898001E19000ED8A4010E006E015000160DE0BE
:1008A8000101FE0E286F000E296F13DD0D0E326F49
:1008B80031DC0A0E0101326F2DDCD6C01EF18DD756
:1008C800000E0001D71902E1010ED61911E1FC6BE7
:1008D800FD6BF40E0101286F000E296FFADC0D0E76
:1008E800326F18DC0A0E0101326F14DC816A5EDE99
:1008F800000E0001D71902E1020ED61917E1CE0E3B
:100908000101286F000E296FE4DC0D0E326F02DC46
:100918000A0E0101326F8EEC00F00001FC6BFD6BDA
:1009280068DE83A403D083A601D0FBD746D7FFD7C0
:100A280010EE15F0EF0E006E010E016E380EF66E28
:0E0A3800090EF76E000EF86EB3EC01F012001E
:0B093800436172642062757379210036
:0E0943004D4D43204465746563746564210066
:1009510043617264206572726F72202D20434D4491
:030961003136002C
:04096400000000008F
:10096800546F6B656E2072656365697665642100F6
:0E097800434D44206163636570746564210023
:06098600427573792100A7
:10098C0043617264204552524F52202D20434D44F6
:02099C00310028
:0C099E004353206973204C4F57210A007E
:1009AA0044756D6D7920636C6F636B2073656E742B
:0209BA0021001A
:0C09BC004353206973204849474821003C
:0B09C800434D44302073656E74210025
:1009D30043415244204552524F52202D20434D440F
:0209E3003000E2
:0C09E50043617264207265616479210036
:0809F10052656164696E670044
:0209F9000000FC
:0E09FB0053656C6563742061204D656E750058
:060A0900444F4E452100A0
:080A0F005265636F72640A0076
:080A170057726974696E6700F3
:020A1F000000D5
:060A2100506C61790A002F
:020000040030CA
:0D000100021F1EFF8381FF0FC00FE00F40A4
:00000001FF
