:1000000059EF05F00000000000EF00F000000000D4
:0A0010000000000000000000F3D71C
:10001C00FFC2C9FFC7B002D00000FCD7C9CF00F0A7
:02002C001200C0
:10002E00F250026EF29E0500FF6A0150FE6E005005
:08003E00FD6E02BEF28E1200FD
:10004600FEC2C9FFC7B002D00000FCD7C9CF00F07E
:02005600120096
:0E005800ACB202D00000FCD7FEC2ADFF120019
:100066008B84C2C0E1FFC3C0E2FFFF0EE66EC0C0D4
:0A00760000F0C1C001F0D8DF120055
:040080008B9412004B
:10008400400E03010125006EC2C0E1FFC3C0E2FFC0
:1000940000C0E6FFC0C000F0C1C001F0C6DFC2C0AE
:1000A400E1FFC3C0E2FF05C3E6FFC0C000F0C1C06A
:1000B40001F0BBDFC2C0E1FFC3C0E2FF04C3E6FF3F
:1000C400C0C000F0C1C001F0B0DFC2C0E1FFC3C0D6
:1000D400E2FF03C3E6FFC0C000F0C1C001F0A5DF2A
:1000E400C2C0E1FFC3C0E2FF02C3E6FFC0C000F02C
:1000F400C1C001F09ADFC2C0E1FFC3C0E2FF06C382
:10010400E6FFC0C000F0C1C001F08FDF0201FC6B4C
:10011400FD6BC2C0E1FFC3C0E2FFFF0EE66EC0C0CC
:1001240000F0C1C001F081DF00C0FBF20201FC4B12
:10013400FD2B800E0014016E0150000A07E0000E32
:10014400FD5D02E1640EFC5D01E2E3D7FBC200F059
:02015400120097
:10015600086A096A100E0C6E013408360936045016
:10016600085E0550D8A0053C095ED8B007D00450FB
:1001760008260550D8B0053C0926D8900036013629
:060186000C2EEAD7120066
:10018C00DCC0E1FFDDC0E2FFF6C2E6FFDAC000F042
:08019C00DBC001F046DF120098
:1001A4000201F76BF86B270EF85D02E1100EF75DA4
:1001B400D8B0A3D0000E000A02E1000EF61917E130
:1001C4005DDF010E0301016F026B036B046B056BB2
:1001D400FF0E066F55DF00C0F9F243DF0201F9514B
:1001E400000A04E10001BD6B006A89D082D046DFB9
:1001F400370E0301016F026B036B046B056BFF0E7B
:10020400066F3EDF00C0F9F22CDF0201F951010A4A
:10021400D8A46ED033DF290E0301016F000E026FE4
:10022400000E036F000E046F400E056FFF0E066F85
:1002340027DF00C0F9F215DF0201F951000A57E186
:10024400000E000A02E1020EF6194CE117DF3A0E25
:100254000301016F026B036B046B056BFF0E066FEA
:100264000FDF00C0F9F2C2C0E1FFC3C0E2FFFF0E1E
:10027400E66EC0C000F0C1C001F0D7DE00C0FAF2E3
:10028400C2C0E1FFC3C0E2FFFF0EE66EC0C000F0D3
:10029400C1C001F0CADEC2C0E1FFC3C0E2FFFF0E6D
:1002A400E66EC0C000F0C1C001F0BFDEC2C0E1FF15
:1002B400C3C0E2FFFF0EE66EC0C000F0C1C001F093
:1002C400B4DECFDE0201F951000A0BE1FAAD04D02D
:1002D400040E0001BD6F03D00001030EBD6F006A60
:1002E4000ED005D00001010EBD6F006A08D001D008
:1002F40004D00201F74BF82B56D7010E006E120002
:10030400FF0E0201FE6F9DDE400E0201E811FE6F3A
:1003140098DEECC200F0016A026A036A00C0FEF2D1
:1003240090DEEBC200F0ECC201F0026A036A00C086
:10033400FEF287DEEAC200F0EBC201F0ECC202F08A
:10034400036A00C0FEF27DDEE9C2FEF27ADEEDC28F
:10035400FEF277DEFF0E0201FF6F5EDE00C0C9F021
:02036400120085
:100366001C0E0001C06F000EC16FFF0EC26F020EA1
:10037600C36F460ECE6F000ECF6FFE0ED06F020E0D
:10038600D16F949A0201E851040A02E1948601D0E1
:1003960094969488C66AE851C612EA51C612E95183
:1003A600C712EA5305E0EB51000AD8B4C78C03D054
:0A03B600EB53D8A4C78CC68A1200CE
:1003C0000201EB6BE8C2E9FFE9C2EAFFEECFEAF215
:1003D000EA51000A0EE0EAC2F6F2D8DE0201EB2B87
:1003E000EB51E825E96E000EE921EA6EEECFEAF264
:0403F000EFD7120031
:1003F40045DE000E000A03E1040E0001BD1909E107
:10040400E8C2F0F2E9C2F1F2EAC2F2F2EBC2F3F2AC
:1004140014D0090E006EE8C2F0F2E9C2F1F2EAC2A9
:10042400F2F2EBC2F3F2005008E00201F037F0916F
:10043400F137F237F337FF0FF7D7110E0301016FCE
:10044400F0C202F3F1C203F3F2C204F3F3C205F300
:10045400FF0E066F15DE005204E003DE010E006E8F
:100464004BD0C2C0E1FFC3C0E2FFFF0EE66EC0C0C6
:1004740000F0C1C001F0D9DD0050FE0A01E0F1D75F
:100484000201EE6BEF6B020EEF5D02E1000EEE5D1A
:100494001BE2EE51EC25F46FEF51ED21F56FC2C074
:1004A400E1FFC3C0E2FFFF0EE66EC0C000F0C1C0B2
:1004B40001F0BBDDF4C2E1FFF5C2E2FF00C0E6FFDC
:1004C4000201EE4BEF2BDFD7C2C0E1FFC3C0E2FF56
:1004D400FF0EE66EC0C000F0C1C001F0A6DDC2C0D0
:1004E400E1FFC3C0E2FFFF0EE66EC0C000F0C1C072
:0A04F40001F09BDDB6DD006A120086
:1004FE000201EC6B050EEC5D0AE2EC51EA25E16EB1
:10050E00000EEB21E26E200EE66EEC2BF3D7EC51D3
:10051E00EA25E16E000EEB21E26EE66AEC07EC5185
:10052E00EA25ED6F000EEB21EE6F0A0E046E000E43
:10053E00056EE8C200F0E9C201F006DE08C000F068
:10054E0009C001F0300E0026EDC2E1FFEEC2E2FF5F
:10055E0000C0E6FF0A0E046E000E056EE8C200F043
:10056E00E9C201F0F1DD00C0E8F201C0E9F2000ECF
:10057E00011802E1000E001801E102D0EC07CFD7FE
:02058E00120059
:10059000050E0001BD6F949466DD0201E86BE96B06
:1005A000000EE95D02E10A0EE85D0FE2C2C0E1FF64
:1005B000C3C0E2FFFF0EE66EC0C000F0C1C001F094
:1005C00036DD0201E84BE92BEBD75ADD0301016B65
:1005D000026B036B046B056B950E066F53DD00C059
:1005E000EAF241DD0201EA51010A03E0010E006E68
:1005F00078D046DD080E0301016FAA0E026F010ECE
:10060000036F000E046F056F870E066F3BDD00C0A1
:10061000EAF2C2C0E1FFC3C0E2FFFF0EE66EC0C057
:1006200000F0C1C001F003DDC2C0E1FFC3C0E2FFC2
:10063000FF0EE66EC0C000F0C1C001F0F8DCC2C021
:10064000E1FFC3C0E2FFFF0EE66EC0C000F0C1C014
:1006500001F0EDDCC2C0E1FFC3C0E2FFFF0EE66EB9
:10066000C0C000F0C1C001F0E2DCFDDC0201EA51D3
:10067000010A09E0010EF66F95DD005203E0020168
:10068000F66B90DD04D0020E0201F66F8BDD000EDA
:10069000000A03E1050E0001BD1903E1020E006E20
:1006A00020D0000E000A03E10001040EBD1918E07D
:1006B000E7DC100E0301016F000E026F020E036FE4
:1006C000000E046F056FFF0E066FDCDC00C0EAF25F
:1006D000CADC0201EA51000A03E0030E006E01D0F9
:0406E000006A12009A
:1006E400930E0201E86F000EE96F68DE0D0EF66FDF
:1006F4004BDD0A0E0201F66F47DD1A0E0B6E5E0E1D
:100704000C6E6E0E0D6E0D2EFED70C2EFCD70B2E1E
:10071400FAD70000020E0201E86FE96BEA6B010EE2
:10072400EB6F1FDE33DF0050000A01E0FBD702014C
:10073400E86BE96BEA6B010EEB6F13DE850EE86F75
:10074400000EE96F3BDE0D0EF66F1EDD0A0E020190
:10075400F66F1ADD1A0E0B6E5E0E0C6E6E0E0D6EBB
:100764000D2EFED70C2EFCD70B2EFAD7000012004C
:100774000900F5CFE6FF0006FBE10106F9E11200EE
:10078400580E0001DA6F000EDB6FFE0EDC6F020EF6
:10079400DD6FFF0ED66FFF0ED76F000ED86F000E01
:1007A400D96FFF0ED26FFF0ED36F000ED46F000E01
:1007B400D56FFF0ECA6FFF0ECB6F000ECC6F000E0D
:1007C400CD6FAC8A900EAB6E948E949C9EAA03D08F
:0807D400AECF00F0FBD71200CC
:1007DC000001E66BE76BFF0E0201FE6F2EDCFF0ED5
:1007EC000201FF6F15DC00C0C9F00001C951FF0AFE
:1007FC0014E0FF0E0201FF6F0BDC00C0C9F0420ECB
:10080C000201E86F000EE96FD5DD0D0EF66FB8DC56
:10081C000A0E0201F66FB4DCE8D7180E0201E86F7D
:10082C00C5C0E9F2C6C0EAF2C7C0EBF2C8C0ECF230
:10083C00950EED6F61DD0001C951000A08E0FF0E55
:10084C000201FF6F0EEC00F000C0C9F0F4D7730E7C
:10085C000201E86F000EE96FADDD0D0EF66F90DC56
:10086C000A0E0201F66F8CDCFF0E0201FE6F23EC08
:10087C0000F0FF0E0201FE6F23EC00F0FE0E0201F1
:10088C00FE6F23EC00F00001E66BE76B020EE75DF8
:10089C0002E1000EE65D09E2990E0201FE6F23EC07
:1008AC0000F00001E64BE72BF1D7FF0E0201FE6FC3
:1008BC0023EC00F0FF0E0201FE6F23EC00F0FF0EA4
:1008CC000201FF6F0EEC00F000C0C9F01F0E00011A
:1008DC00C915016E0150050A0DE1640E0201E86FA5
:1008EC00000EE96F67DD0D0EF66F4ADC0A0E020191
:1008FC00F66F46DCFF0E0201FF6F0EEC00F000C03D
:10090C00C9F00001C951FF0A08E0FF0E0201FF6F98
:10091C000EEC00F000C0C9F0F4D7350E0201E86F00
:10092C00000EE96F47DD0D0EF66F2ADC0A0E020190
:06093C00F66F26DC12003C
:100942000001EC6BED6BE6C0EEF0E7C0EFF0800E5D
:10095200E719006E800E005C02E1000EE65D0BE21C
:10096200010EEC6F000EED6FE6510008EE6FE7C06E
:10097200EFF0000EEF57EEC0E8F2EFC0E9F2E8C088
:10098200EAF2E9C0EBF2BADD060E0001EA6F000EF0
:10099200EB6F000E006EEB51005C02E1EA510008C1
:1009A20019E2EA51E825E16EEB51E921E26E010E0E
:1009B200EA5D006E000EEB59016E0050E825E96E0B
:1009C2000150E921EA6EEECFE6FF010EEA5F000E6A
:1009D200EB5BDFD7E8C0E1FFE9C0E2FF200EE66E85
:1009E200EC51ED111AE0EA6BEB6BEA51E825E96E86
:1009F200EB51E921EA6EEE50200A03E1EA4BEB2BC0
:100A0200F4D7010EEA5F000EEB5BEA51E825E16ED6
:0C0A1200EB51E921E26E2D0EE66E1200A1
:100A1E00BBC0E8F2BCC0E9F2000E0201EA6FEB6F58
:100A2E00E80EEC6F000EED6FDEDC00520FE0AF0E45
:100A3E000201E86F000EE96FBCDC0D0EF66FC6EC1E
:100A4E0000F00A0E0201F66FC6EC00F00001E66B34
:100A5E00E76B020EE75D02E1000EE65D10E2E80EC6
:100A6E00E625E96E000EE721EA6EEECF8AFF290E2B
:100A7E000D6E0D2EFED70000E64BE72BEAD7010ECA
:100A8E00BB25006E000EBC21016E00C0BBF001C084
:040A9E00BCF0120096
:100AA200A69CE6C0A9FFA69EA680A8CF00F01200D1
:100AB200F9EC06F00E0EC1122D0EC012C09EC280BD
:100AC200030E0B6E8A0E0C6E550E0D6E0D2EFED79A
:100AD2000C2EFCD70B2EFAD700000000F30E956EF9
:100AE200928495849586936A946AB886020EB06E53
:100AF200080EAF6EAC8445DEF4DD83A401D0FDD7D1
:100B0200A10E0201E86F000EE96F59DC0D0EF66FBF
:100B1200C6EC00F00A0E0201F66FC6EC00F083A6E6
:100B220074D083B423D0080E0B6E9D0E0C6E050E8E
:100B32000D6E0D2EFED70C2EFCD70B2EFAD7000011
:100B42000000010E0001BE25006E000EBF21016EE5
:100B520000C0BEF001C0BFF0000EBF1902E1030EDB
:100B6200BE1904E1010EBE6F000EBF6F0001000E40
:100B7200BF1902E1010EBE19010ED8A4000E016ECA
:100B8200000EBF1902E1BE51DE19000ED8A4010EFB
:100B9200006E0150001610E0270E0201E86F000EF1
:100BA200E96F0DDC0D0EF66FC6EC00F00A0E0201C5
:100BB200F66FC6EC00F026D0000E0001BF1902E16C
:100BC200020EBE19010ED8A4000E016E000EBF194E
:100BD20002E1BE51DE19000ED8A4010E006E0150D2
:100BE200001610E02F0E0201E86F000EE96FE0EC34
:100BF20001F00D0EF66FC6EC00F00A0E0201F66F60
:100C0200C6EC00F0BEC0DEF08AD7000E0001BF19AC
:100C120002E1010EBE1914E1BB6BBC6B150E0201A1
:100C2200E86F000EE96FE0EC01F00D0EF66FC6EC16
:100C320000F00A0E0201F66FC6EC00F0816ACDDD0B
:100C4200000E0001BF1902E1020EBE19D8A478D02D
:100C52001D0E0201E86F000EE96FE0EC01F00D0ECF
:100C6200F66FC6EC00F00A0E0201F66FC6EC00F059
:100C72000001BB6BBC6B256A266A820EE66F10DF31
:100C820000C0C4F0C4C001F0006A00502512015037
:100C92002612A30E0C6E550E0D6E0D2EFED70C2EC7
:100CA200FCD7810EE66FFCDE00C0C4F0C4512512F1
:100CB200000E261225C0E6F026C0E7F0DF0EE86F30
:100CC200000EE96F3DDEDF0E0201E86F000EE96FF4
:100CD200E0EC01F00D0EF66FC6EC00F00A0E020118
:100CE200F66FC6EC00F026500001BC5D02E1255013
:100CF200BB5D02E293DEF7D7FF0E0201FE6F23EC2B
:100D020000F0FF0E0201FE6F23EC00F08D0E0201D7
:100D1200FE6F23EC00F04D0E0201E86F000EE96F4A
:100D2200E0EC01F00D0EF66FC6EC00F00A0E0201C7
:100D3200F66FC6EC00F083A403D083A601D0FBD7E4
:040D4200DCD6FFD725
:100DF20010EE15F0AB0E006E010E016E460EF66E91
:0E0E02000D0EF76E000EF86EBAEC03F0120043
:080D460057726974696E6700C1
:080D4E0052656164696E6700E3
:020D560000009B
:080D58005265636F72640A002A
:060D6000506C61790A00ED
:0D0D6600436172642069732069646C65004C
:0B0D73004361726420627573792100F7
:100D7E0053746F707065642E2050726573732061AA
:070D8E006E796B657921000D
:0F0D95004461746120616363657074656421005B
:100DA400436F6D6D616E6420616363657074656427
:020DB40021001C
:0E0DB6004D4D432044657465637465642100EF
:0E0DC400446574656374696E67204D4D43008D
:0E0DD20053656C6563742061204D656E75007D
:0C0DE00052656164206572726F72210020
:020DEC00000005
:010DEE000004
:020DEF00000002
:020000040030CA
:0D000100021F1EFF8381FF0FC00FE00F40A4
:00000001FF
