:040000006FEF05F0A9
:1000080000C016F001C015F0E1CF19F0E2CF1AF0E8
:10001800E9CF17F0EACF18F09EA040D09E90FE0ED0
:10002800CF6EC70ECE6E000E291802E1010E2818F9
:1000380002E1C28233D0000E291802E1020E28180C
:100048002DE11B503724E96E1C503820EA6EEECFA4
:1000580000F000C08CFF010E1B24006E000E1C2057
:10006800016E00C01BF001C01CF01C50020A02E126
:10007800000E1B1813E11B6A1C6A010E256E27501F
:10008800000A07E1390E376E000E386E010E276E32
:1000980005D0470E376E020E386E276A9EAC2ED0FA
:1000A8009E9CC4CF2AF01B503724E16E1C50382088
:1000B800E26E2AC0E6FF010E1B24006E000E1C2013
:1000C800016E00C01BF001C01CF01C50020A02E1C6
:1000D800000E1B1813E11B6A1C6A010E256E2750BF
:1000E800000A07E1390E376E000E386E010E276ED2
:1000F80005D0470E376E020E386E276A16C000F01C
:1001080015C001F017C0E9FF18C0EAFF19C0E1FFE8
:060118001AC0E2FF110015
:10011E0089C4C9FFC7B002D00000FCD7C9CF00F018
:02012E001200BD
:10013000F250026EF29E0500FF6A0150FE6E005002
:08014000FD6E02BEF28E1200FA
:10014800400E04018025006E45C2E1FF46C2E2FF71
:1001580000C0E6FF43C200F044C201F0E5DF45C23B
:10016800E1FF46C2E2FF84C4E6FF43C200F044C296
:1001780001F0DADF45C2E1FF46C2E2FF83C4E6FFD1
:1001880043C200F044C201F0CFDF45C2E1FF46C2DE
:10019800E2FF82C4E6FF43C200F044C201F0C4DFBC
:1001A80045C2E1FF46C2E2FF81C4E6FF43C200F058
:1001B80044C201F0B9DF45C2E1FF46C2E2FF85C48F
:1001C800E6FF43C200F044C201F0AEDF0401876BD2
:1001D800886B45C2E1FF46C2E2FFFF0EE66E43C2EE
:1001E80000F044C201F0A0DF00C086F40401874B90
:1001F800882B800E0014016E0150000A07E0000EE3
:10020800885D02E1640E875D01E2E3D786C400F0F1
:020218001200D2
:10021A008B8445C2E1FF46C2E2FFFF0EE66E43C28F
:0A022A0000F044C201F07FDF120073
:0E023400ACB202D00000FCD780C4ADFF1200B7
:1002420080C4C9FFC7B002D00000FCD7C9CF00F0FC
:02025200120098
:040254008B94120075
:1002580004017C6B7D6B270E7D5D02E1100E7C5DD9
:10026800D8B09AD0000E000A02E1000E7B1915E101
:10027800EDDF010E806F816B826B836B846BFF0EE9
:10028800856F5EDF00C07EF4C4DF04017E51000A82
:1002980003E1266A006A82D07CD0D8DF370E806FEF
:1002A800816B826B836B846BFF0E856F49DF00C0A7
:1002B8007EF4AFDF04017E51010AD8A469D0C6DFFD
:1002C800290E806F000E816F000E826F000E836F03
:1002D800400E846FFF0E856F33DF00C07EF499DF18
:1002E80004017E51000A53E1000E000A02E1020EE9
:1002F8007B1949E1ABDF3A0E806F816B826B836BB0
:10030800846BFF0E856F1CDF00C07EF445C2E1FFE1
:1003180046C2E2FFFF0EE66E43C200F044C201F09F
:1003280003DF00C07FF445C2E1FF46C2E2FFFF0ED3
:10033800E66E43C200F044C201F0F6DE45C2E1FFBA
:1003480046C2E2FFFF0EE66E43C200F044C201F06F
:10035800EBDE45C2E1FF46C2E2FFFF0EE66E43C296
:1003680000F044C201F0E0DE54DF04017E51000ACF
:1003780009E17FAD03D0040E266E02D0030E266E6F
:10038800006A0CD004D0010E266E006A07D001D096
:0E03980003D07C4B7D2B5FD7010E006E120050
:1003A600086A096A100E0C6E0134083609360450C4
:1003B600085E0550D8A0053C095ED8B007D00450A9
:1003C60008260550D8B0053C0926D89000360136D7
:0603D6000C2EEAD7120014
:1003DC00050E266E94941BDF0401746B756B000E76
:1003EC00755D02E10A0E745D0FE245C2E1FF46C283
:1003FC00E2FFFF0EE66E43C200F044C201F092DE53
:10040C000401744B752BEBD71FDF806B816B826BF8
:10041C00836B846B950E856F91DE00C076F4F7DEEE
:10042C0004017651010A03E0010E006E72D00CDF5C
:10043C00080E806FAA0E816F010E826F000E836F03
:10044C00846F870E856F7ADE00C076F445C2E1FFBB
:10045C0046C2E2FFFF0EE66E43C200F044C201F05A
:10046C0061DE45C2E1FF46C2E2FFFF0EE66E43C20B
:10047C0000F044C201F056DE45C2E1FF46C2E2FF85
:10048C00FF0EE66E43C200F044C201F04BDE45C2E3
:10049C00E1FF46C2E2FFFF0EE66E43C200F044C22B
:1004AC0001F040DEB4DE04017651010A08E0010ED1
:1004BC007B6FCCDE005202E07B6BC8DE03D0020EF9
:1004CC007B6FC4DE000E000A02E1050E261803E164
:1004DC00020E006E1ED0000E000A02E1040E261859
:1004EC0017E0B2DE100E806F000E816F020E826F6D
:1004FC00000E836F846FFF0E856F20DE00C076F4D4
:10050C0086DE04017651000A03E0030E006E01D072
:04051C00006A12005F
:100520000401786B050E785D0AE278517625E16E5C
:10053000000E7721E26E200EE66E782BF3D778510D
:100540007625E16E000E7721E26EE66A7807785133
:100550007625796F000E77217A6F0A0E046E000EF1
:10056000056E74C400F075C401F01DDF08C000F012
:1005700009C001F0300E002679C4E1FF7AC4E2FF21
:1005800000C0E6FF0A0E046E000E056E74C400F093
:1005900075C401F008DF00C074F401C075F4000EEA
:1005A000011802E1000E001801E102D07807CFD750
:0205B000120037
:1005B20035C0E1FF36C0E2FF74C4E6FF33C000F08D
:0805C20034C001F0B4DD1200A9
:1005CA001E0E0201436F010E446F890E456F040E21
:1005DA00466F420E2B6E020E2C6E800E2D6E040E8E
:1005EA002E6E949A04017451040A02E1948601D091
:1005FA0094969488C66A7451C6127651C612755179
:10060A00C712765305E07751000AD8B4C78C03D0D5
:0A061A007753D8A4C78CC68A1200DB
:100624000401696B66C4E9FF67C4EAFFEECF68F4AE
:100634006851000A0EE068C474F4B9DF0401692B40
:1006440069516625E96E000E6721EA6EEECF68F403
:04065400EFD71200CA
:100658000900F5CFE6FF0006FBE10106F9E112000B
:10066800036A470E016E040E026E03500126D8B0CD
:10067800022A035004016625F66E000E6721F76E04
:10068800000E6821F86E0900F5CF00F001C0E1FF07
:1006980002C0E2FF00C0E6FF01C0E9FF02C0EAFFB6
:1006A800EE5202E0032ADDD7470E006E040E016EFB
:0206B80012002E
:1006BA00340E336E020E346E800E356E040E366EB4
:1006CA00FF0E2F6EFF0E306E000E316E000E326E70
:1006DA00FF0E04015B6FFF0E5C6F000E5D6F000E74
:1006EA005E6FFF0E5F6FFF0E606F000E616F000E90
:1006FA00626FAC8A900EAB6E948E949C9EAA03D0C5
:08070A00AECF00F0FBD7120096
:0C0712000E0EC16E2D0EC06EC2801200D3
:10071E0004016C6B6D6B66C46EF467C46FF4800E6F
:10072E006719006E800E005C02E1000E665D0BE242
:10073E00010E6C6F000E6D6F665100086E6F67C410
:10074E006FF4000E6F576EC474F46FC475F468C402
:10075E0076F469C477F4DDDE060E6A6F000E6B6FF9
:10076E00000E006E6B51005C02E16A51000819E246
:10077E006A516825E16E6B516921E26E010E6A5D68
:10078E00006E000E6B59016E00506825E96E015027
:10079E006921EA6EEECFE6FF010E6A5F000E6B5B1B
:1007AE00DFD768C4E1FF69C4E2FF200EE66E6C512C
:1007BE006D111AE06A6B6B6B6A516825E96E6B51AD
:1007CE006921EA6EEE50200A03E16A4B6B2BF4D7D7
:1007DE00010E6A5F000E6B5B6A516825E16E6B510C
:0A07EE006921E26E2D0EE66E120086
:1007F8002DDD000E000A02E1040E261809E166C488
:100808006EF467C46FF468C470F469C471F414D0EA
:10081800090E006E66C46EF467C46FF468C470F4A1
:1008280069C471F4005008E004016E376E916F37A7
:1008380070377137FF0FF7D70401180E806F6EC439
:1008480081F46FC482F470C483F471C484F4FF0E1D
:10085800856F76DC005204E0DCDC010E006E8CD083
:1008680045C2E1FF46C2E2FFFF0EE66E43C200F05A
:1008780044C201F059DC45C2E1FF46C2E2FFFF0E67
:10088800E66E43C200F044C201F04EDC45C2E1FF0F
:1008980046C2E2FFFE0EE66E43C200F044C201F01B
:1008A80043DC04016C6B6D6B6D51010802E16C5106
:1008B800FF0815E36C516A25E96E6D516B21EA6EEC
:1008C80045C2E1FF46C2E2FFEECFE6FF43C200F0B9
:1008D80044C201F029DC04016C4B6D2BE5D745C2FD
:1008E800E1FF46C2E2FFFF0EE66E43C200F044C2DB
:1008F80001F01ADC45C2E1FF46C2E2FFFF0EE66ED8
:1009080043C200F044C201F00FDC45C2E1FF46C219
:10091800E2FFFF0EE66E43C200F044C201F004DCC1
:1009280000C06CF4000E04016D6F1F0E6C15016E93
:100938006DC402F0000E021601C06CF402C06DF422
:10094800000E021802E1050E011804E062DC020E36
:10095800006E12D045C2E1FF46C2E2FFFF0EE66E0E
:1009680043C200F044C201F098EC00F00050FF0AC6
:0A09780001E0F0D74EDC006A120027
:0E098200010E9D6EFE0ECF6EC70ECE6E1200E1
:1009900061DC000E000A02E1040E261809E166C4BB
:1009A0006EF467C46FF468C470F469C471F414D051
:1009B000090E006E66C46EF467C46FF468C470F408
:1009C00069C471F4005008E004016E376E916F370E
:1009D00070377137FF0FF7D70401110E806F6EC4A7
:1009E00081F46FC482F470C483F471C484F4FF0E84
:1009F000856FA4EC00F0005204E00FDC010E006EE5
:100A000050D045C2E1FF46C2E2FFFF0EE66E43C290
:100A100000F044C201F098EC00F00050FE0A01E042
:100A2000F0D704016C6B6D6B020E6D5D02E1000E80
:100A30006C5D1CE26C516A25726F6D516B21736F96
:100A400045C2E1FF46C2E2FFFF0EE66E43C200F080
:100A500044C201F098EC00F072C4E1FF73C4E2FFFD
:100A600000C0E6FF04016C4B6D2BDED745C2E1FFF1
:100A700046C2E2FFFF0EE66E43C200F044C201F040
:100A800098EC00F045C2E1FF46C2E2FFFF0EE66EC1
:100A900043C200F044C201F098EC00F00DEC01F00C
:040AA000006A1200D6
:100AA4000B0EBA6E700EB16E3D0EBC6E090EBB6EAF
:020AB40012002E
:100AB600020E0401746F756B766B010E776F82DD23
:100AC6008ADC0050000A01E0FBD7746B756B766B0D
:080AD600010E776F77DD1200BD
:100ADE0071EC09F07F0EF116470E376E020E386E6E
:100AEE00276A10DE030E0B6E8A0E0C6E550E0D6EFF
:100AFE000D2EFED70C2EFCD70B2EFAD700000000C1
:100B0E00956A030E936E9494400E8C6EB886020E08
:100B1E00B06E080EAF6EAC84C9DDC80E666F120ED5
:100B2E00676F000E686F99DD00C066F401C067F450
:100B3E0072DD0D0E746F36DD0A0E0401746F32DD38
:100B4E00B3DFA9DF17DFC00EF21281A001D0FDD7EF
:100B5E000401870E666F120E676F000E686F7DDDE3
:100B6E0000C066F401C067F456DD0D0E746F1ADD19
:100B7E000A0E0401746F16DD81A2D2D081B022D08C
:100B8E00080E0B6E9D0E0C6E050E0D6E0D2EFED705
:100B9E000C2EFCD70B2EFAD700000000010E2824D5
:100BAE00006E000E2920016E00C028F001C029F051
:100BBE00000E291802E1050E281804E1010E286E18
:100BCE00000E296E000E291802E1010E2818010EE2
:100BDE00D8A4000E016E000E291803E1285004015E
:100BEE006319000ED8A4010E006E0150001615E018
:100BFE000401D00E666F120E676F000E686F2DDD4A
:100C0E0000C066F401C067F406DD0D0E746FCADC19
:100C1E000A0E0401746FC6DC80D0000E291802E1A2
:100C2E00020E2818010ED8A4000E016E000E29180F
:100C3E0003E1285004016319000ED8A4010E006EC2
:100C4E000150001615E00401DC0E666F120E676F80
:100C5E00000E686F02DD00C066F401C067F4DBDCD5
:100C6E000D0E746F9FDC0A0E0401746F9BDC55D061
:100C7E00000E291802E1030E2818010ED8A4000E4A
:100C8E00016E000E291803E1285004016319000EAD
:100C9E00D8A4010E006E0150001615E00401AD0E31
:100CAE00666F120E676F000E686FD7DC00C066F4B9
:100CBE0001C067F4B0DC0D0E746F74DC0A0E040113
:100CCE00746F70DC2AD0000E291802E1040E281869
:100CDE00010ED8A4000E016E000E291803E1285053
:100CEE0004016319000ED8A4010E006E0150001607
:100CFE0014E00401640E666F120E676F000E686FCB
:100D0E00ACDC00C066F401C067F485DC0D0E746FB8
:100D1E0049DC0A0E0401746F45DC28C063F42CD73D
:100D2E00000E291802E1010E2818D8A40ED1C00E0B
:100D3E000401666F120E676F000E686F8EDC00C0C6
:100D4E0066F401C067F467DC0D0E746F2BDC0A0EBF
:100D5E000401746F27DC470E376E020E386E1B6A65
:100D6E001C6A1D6A1E6A1F6A206A256A010ECD6EF4
:100D7E0081A091D02550010AD8A48CD0256A275283
:100D8E0044E01DC004F01EC005F01FC006F020C0D8
:100D9E0007F0010E1D24006E000E1E20016E000EC7
:100DAE001F20026E000E2020036E00C01DF001C039
:100DBE001EF002C01FF003C020F004C066F405C090
:100DCE0067F406C068F407C069F4470E04016A6F41
:100DDE00020E6B6F0ADD0050000A16E0950E04013C
:100DEE00666F120E676F000E686F37DC00C066F418
:100DFE0001C067F410DC0D0E746FD9EC02F00A0E10
:100E0E000401746FD9EC02F045D01DC004F01EC071
:100E1E0005F01FC006F020C007F0010E1D24006E65
:100E2E00000E1E20016E000E1F20026E000E2020EE
:100E3E00036E00C01DF001C01EF002C01FF003C003
:100E4E0020F004C066F405C067F406C068F407C05D
:100E5E0069F4390E04016A6F000E6B6FC6DC005028
:100E6E00000A18E0950E0401666F120E676F000EF1
:100E7E00686F34EC03F000C066F401C067F412EC46
:100E8E0003F00D0E746FD9EC02F00A0E0401746FAC
:100E9E00D9EC02F06DD7CD900D0E0B6EAF0E0C6E21
:100EAE00B60E0D6E0D2EFED70C2EFCD70B2EFAD7CE
:100EBE0000001DC066F41EC067F4390E0401686F91
:100ECE00020E696F25DCD70E666F120E676F000E6D
:100EDE00686F34EC03F000C066F401C067F412ECE6
:100EEE0003F00D0E746FD9EC02F00A0E0401746F4C
:100EFE00D9EC02F0390E0401666F020E676F12EC28
:100F0E0003F00D0E746FD9EC02F00A0E0401746F2B
:100F1E00D9EC02F021C066F422C067F4390E040148
:100F2E00686F020E696F8FEC03F0390E666F020E5A
:100F3E00676F12EC03F00D0E746FD9EC02F00A0E0F
:100F4E000401746FD9EC02F078D1000E291802E179
:100F5E00020E2818D8A40AD1B80E0401666F120E1C
:100F6E00676F000E686F34EC03F000C066F401C0CA
:100F7E0067F412EC03F00D0E746FD9EC02F00A0E4A
:100F8E000401746FD9EC02F0470E376E020E386E04
:100F9E001B6A1C6A1D6A1E6A1F6A206A256A276AF6
:100FAE001DC066F41EC067F41FC068F420C069F44B
:100FBE00470E04016A6F020E6B6FE3DC0050000AED
:100FCE0018E04C0E0401666F120E676F000E686F0C
:100FDE0034EC03F000C066F401C067F412EC03F0C9
:100FEE000D0E746FD9EC02F00A0E0401746FD9EC79
:100FFE0002F0CD8081A093D02550010AD8A48ED0C6
:10100E00256A275246E01DC004F01EC005F01FC021
:10101E0006F020C007F0010E1D24006E000E1E20EB
:10102E00016E000E1F20026E000E2020036E00C007
:10103E001DF001C01EF002C01FF003C020F004C05E
:10104E0066F405C067F406C068F407C069F4470E7D
:10105E0004016A6F020E6B6F94DC0050000A18E0F8
:10106E00A20E0401666F120E676F000E686F34ECED
:10107E0003F000C066F401C067F412EC03F00D0E2D
:10108E00746FD9EC02F00A0E0401746FD9EC02F001
:10109E0045D01DC004F01EC005F01FC006F020C0D4
:1010AE0007F0010E1D24006E000E1E20016E000EB4
:1010BE001F20026E000E2020036E00C01DF001C026
:1010CE001EF002C01FF003C020F004C066F405C07D
:1010DE0067F406C068F407C069F4390E04016A6F3C
:1010EE00000E6B6F4EDC0050000A18E0A20E0401D9
:1010FE00666F120E676F000E686F34EC03F000C05F
:10110E0066F401C067F412EC03F00D0E746FD9ECA7
:10111E0002F00A0E0401746FD9EC02F06BD7CD9079
:10112E000D0E0B6EAF0E0C6EB60E0D6E0D2EFED797
:10113E000C2EFCD70B2EFAD70000D70E0401666FCB
:10114E00120E676F000E686F34EC03F000C066F489
:10115E0001C067F412EC03F00D0E746FD9EC02F0BF
:10116E000A0E0401746FD9EC02F067D0000E291834
:10117E0002E1030E281861E10401646B656B020E37
:10118E00655D02E1000E645D11E2470E6425E16EBD
:10119E00020E6521E26EE66A390E6425E16E000EDE
:1011AE006521E26EE66A644B652BE9D7050E666F24
:1011BE00000E676F686F696F470E6A6F020E6B6F76
:1011CE00C8EC04F00A0E0401666F000E676F686FBC
:1011DE00696F390E6A6F000E6B6FC8EC04F0040174
:1011EE00646B656B020E655D02E1000E645D25E2C7
:1011FE00470E6425E96E020E6521EA6EEECF00F011
:10120E0000C066F4000E676F390E686F020E696FCC
:10121E008FEC03F0390E666F020E676F12EC03F05F
:10122E000D0E746FD9EC02F00A0E0401746FD9EC36
:0E123E0002F00401644B652BD5D787D4FFD78F
:1012E20010EE1BF0100E006E010E016E770EF66E00
:0E12F200120EF76E000EF86E2CEC03F01200D8
:10124C00496E697469616C20627566666572696E57
:08125C0067206572726F7200D9
:101264004368616E67652073616D706C652072619F
:031274007465009E
:02127700000075
:041279000000000071
:04127D00000000006D
:01128100006C
:01128200006B
:01128300006A
:02128400000068
:011286000067
:0E12870053656C6563742061206D656E7500A3
:0D1295005772697465206572726F722100D6
:0B12A20052656164206572726F72007B
:0B12AD00547261636B206C6973740065
:0812B80052656164696E670074
:0812C00057726974696E670042
:0812C80057656C636F6D650052
:0712D0005265636F726400B8
:0512D700446F6E65008C
:0512DC00506C61790077
:020000040030CA
:0D000100021F1EFF8381FF0FC00FE00F40A4
:00000001FF
