:10000000E3EF04F00000000000EF00F0000000004B
:0A0010000000000000000000F3D71C
:0E001C00ACB202D00000FCD796C1ADFF1200BE
:10002A0096C1C9FFC7B002D00000FCD7C9CF00F003
:02003A001200B2
:10003C00F250026EF29E0500FF6A0150FE6E0050F7
:08004C00FD6E02BEF28E1200EF
:10005400086A096A100E0C6E013408360936045019
:10006400085E0550D8A0053C095ED8B007D00450FE
:1000740008260550D8B0053C0926D890003601362C
:060084000C2EEAD7120069
:10008A000101936B050E935D0AE293519125E16E8E
:10009A00000E9221E26E200EE66E932BF3D7935157
:1000AA009125E16E000E9221E26EE66A9307935162
:1000BA009125946F000E9221956F0A0E046E000E20
:1000CA00056E8FC100F090C101F0BFDF08C000F0DB
:1000DA0009C001F0300E002694C1E1FF95C1E2FF8C
:1000EA0000C0E6FF0A0E046E000E056E8FC100F016
:1000FA0090C101F0AADF00C08FF101C090F1000E9B
:10010A00011802E1000E001801E102D09307CFD7CF
:02011A001200D1
:10011C0070C1E1FF71C1E2FF8FC1E6FF6EC100F05B
:08012C006FC101F085DF120034
:100134008FC1C9FFC7B002D00000FCD7C9CF00F0FF
:020144001200A7
:1001460001018B6B8C6B85C18DF186C18EF1800EA2
:100156008619006E800E005C02E1000E855D0BE2E2
:10016600010E8B6F000E8C6F855100088D6F86C156
:100176008EF1000E8E578DC18FF18EC190F187C121
:1001860091F188C192F17EDF060E896F000E8A6FAB
:10019600000E006E8A51005C02E18951000819E2E6
:1001A60089518725E16E8A518821E26E010E895DAB
:1001B600006E000E8A59016E00508725E96E0150C7
:1001C6008821EA6EEECFE6FF010E895F000E8A5B9C
:1001D600DFD787C1E1FF88C1E2FF200EE66E8B51B3
:1001E6008C111AE0896B8A6B89518725E96E8A51D1
:1001F6008821EA6EEE50200A03E1894B8A2BF4D758
:10020600010E895F000E8A5B89518725E16E8A514E
:0A0216008821E26E2D0EE66E120044
:10022000FF0E0101966F01DF400E01018511966FEF
:10023000FCDE89C100F0016A026A036A00C096F11F
:10024000F4DE88C100F089C101F0026A036A00C0CF
:1002500096F1EBDE87C100F088C101F089C102F0A0
:10026000036A00C096F1E1DE86C196F1DEDE8AC146
:1002700096F1DBDEFF0E01018F6F5CDF00C060F1E5
:0202800012006A
:100282000101886B85C1E9FF86C1EAFFEECF87F1E4
:100292008751000A0EE087C18FF13FDF0101882BF1
:1002A20088518525E96E000E8621EA6EEECF87F130
:0402B200EFD7120070
:1002B600340E0101626F010E636F8F0E646F010EC3
:1002C600656F2A0E666F000E676F960E686F010ED9
:1002D600696F949A8551040A02E1948601D0949636
:1002E6009488C66A8551C6128751C6128651C712AE
:1002F600875305E08851000AD8B4C78C03D08853C9
:08030600D8A4C78CC68A1200BE
:10030E001C0E01016E6F000E6F6F960E706F010E58
:10031E00716FFF0E6A6FFF0E6B6F000E6C6F000E2B
:10032E006D6FFF0E766FFF0E776F000E786F000EFB
:10033E00796FFF0E726FFF0E736F000E746F000EEB
:10034E00756FAC8A900EAB6E948E949C9EAA03D061
:08035E00AECF00F0FBD7120046
:100366000900F5CFE6FF0006FBE10106F9E1120000
:10037600020E0101856F866B876B010E886F98DF11
:100386000D0E0C6EFB0E0D6E0D2EFED70C2EFCD731
:10039600000000008B847E0E856F000E866F6EDF78
:1003A6000D0E8F6FB8DE0A0E01018F6FB4DE0101EC
:1003B6007B6B0A0E7B5D06E2FF0E966F33DE010154
:1003C6007B2BF7D7A10E856F000E866F57DF0D0EBC
:1003D6008F6FA1DE0A0E01018F6F9DDE8B94950E45
:1003E6000101856F000E866F49DF0D0E8F6F93DE5C
:1003F6000A0E01018F6F8FDE070E0C6E7D0E0D6EDD
:100406000D2EFED70C2EFCD70101856B866B876BF4
:10041600886B896B950E8A6F00DF8A0E0101856FE6
:10042600000E866F2BDF0D0E8F6F75DE0A0E010133
:100436008F6F71DE0101616B6051010A0FE00A0ED8
:10044600615D0CE2FF0E8F6F72DE00C060F101018C
:100456006151010F006E00C061F1EED70A0E615DB9
:100466000DE3270E856F000E866F08DF0D0E8F6F6A
:1004760052DE0A0E01018F6F4EDEFFD7010E01011B
:10048600856F866B876B886B896BFF0E8A6FC5DEFF
:100496000101616B6051000A1FE0800E006E800E44
:1004A600030A005C02E1E80E615D16E2010E856F4B
:1004B600866B876B886B896BFF0E8A6FAEDEFF0ECD
:1004C60001018F6F34DE00C060F101016151010F3F
:1004D600006E00C061F1DED7800E006E800E030A4A
:1004E600005C02E1E80E615D0DE3150E856F000EFE
:1004F600866FC4DE0D0E8F6F0EDE0A0E01018F6F42
:100506000ADEFFD7100E0101856F000E866F020E00
:10051600876F000E886F896FFF0E8A6F7EDE01017E
:10052600616B6051000A15E0800E006E800E030AB2
:10053600005C02E1E80E615D0CE2FF0E8F6FF7DDF5
:1005460000C060F101016151010F006E00C061F150
:10055600E8D7800E006E800E030A005C02E1E80E0A
:10056600615D0DE3390E856F000E866F87DE0D0E19
:100576008F6FD1DD0A0E01018F6FCDDDFFD7620EC1
:100586000101856F000E866F79DE0D0E8F6FC3DD5C
:100596000A0E01018F6FBFDD820E0C6EDD0E0D6E31
:0E05A6000D2EFED70C2EFCD700000000120018
:1005B4000101846BFF0E966F36DDFF0E01018F6F14
:1005C400B7DD00C060F101016051FF0A01E0FBD713
:1005D400FF0E8F6FADDD00C060F1EF0E0101856F7E
:1005E400000E866F4CDE0D0E8F6F96DD0A0E010134
:1005F4008F6F92DD190E0101856F5EC086F15FC0B9
:1006040087F160C088F161C089F1950E8A6F06DEBA
:100614000101616B0A0E615D10E26051000A01E1A3
:100624000CD0FF0E8F6F84DD00C060F101016151B9
:10063400010F006E00C061F1EDD70A0E615D0CE39D
:10064400DD0E856F000E866F1ADE0D0E8F6F64DD72
:100654000A0E01018F6F60DDCB0E0101856F000E64
:10066400866F0DDE0D0E8F6F57DD0A0E01018F6F41
:1006740053DDFF0E0101966FD6DCFF0E0101966F6C
:10068400D2DCFF0E0101966FCEDC050E0101845D04
:10069400D8B08FD0FC0E966FC6DC01017B6B7C6BEF
:1006A400020E7C5D02E1000E7B5D2FE27BC196F1C0
:1006B400BADC7BC185F17CC186F17D0E0101876FB7
:1006C400010E886F3EDD7D0E856F010E866FD7DDCE
:1006D4000D0E8F6F21DD0A0E01018F6F1DDD0D0ED2
:1006E4000C6EFB0E0D6E0D2EFED70C2EFCD70000EB
:1006F4000000010E01017B25006E000E7C21016EBD
:1007040000C07BF101C07CF1CBD7FF0E966F8BDC70
:10071400FF0E0101966F87DC0101616B080E615DBC
:1007240020E2FF0E8F6F04DD00C060F11F0E010197
:100734006015016E0150050A0DE1510E856F010E21
:10074400866F9DDD0D0E8F6FE7DC0A0E01018F6F42
:10075400E3DC07D001016151010F006E00C061F1BB
:10076400DDD70101080E615D0DE3320E856F010EC8
:10077400866F85DD0D0E8F6FCFDC0A0E01018F6F42
:10078400CBDCFFD7FF0E01018F6FD2DC00C060F11C
:1007940001016051FF0A06E0FF0E8F6FC9DC00C043
:1007A40060F1F6D701018451010F006E00C084F19D
:1007B4006CD7FD0E966F37DCFF0E0101966F33DCAC
:1007C400FF0E01018F6FB4DC00C060F101016051C4
:1007D400FF0A06E0FF0E8F6FABDC00C060F1F6D7B6
:1007E400700E0101856F000E866F49DD0D0E8F6F4F
:0C07F40093DC0A0E01018F6F8FDC1200F5
:10080000FF0E01018F6F96DC00C060F101016051A5
:10081000FF0AF6E1120E856F5EC086F15FC087F1B8
:1008200060C088F161C089F1950E8A6FF9DC010121
:10083000616B6051000A0DE14C0E856F000E866FF2
:1008400020DD0D0E8F6F6ADC0A0E01018F6F66DCF2
:100850000FD0FF0E01018F6F6DDC00C060F1010150
:100860006151010F006E00C061F10A0E615DE1E3AC
:1008700001010A0E615D0DE3200E856F010E866F8A
:1008800000DD0D0E8F6F4ADC0A0E01018F6F46DC12
:10089000FFD783A44FD0FF0E01018F6F4BDC00C048
:1008A00060F101016051FE0AF6E17B6B7C6B020E88
:1008B0007C5D02E1000E7B5D31E2FF0E8F6F3ADC62
:1008C00000C060F160C185F1000E0101866F7D0EF0
:1008D000876F010E886F37DC7D0E856F010E866F86
:1008E000D0DC0D0E8F6F1ADC0A0E01018F6F16DC43
:1008F0000D0E0C6EFB0E0D6E0D2EFED70C2EFCD7C2
:1009000000000000010E01017B25006E000E7C211D
:10091000016E00C07BF101C07CF1C9D7FF0E8F6F63
:1009200009DC00C060F1FF0E01018F6F03DC00C025
:1009300060F1AFD70C0E0101856F866B876B886BFA
:10094000896B950E8A6F6CDC0101616B6051000A46
:100950000FE10E0E856F010E866F93DC0D0E8F6F0B
:100960008EEC00F00A0E01018F6F8EEC00F010D0BB
:10097000FF0E01018F6F9AEC00F000C060F10101E1
:100980006151010F006E00C061F10A0E615DDEE38E
:100990000101FF0E8F6F9AEC00F000C060F10101C1
:1009A0006051FF0AF5E1030E856F010E866F69DC69
:1009B0000D0E8F6F8EEC00F00A0E01018F6F8EEC22
:0609C00000F0FFD7120059
:1009C60072EC06F00E0EC1122D0EC012C09EC28031
:1009D600030E0B6E8A0E0C6E550E0D6E0D2EFED787
:1009E6000C2EFCD70B2EFAD700000000F30E956EE6
:1009F600928495849586936A946AB886020EB06E40
:100A0600080EAF6EAC8480DCB3DC83A401D0FDD7C6
:100A1600430E0101856F010E866F30DC0D0E8F6F60
:100A26008EEC00F00A0E01018F6F8EEC00F083A6AB
:100A360073D083B423D0080E0B6E9D0E0C6E050E7C
:100A46000D6E0D2EFED70C2EFCD70B2EFAD70000FE
:100A56000000010E01014125006E000E4221016ECB
:100A660000C041F101C042F1000E421902E1030E3D
:100A7600411904E1010E416F000E426F0101000EA3
:100A8600421902E1010E4119010ED8A4000E016EB1
:100A9600000E421902E141517A19000ED8A4010E46
:100AA600006E0150001610E0FB0E856F000E866F7B
:100AB60041EC01F00D0E8F6F8EEC00F00A0E010175
:100AC6008F6F8EEC00F025D0000E0101421902E175
:100AD600020E4119010ED8A4000E016E000E421935
:100AE60002E141517A19000ED8A4010E006E0150A0
:100AF60000160FE0BD0E856F000E866F41EC01F00B
:100B06000D0E8F6F8EEC00F00A0E01018F6F8EECCA
:100B160000F041C17AF18BD7000E0101421902E1C2
:100B2600010E411915E10001BB6BBC6BB30E01014F
:100B3600856F000E866F41EC01F00D0E8F6F8EEC07
:100B460000F00A0E01018F6F8EEC00F0816A2FDD36
:100B5600000E0101421902E1020E411918E1C30E0D
:100B6600856F000E866F41EC01F00D0E8F6F8EECD7
:100B760000F00A0E01018F6F8EEC00F00001BB6BD6
:100B8600BC6B3BDE83A403D083A601D0FBD73DD745
:020B9600FFD787
:100CE40010EE15F04B0E006E020E016E980EF66EAD
:0E0CF4000B0EF76E000EF86EB3EC01F012005E
:100B980043617264204552524F52202D20434D44E8
:020BA80031001A
:100BAA0043415244204552524F52202D20434D4436
:020BBA00300009
:100BBC0043617264206572726F72202D20434D4424
:030BCC00313600BF
:100BCF00436F6D6D616E64206163636570746564FE
:020BDF002100F3
:040BE1000000000010
:0E0BE5004D4D432044657465637465642100C2
:0E0BF300444F4E452057726974696E672100A9
:0C0C0100435320697320484947482100F4
:0B0C0D00434D44302073656E742100DD
:0C0C18004353206973204C4F57210A0001
:100C240044756D6D7920636C6F636B2073656E74AE
:020C340021009D
:080C360057726974696E6700D2
:020C3E000000B4
:060C4000506C61790A000E
:080C460052656164696E6700EC
:100C4E00436F6D6D616E642061636365707465647E
:020C5E00210073
:100C6000436F6D6D616E642072656A65637465645F
:020C7000210061
:0C0C7200436172642072656164792100A6
:080C7E005265636F72640A0005
:0B0C8600436172642066726565210006
:100C910053746F70706564205472616E736665720F
:020CA100210030
:100CA300436F6D6D616E642052656A65637465643C
:020CB30021001E
:0F0CB500446174612072656A656374656421002F
:020CC40000002E
:0E0CC60053656C6563742061204D656E75008A
:0F0CD4004461746120616363657074656421001D
:020000040030CA
:0D000100021F1EFF8381FF0FC00FE00F40A4
:00000001FF
