:10000000B6EF04F00000000000EF00F00000000078
:0A0010000000000000000000F3D71C
:0E001C00ACB202D00000FCD78AC1ADFF1200CA
:10002A008AC1C9FFC7B002D00000FCD7C9CF00F00F
:02003A001200B2
:10003C00F250026EF29E0500FF6A0150FE6E0050F7
:08004C00FD6E02BEF28E1200EF
:10005400086A096A100E0C6E013408360936045019
:10006400085E0550D8A0053C095ED8B007D00450FE
:1000740008260550D8B0053C0926D890003601362C
:060084000C2EEAD7120069
:10008A000101876B050E875D0AE287518525E16EBE
:10009A00000E8621E26E200EE66E872BF3D787517B
:1000AA008525E16E000E8621E26EE66A8707875192
:1000BA008525886F000E8621896F0A0E046E000E50
:1000CA00056E83C100F084C101F0BFDF08C000F0F3
:1000DA0009C001F0300E002688C1E1FF89C1E2FFA4
:1000EA0000C0E6FF0A0E046E000E056E83C100F022
:1000FA0084C101F0AADF00C083F101C084F1000EBF
:10010A00011802E1000E001801E102D08707CFD7DB
:02011A001200D1
:10011C0064C1E1FF65C1E2FF83C1E6FF62C100F08B
:08012C0063C101F085DF120040
:1001340083C1C9FFC7B002D00000FCD7C9CF00F00B
:020144001200A7
:1001460001017F6B806B79C181F17AC182F1800EEA
:100156007A19006E800E005C02E1000E795D0BE2FA
:10016600010E7F6F000E806F79510008816F7AC192
:1001760082F1000E825781C183F182C184F17BC175
:1001860085F17CC186F17EDF060E7D6F000E7E6FE7
:10019600000E006E7E51005C02E17D51000819E2FE
:1001A6007D517B25E16E7E517C21E26E010E7D5DE7
:1001B600006E000E7E59016E00507B25E96E0150DF
:1001C6007C21EA6EEECFE6FF010E7D5F000E7E5BC0
:1001D600DFD77BC1E1FF7CC1E2FF200EE66E7F51D7
:1001E60080111AE07D6B7E6B7D517B25E96E7E5119
:1001F6007C21EA6EEE50200A03E17D4B7E2BF4D77C
:10020600010E7D5F000E7E5B7D517B25E16E7E518A
:0A0216007C21E26E2D0EE66E120050
:10022000FF0E01018A6F01DF400E010179118A6F13
:10023000FCDE7DC100F0016A026A036A00C08AF137
:10024000F4DE7CC100F07DC101F0026A036A00C0E7
:100250008AF1EBDE7BC100F07CC101F07DC102F0D0
:10026000036A00C08AF1E1DE7AC18AF1DEDE7EC176
:100270008AF1DBDEFF0E0101836F5CDF00C054F109
:0202800012006A
:1002820001017C6B79C1E9FF7AC1EAFFEECF7BF114
:100292007B51000A0EE07BC183F13FDF01017C2B21
:1002A2007C517925E96E000E7A21EA6EEECF7BF160
:0402B200EFD7120070
:1002B600340E0101556F010E566F830E576F010EF6
:1002C600586F2A0E5A6F000E5B6F8A0E5C6F010E16
:1002D6005D6F949A7951040A02E1948601D094964E
:1002E6009488C66A7951C6127B51C6127A51C712D2
:1002F6007B5305E07C51000AD8B4C78C03D07C53ED
:08030600D8A4C78CC68A1200BE
:10030E001C0E0101626F000E636F8A0E646F010E88
:10031E00656FFF0E5E6FFF0E5F6F000E606F000E5B
:10032E00616FFF0E6A6FFF0E6B6F000E6C6F000E2B
:10033E006D6FFF0E666FFF0E676F000E686F000E1B
:10034E00696FAC8A900EAB6E948E949C9EAA03D06D
:08035E00AECF00F0FBD7120046
:100366000900F5CFE6FF0006FBE10106F9E1120000
:10037600020E0101796F7A6B7B6B010E7C6F98DF41
:100386000D0E0C6EFB0E0D6E0D2EFED70C2EFCD731
:10039600000000008B846F0E796F000E7A6F6EDF9F
:1003A6000D0E836FB8DE0A0E0101836FB4DE010104
:1003B6006F6B0A0E6F5D06E2FF0E8A6F33DE010178
:1003C6006F2BF7D7890E796F000E7A6F57DF0D0EF8
:1003D600836FA1DE0A0E0101836F9DDE8B94A60E4C
:1003E6000101796F000E7A6F49DF0D0E836F93DE80
:1003F6000A0E0101836F8FDE070E0C6E7D0E0D6EE9
:100406000D2EFED70C2EFCD70101796B7A6B7B6B18
:100416007C6B7D6B950E7E6F00DF9B0E0101796F05
:10042600000E7A6F2BDF0D0E836F75DE0A0E01014B
:10043600836F71DE0101596B5451010A0FE00A0EF8
:10044600595D0CE2FF0E836F72DE00C054F10101AC
:100456005951010F006E00C059F1EED70A0E595DD1
:100466000DE33A0E796F000E7A6F08DF0D0E836F7B
:1004760052DE0A0E0101836F4EDEFFD7010E010127
:10048600796F7A6B7B6B7C6B7D6BFF0E7E6FC5DE47
:100496000101596B5451000A1FE0800E006E800E58
:1004A600030A005C02E1E80E595D16E2010E796F5F
:1004B6007A6B7B6B7C6B7D6BFF0E7E6FAEDEFF0E09
:1004C6000101836F34DE00C054F101015951010F5F
:1004D600006E00C059F1DED7800E006E800E030A52
:1004E600005C02E1E80E595D0DE3280E796F000EFF
:1004F6007A6FC4DE0D0E836F0EDE0A0E0101836F66
:100506000ADEFFD7100E0101796F000E7A6F020E18
:100516007B6F000E7C6F7D6FFF0E7E6F7EDE0101AE
:10052600596B5451000A15E0800E006E800E030AC6
:10053600005C02E1E80E595D0CE2FF0E836FF7DD09
:1005460000C054F101015951010F006E00C059F16C
:10055600E8D7800E006E800E030A005C02E1E80E0A
:10056600595D0DE3150E796F000E7A6F87DE0D0E5D
:10057600836FD1DD0A0E0101836FCDDDFFD74C0EEF
:100586000101796F000E7A6F79DE0D0E836FC3DD80
:100596000A0E0101836FBFDD010E0101796F7A6BCF
:1005A6007B6B010E7C6F84DE820E0C6EDD0E0D6E93
:0E05B6000D2EFED70C2EFCD700000000120008
:1005C4000101786BFF0E8A6F2EDDFF0E0101836F30
:1005D400AFDD00C054F101015451FF0A01E0FBD723
:1005E400FF0E836FA5DD00C054F1EE0E0101796F9B
:1005F400000E7A6F44DE0D0E836F8EDD0A0E01014C
:10060400836F8ADD190E0101796F60C07AF161C0D0
:100614007BF162C07CF163C07DF1950E7E6FFEDDDF
:100624000101596B0A0E595D10E25451000A01E1AF
:100634000CD0FF0E836F7CDD00C054F101015951D1
:10064400010F006E00C059F1EDD70A0E595D0CE39D
:10065400DC0E796F000E7A6F12DE0D0E836F5CDD97
:100664000A0E0101836F58DDCA0E0101796F000E75
:100674007A6F05DE0D0E836F4FDD0A0E0101836F65
:100684004BDDFF0E01018A6FCEDCFF0E01018A6F84
:10069400CADCFF0E01018A6FC6DC050E0101785D1C
:1006A400D8B079D0FC0E8A6FBEDC01016F6B706B21
:1006B400020E705D02E1000E6F5D2FE2990E8A6FEB
:1006C400B2DC6FC179F170C17AF1710E01017B6FF7
:1006D400010E7C6F36DD710E796F010E7A6FCFDDFE
:1006E4000D0E836F19DD0A0E0101836F15DD0D0EEA
:1006F4000C6EFB0E0D6E0D2EFED70C2EFCD70000DB
:100704000000010E01016F25006E000E7021016EC4
:1007140000C06FF101C070F1CBD7FF0E8A6F83DC8C
:10072400FF0E01018A6F7FDC0101596B080E595DD0
:1007340020E2FF0E836FFCDC00C054F11F0E0101A8
:100744005415016E0150050A0DE1450E796F010E35
:100754007A6F95DD0D0E836FDFDC0A0E0101836F66
:10076400DBDC07D001015951010F006E00C059F1C3
:10077400DDD70101080E595D0DE3260E796F010ED8
:100784007A6F7DDD0D0E836FC7DC0A0E0101836F66
:10079400C3DCFFD7FFD7FD0E01018A6F44DCFF0ED7
:1007A40001018A6F40DCFF0E0101836FC1DC00C0D0
:1007B40054F101015451FF0A06E0FF0E836FB8DCC7
:1007C40000C054F1F6D77B0E0101796F000E7A6FE9
:1007D40056DD0D0E836FA0DC0A0E0101836F9CDCD5
:0207E400120001
:1007E600FF0E01018A6F1EDCFF0E0101836F9FDC85
:1007F60000C054F101015451FF0A13E0FF0E836F4C
:1008060096DC00C054F1640E0101796F000E7A6F18
:1008160035DD0D0E836F7FDC0A0E0101836F7BDCF5
:10082600E9D7110E0101796F60C07AF161C07BF1E1
:1008360062C07CF163C07DF1950E7E6FEEDC010136
:100846005451000A13E0FF0E836F71DC00C054F1AF
:100856005A0E0101796F000E7A6F10DD0D0E836F4F
:100866005ADC0A0E0101836F56DCE9D7180E010126
:10087600796F010E7A6F02DD0D0E836F4CDC0A0E66
:100886000101836F48DC01015451FE0A06E0FF0EA8
:10089600836F4DDC00C054F1F6D7080E0101796F65
:1008A600010E7A6FEBDC0D0E836F35DC0A0E01014B
:1008B600836F31DC01016F6B706B020E705D02E1BC
:1008C600000E6F5D33E2FF0E836F31DC00C054F122
:1008D60054C179F1000E01017A6F710E7B6F010E22
:1008E6007C6F2EDC710E796F010E7A6FC7DC0D0EF0
:1008F600836F11DC0A0E0101836F0DDC54C18AFF80
:100906000D0E0C6EFB0E0D6E0D2EFED70C2EFCD7AB
:1009160000000000010E01016F25006E000E70211F
:10092600016E00C06FF101C070F1C7D7FF0E836F73
:100936009AEC00F000C054F1FF0E0101836F9AECAF
:1009460000F000C054F1020E0101796F010E7A6FBA
:1009560095DC0D0E836F8EEC00F00A0E0101836F9D
:060966008EEC00F012000F
:10096C003EEC06F00E0EC1122D0EC012C09EC280BF
:10097C00030E0B6E8A0E0C6E550E0D6E0D2EFED7E1
:10098C000C2EFCD70B2EFAD700000000F30E956E40
:10099C00928495849586936A946AB886020EB06E9A
:1009AC00080EAF6EAC84ADDCE0DC83A401D0FDD7C7
:1009BC000101370E796F010E7A6F5DDC0D0E836FBE
:1009CC008EEC00F00A0E0101836F8EEC00F083A612
:1009DC0072D083B423D0080E0B6E9D0E0C6E050ED8
:1009EC000D6E0D2EFED70C2EFCD70B2EFAD7000059
:1009FC000000010E01013525006E000E3621016E3E
:100A0C0000C035F101C036F1000E361902E1030EBB
:100A1C00351904E1010E356F000E366F0101000E21
:100A2C00361902E1010E3519010ED8A4000E016E23
:100A3C00000E361902E135516E19000ED8A4010EC4
:100A4C00006E015000160FE0FA0E796F000E7A6FEF
:100A5C0012DC0D0E836F8EEC00F00A0E0101836F19
:100A6C008EEC00F025D0000E0101361902E1020EC9
:100A7C003519010ED8A4000E016E000E361902E1D4
:100A8C0035516E19000ED8A4010E006E01500016DF
:100A9C000FE0BC0E796F000E7A6F41EC01F00D0E79
:100AAC00836F8EEC00F00A0E0101836F8EEC00F068
:100ABC0035C16EF18CD7000E0101361902E1010E21
:100ACC00351915E10001BA6BBB6BB20E0101796FE0
:100ADC00000E7A6F41EC01F00D0E836F8EEC00F07E
:100AEC000A0E0101836F8EEC00F0816A65DD000E49
:100AFC000101361902E1020E351918E1C20E796FA7
:100B0C00000E7A6F41EC01F00D0E836F8EEC00F04D
:100B1C000A0E0101836F8EEC00F00001BA6BBB6B07
:100B2C005CDE83A403D083A601D0FBD73ED7FFD7CE
:100C7C0010EE15F03F0E006E020E016E3C0EF66E7D
:0E0C8C000B0EF76E000EF86EB3EC01F01200C6
:100B3C0043617264206572726F72202D20434D44A4
:030B4C003136003F
:100B4F0043617264204552524F52202D20434D4431
:020B5F00310063
:100B610043415244204552524F52202D20434D447F
:020B7100300052
:0E0B73004D4D43204465746563746564210034
:060B8100427573792100AA
:040B8700000000006A
:0B0B8B004361726420627573792100E1
:0C0B960043532069732048494748210060
:0E0BA200444F4E452057726974696E672100FA
:100BB00044756D6D7920636C6F636B2073656E7423
:020BC000210012
:0B0BC200434D44302073656E74210029
:0C0BCD004353206973204C4F57210A004D
:080BD90057726974696E670030
:020BE100000012
:060BE300506C61790A006C
:080BE90052656164696E67004A
:100BF100436F6D6D616E64206163636570746564DC
:020C01002100D0
:100C0300436F6D6D616E642072656A6563746564BC
:020C13002100BE
:0C0C150043617264207265616479210003
:080C21005265636F72640A0062
:060C2900444F4E4521007E
:100C2F00546F6B656E20726563656976656421002C
:0E0C3F00434D44206163636570746564210059
:0F0C4D00446174612072656A6563746564210097
:020C5C00000096
:0E0C5E0053656C6563742061204D656E7500F2
:0F0C6C0044617461206163636570746564210085
:020000040030CA
:0D000100021F1EFF8381FF0FC00FE00F40A4
:00000001FF
