:10000000ADEF05F00000000000EF00F00000000080
:0A0010000000000000000000F3D71C
:10001C00FDC2C9FFC7B002D00000FCD7C9CF00F0A9
:02002C001200C0
:10002E00F250026EF29E0500FF6A0150FE6E005005
:08003E00FD6E02BEF28E1200FD
:10004600FCC2C9FFC7B002D00000FCD7C9CF00F080
:02005600120096
:0E005800ACB202D00000FCD7FCC2ADFF12001B
:100066008B84C1C0E1FFC2C0E2FFFF0EE66EBFC0D7
:0A00760000F0C0C001F0D8DF120056
:040080008B9412004B
:10008400400E0201F325006EC1C0E1FFC2C0E2FFD1
:1000940000C0E6FFBFC000F0C0C001F0C6DFC1C0B1
:1000A400E1FFC2C0E2FFF7C2E6FFBFC000F0C0C07C
:1000B40001F0BBDFC1C0E1FFC2C0E2FFF6C2E6FF50
:1000C400BFC000F0C0C001F0B0DFC1C0E1FFC2C0DA
:1000D400E2FFF5C2E6FFBFC000F0C0C001F0A5DF3B
:1000E400C1C0E1FFC2C0E2FFF4C2E6FFBFC000F03E
:1000F400C0C001F09ADFC1C0E1FFC2C0E2FFF8C294
:10010400E6FFBFC000F0C0C001F08FDF0201FA6B50
:10011400FB6BC1C0E1FFC2C0E2FFFF0EE66EBFC0D1
:1001240000F0C0C001F081DF00C0F9F20201FA4B17
:10013400FB2B800E0014016E0150000A07E0000E34
:10014400FB5D02E1640EFA5D01E2E3D7F9C200F05F
:02015400120097
:100156000201EF6BF06B270EF05D02E1100EEF5D12
:10016600D8B09AD0000E000A02E1000EEE1915E191
:1001760084DF010EF36FF46BF56BF66BF76BFF0E16
:10018600F86F7DDF00C0F1F26BDF0201F151000A6A
:1001960003E1176A006A82D07CD06FDF370EF36FF7
:1001A600F46BF56BF66BF76BFF0EF86F68DF00C04C
:1001B600F1F256DF0201F151010AD8A469D05DDFE0
:1001C600290EF36F000EF46F000EF56F000EF66F3A
:1001D600400EF76FFF0EF86F52DF00C0F1F240DFFE
:1001E6000201F151000A53E1000E000A02E1020E7B
:1001F600EE1949E142DF3A0EF36FF46BF56BF66BDD
:10020600F76BFF0EF86F3BDF00C0F1F2C1C0E1FFF4
:10021600C2C0E2FFFF0EE66EBFC000F0C0C001F034
:1002260003DF00C0F2F2C1C0E1FFC2C0E2FFFF0E71
:10023600E66EBFC000F0C0C001F0F6DEC1C0E1FF4F
:10024600C2C0E2FFFF0EE66EBFC000F0C0C001F004
:10025600EBDEC1C0E1FFC2C0E2FFFF0EE66EBFC02B
:1002660000F0C0C001F0E0DEFBDE0201F151000A41
:1002760009E1F2AD03D0040E176E02D0030E176E1D
:10028600006A0CD004D0010E176E006A07D001D0A8
:0E02960003D0EF4BF02B5FD7010E006E12006D
:1002A400CEC0E1FFCFC0E2FFEEC2E6FFCCC000F05B
:0802B400CDC001F0BADE12001A
:1002BC00086A096A100E0C6E0134083609360450AF
:1002CC00085E0550D8A0053C095ED8B007D0045094
:1002DC0008260550D8B0053C0926D89000360136C2
:0602EC000C2EEAD71200FF
:1002F2000201E46B050EE45D0AE2E451E225E16EDF
:10030200000EE321E26E200EE66EE42BF3D7E451F9
:10031200E225E16E000EE321E26EE66AE407E451B3
:10032200E225E56F000EE321E66F0A0E046E000E71
:10033200056EE0C200F0E1C201F0BFDF08C000F0CC
:1003420009C001F0300E0026E5C2E1FFE6C2E2FF7D
:1003520000C0E6FF0A0E046E000E056EE0C200F059
:10036200E1C201F0AADF00C0E0F201C0E1F2000E3A
:10037200011802E1000E001801E102D0E407CFD714
:02038200120067
:100384007DDE000E000A02E1040E171809E1E0C246
:10039400E8F2E1C2E9F2E2C2EAF2E3C2EBF214D01B
:1003A400090E006EE0C2E8F2E1C2E9F2E2C2EAF24A
:1003B400E3C2EBF2005008E00201E837E891E937C4
:1003C400EA37EB37FF0FF7D70201180EF36FE8C2D5
:1003D400F4F2E9C2F5F2EAC2F6F2EBC2F7F2FF0E6A
:1003E400F86F4EDE005204E03CDE010E006E8BD04E
:1003F400C1C0E1FFC2C0E2FFFF0EE66EBFC000F065
:10040400C0C001F012DEC1C0E1FFC2C0E2FFFF0EB6
:10041400E66EBFC000F0C0C001F007DEC1C0E1FF5E
:10042400C2C0E2FFFE0EE66EBFC000F0C0C001F025
:10043400FCDD0201E66BE76BE751010802E1E651DE
:10044400FF0815E3E651E425E96EE751E521EA6E7C
:10045400C1C0E1FFC2C0E2FFEECFE6FFBFC000F0C3
:10046400C0C001F0E2DD0201E64BE72BE5D7C1C0D5
:10047400E1FFC2C0E2FFFF0EE66EBFC000F0C0C0E5
:1004840001F0D3DDC1C0E1FFC2C0E2FFFF0EE66EA2
:10049400BFC000F0C0C001F0C8DDC1C0E1FFC2C0F0
:1004A400E2FFFF0EE66EBFC000F0C0C001F0BDDD8C
:1004B40000C0E6F2000E0201E76F1F0EE615016EA2
:1004C400E7C202F0000E021601C0E6F202C0E7F233
:1004D400000E021802E1050E011804E0C2DD020E4E
:1004E400006E11D0C1C0E1FFC2C0E2FFFF0EE66E94
:1004F400BFC000F0C0C001F098DD0050FF0A01E069
:08050400F1D7AFDD006A12001F
:10050C000D0E0D6E0D2EFED7C282C4CF00F0120060
:10051C000201E36BE0C2E9FFE1C2EAFFEECFE2F2D7
:10052C00E251000A0EE0E2C2EEF2B6DE0201E32B6B
:10053C00E351E025E96E000EE121EA6EEECFE2F226
:04054C00EFD71200D3
:1005500097DD000E000A02E1040E171809E1E0C25F
:10056000E8F2E1C2E9F2E2C2EAF2E3C2EBF214D04D
:10057000090E006EE0C2E8F2E1C2E9F2E2C2EAF27C
:10058000E3C2EBF2005008E00201E837E891E937F6
:10059000EA37EB37FF0FF7D70201110EF36FE8C20E
:1005A000F4F2E9C2F5F2EAC2F6F2EBC2F7F2FF0E9C
:1005B000F86F68DD005204E056DD010E006E4BD08E
:1005C000C1C0E1FFC2C0E2FFFF0EE66EBFC000F097
:1005D000C0C001F02CDD0050FE0A01E0F1D702019D
:1005E000E66BE76B020EE75D02E1000EE65D1BE2E3
:1005F000E651E425EC6FE751E521ED6FC1C0E1FF65
:10060000C2C0E2FFFF0EE66EBFC000F0C0C001F046
:100610000EDDECC2E1FFEDC2E2FF00C0E6FF020129
:10062000E64BE72BDFD7C1C0E1FFC2C0E2FFFF0E00
:10063000E66EBFC000F0C0C001F0F9DCC1C0E1FF50
:10064000C2C0E2FFFF0EE66EBFC000F0C0C001F006
:08065000EEDC09DD006A120076
:100658001C0E0001BF6F000EC06FFD0EC16F020EB1
:10066800C26F460EBA6F000EBB6FFC0EBC6F020E57
:10067800BD6F949A0201E051040A02E1948601D008
:1006880094969488C66AE051C612E251C612E151A6
:10069800C712E25305E0E351000AD8B4C78C03D06F
:0A06A800E353D8A4C78CC68A1200E1
:1006B200050E176E9494D6DC0201E06BE16B000E1E
:1006C200E15D02E10A0EE05D0FE2C1C0E1FFC2C0DE
:1006D200E2FFFF0EE66EBFC000F0C0C001F0A6DC74
:1006E2000201E04BE12BEBD7CADCF36BF46BF56B49
:1006F200F66BF76B950EF86FC4DC00C0E2F2B2DC69
:100702000201E251010A03E0010E006E72D0B7DC71
:10071200080EF36FAA0EF46F010EF56F000EF66F5E
:10072200F76F870EF86FADDC00C0E2F2C1C0E1FFE7
:10073200C2C0E2FFFF0EE66EBFC000F0C0C001F013
:1007420075DCC1C0E1FFC2C0E2FFFF0EE66EBFC0B2
:1007520000F0C0C001F06ADCC1C0E1FFC2C0E2FF2C
:10076200FF0EE66EBFC000F0C0C001F05FDCC1C08A
:10077200E1FFC2C0E2FFFF0EE66EBFC000F0C0C0E4
:1007820001F054DC6FDC0201E251010A08E0010EC3
:10079200EE6FE0DC005202E0EE6BDCDC03D0020E16
:1007A200EE6FD8DC000E000A02E1050E171803E115
:1007B200020E006E1ED0000E000A02E1040E17188F
:1007C20017E05DDC100EF36F000EF46F020EF56F92
:1007D200000EF66FF76FFF0EF86F53DC00C0E2F207
:1007E20041DC0201E251000A03E0030E006E01D077
:0407F200006A120087
:1007F600A69CDCC0A9FFA69EA680A8CF00F012008A
:10080600180E0201E06F000EE16F85DE0D0EEE6F31
:1008160046DD0A0E0201EE6F42DD1A0E0B6E5E0E0B
:100826000C6E6E0E0D6E0D2EFED70C2EFCD70B2EFB
:10083600FAD70000020E0201E06FE16BE26B010ED7
:10084600E36F07DF33DF0050000A01E0FBD7E06B00
:10085600E16BE26B010EE36FFCDE700EE06F000EE3
:10086600E16F59DE0D0EEE6F1ADD0A0E0201EE6F14
:1008760016DD1A0E0B6E5E0E0C6E6E0E0D6E0D2EC6
:0E088600FED70C2EFCD70B2EFAD70000120066
:100894000900F5CFE6FF0006FBE10106F9E11200CD
:1008A400580E0001CC6F000ECD6FFC0ECE6F020E01
:1008B400CF6FFF0EC86FFF0EC96F000ECA6F000E18
:1008C400CB6FFF0EC46FFF0EC56F000EC66F000E18
:1008D400C76FFF0ED06FFF0ED16F000ED26F000EE8
:1008E400D36FAC8A900EAB6E948E949C9EAA03D068
:0808F400AECF00F0FBD71200AB
:1008FC00A6A202D00000FCD7A69CDCC0A9FFDDC0DC
:10090C00A8FFA69EA684F2CF00F0F29E550EA76E0D
:10091C00AA0EA76EA68200BE02D0F29E01D0F28E65
:04092C00A69412007B
:100930000001E26BE36BDCC0E4F0DDC0E5F0800EAB
:10094000DD19006E800E005C02E1000EDC5D0BE242
:10095000010EE26F000EE36FDC510008E46FDDC0B2
:10096000E5F0000EE557E4C0E0F2E5C0E1F2DEC0DC
:10097000E2F2DFC0E3F2BDDC060E0001E06F000E24
:10098000E16F000E006EE151005C02E1E0510008F1
:1009900019E2E051DE25E16EE151DF21E26E010E48
:1009A000E05D006E000EE159016E0050DE25E96E3B
:1009B0000150DF21EA6EEECFE6FF010EE05F000E90
:1009C000E15BDFD7DEC0E1FFDFC0E2FF200EE66EB5
:1009D000E251E3111AE0E06BE16BE051DE25E96ED4
:1009E000E151DF21EA6EEE50200A03E1E04BE12BFA
:1009F000F4D7010EE05F000EE15BE051DE25E16E11
:0C0A0000E151DF21E26E2D0EE66E1200C7
:100A0C000001DC6BDD6B020EDD5D02E1000EDC5DD6
:100A1C001CE28B80180E0D6E0D2EFED70000000010
:100A2C008B90DE0EDC250201DE6F000E0001DD2155
:100A3C000201DF6F65DDDEC2E1FFDFC2E2FF00C055
:100A4C00E6FF0001DC4BDD2BDED7B8C0E0F2B9C00D
:100A5C00E1F2000E0201E26FE36FDE0EE46F000EB6
:100A6C00E56F8ADC00C0BEF00001BE51010A0EE148
:100A7C004A0E0201E06F000EE16F4ADD0D0EEE6FC3
:100A8C000BDC0A0E0201EE6F07DC13D00001BE5125
:100A9C00020A0FE13D0E0201E06F000EE16F38DD3E
:100AAC000D0EEE6F52EC01F00A0E0201EE6F52ECDD
:100ABC0001F0010E0001B825006E000EB921016E87
:0A0ACC0000C0B8F001C0B9F012003C
:100AD600B8C0E0F2B9C0E1F2000E0201E26FE36FC6
:100AE600DE0EE46F000EE56F30DD00520FE0940E6F
:100AF6000201E06F000EE16F0EDD0D0EEE6F52EC9F
:100B060001F00A0E0201EE6F52EC01F00001DC6BFF
:100B1600DD6B020EDD5D02E1000EDC5D10E2DE0E35
:100B2600DC25E96E000EDD21EA6EEECF8AFF290E86
:100B36000D6E0D2EFED70000DC4BDD2BEAD7010E25
:100B4600B825006E000EB921016E00C0B8F001C0D4
:040B5600B9F01200E0
:100B5A00BFEC07F00E0EC1122D0EC012C09EC2804D
:100B6A00030E0B6E8A0E0C6E550E0D6E0D2EFED7F1
:100B7A000C2EFCD70B2EFAD700000000F30E956E50
:100B8A00928495849586936A946AB886020EB06EAA
:100B9A00080EAF6EAC8481DE31DE83A401D0FDD7AE
:100BAA007E0E0201E06F000EE16FB3DC0D0EEE6FF8
:100BBA0052EC01F00A0E0201EE6F52EC01F083A62C
:100BCA0073D083B423D0080E0B6E9D0E0C6E050EE7
:100BDA000D6E0D2EFED70C2EFCD70B2EFAD7000069
:100BEA000000010E0001A025006E000EA121016E79
:100BFA0000C0A0F001C0A1F0000EA11902E1030E8D
:100C0A00A01904E1010EA06F000EA16F0001000EF1
:100C1A00A11902E1010EA019010ED8A4000E016E5D
:100C2A00000EA11902E1A051D419000ED8A4010E98
:100C3A00006E0150001610E0A20E0201E06F000ED5
:100C4A00E16F67DC0D0EEE6F52EC01F00A0E020145
:100C5A00EE6F52EC01F025D0000E0001A11902E15D
:100C6A00020EA019010ED8A4000E016E000EA119E1
:100C7A0002E1A051D419000ED8A4010E006E015051
:100C8A0000160FE0AA0E0201E06F000EE16F41DCD0
:100C9A000D0EEE6F52EC01F00A0E0201EE6F52ECED
:100CAA0001F0A0C0D4F08BD7000E0001A11902E117
:100CBA00010EA019D8A489D0B86BB96B8C0E0201A9
:100CCA00E06F000EE16F25DC0D0EEE6F52EC01F0C5
:100CDA000A0E0201EE6F52EC01F0816A83A402D07F
:100CEA0090DEFCD7A30E0C6E550E0D6E00010D2E74
:100CFA00FDD70C2EFBD7810EDC6FB8C0DDF0F9DD15
:100D0A00A30E0C6E550E0D6E0D2EFED70C2EFCD7B3
:100D1A00820E0001DC6FB9C000F0016A00C0DDF08C
:100D2A00E8DDA30E0C6E550E0D6E0D2EFED70C2EA1
:100D3A00FCD7B8C0DCF0B9C0DDF0D50E0001DE6F1B
:100D4A00000EDF6FF0DDD50E0201E06F000EE16FDD
:100D5A008EEC02F00D0EEE6F52EC01F00A0E02015B
:100D6A00EE6F52EC01F00D0E0B6EAF0E0C6EB60E5E
:100D7A000D6E0D2EFED70C2EFCD70B2EFAD70000C7
:100D8A00B00E0201E06F000EE16F8EEC02F00D0E64
:100D9A00EE6F52EC01F00A0E0201EE6F52EC01F016
:100DAA00260E0201E06F000EE16F8EEC02F00D0ECE
:100DBA00EE6F52EC01F00A0E0201EE6F52EC01F0F6
:100DCA0083A403D083A601D0FBD7000E0001A1198A
:100DDA0002E1020EA019D8A478D0350E0201E06F04
:100DEA00000EE16F8EEC02F00D0EEE6F52EC01F088
:100DFA000A0E0201EE6F52EC01F00001B86BB96BFA
:100E0A00156A166A820EDC6FF1DC00C0C3F0C3C03B
:100E1A0001F0006A0050151201501612A30E0C6E52
:100E2A00550E0D6E0D2EFED70C2EFCD7810EDC6FE3
:100E3A00DDDC00C0C3F0C3511512000E161215C036
:100E4A00DCF016C0DDF0D50EDE6F000EDF6F6BDD55
:100E5A00D50E0201E06F000EE16F8EEC02F00D0E6E
:100E6A00EE6F52EC01F00A0E0201EE6F52EC01F045
:100E7A0016500001B95D02E11550B85D02E226DEA6
:100E8A00F7D7FF0E0201FC6F23EC00F0FF0E020100
:100E9A00FC6F23EC00F08D0E0201FC6F23EC00F0D6
:100EAA00590E0201E06F000EE16F8EEC02F00D0E9A
:100EBA00EE6F52EC01F00A0E0201EE6F52EC01F0F5
:0E0ECA0083A403D083A601D0FBD767D6FFD741
:100F7E0010EE15F0A50E006E010E016ED80EF66E77
:0E0F8E000E0EF76E000EF86E4AEC04F0120024
:020ED800000018
:010EDA000017
:0E0EDB00446574656374696E67204D4D430075
:0F0EE900507265737320616E79206B65792100FB
:080EF80052656164696E670038
:0D0F00005772697465206572726F7221006E
:0F0F0D00436F6D6D616E64206572726F722100AB
:100F1C0053746F707065642E20507265737320610A
:070F2C006E796B657921006D
:0E0F33004D4D43204465746563746564210070
:0E0F410053656C6563742061204D656E75000C
:080F4F0057726974696E6700B6
:0C0F570052656164206572726F722100A7
:020F630000008C
:080F65005265636F72640A001B
:060F6D00506C61790A00DE
:080F730053544F505045440057
:020F7B00000074
:020000040030CA
:0D000100021F1EFF8381FF0FC00FE00F40A4
:00000001FF
