:100000003FEF04F00000000000EF00F000000000EF
:0A0010000000000000000000F3D71C
:0E001C00ACB202D00000FCD74BC1ADFF120009
:10002A004BC1C9FFC7B002D00000FCD7C9CF00F04E
:02003A001200B2
:10003C00F250026EF29E0500FF6A0150FE6E0050F7
:08004C00FD6E02BEF28E1200EF
:10005400086A096A100E0C6E013408360936045019
:10006400085E0550D8A0053C095ED8B007D00450FE
:1000740008260550D8B0053C0926D890003601362C
:060084000C2EEAD7120069
:10008A002BC1E1FF2CC1E2FF4AC1E6FF29C100F002
:08009A002AC101F0CEDF1200C3
:1000A2004AC1C9FFC7B002D00000FCD7C9CF00F0D7
:0200B20012003A
:1000B400FF0E01014B6FB7DF400E010143114B6F7F
:1000C400B2DF47C100F0016A026A036A00C04BF163
:1000D400AADF46C100F047C101F0026A036A00C00A
:1000E4004BF1A1DF45C100F046C101F047C102F068
:1000F400036A00C04BF197DF44C14BF194DF48C160
:100104004BF191DFFF0E01014A6FC9DF00C012F10C
:020114001200D7
:100116000101466B43C1E9FF44C1EAFFEECF45F159
:100126004551000A0EE045C14AF1ACDF0101462BFC
:1001360046514325E96E000E4421EA6EEECF45F1A5
:04014600EFD71200DD
:10014A000101476B050E475D0AE247514525E16EFD
:10015A00000E4621E26E200EE66E472BF3D747517A
:10016A004525E16E000E4621E26EE66A47074751D1
:10017A004525486F000E4621496F0A0E046E000E8F
:10018A00056E43C100F044C101F05FDF08C000F012
:10019A0009C001F0300E002648C1E1FF49C1E2FF63
:1001AA0000C0E6FF0A0E046E000E056E43C100F0A1
:1001BA0044C101F04ADF00C043F101C044F1000E1E
:1001CA00011802E1000E001801E102D04707CFD75B
:0201DA00120011
:0E01DC00C282C2A201D0FDD7C4CF00F0120033
:1001EA000101486BFF0E4B6F1BDFFF0E01014A6FC7
:1001FA0053DF00C012F101011251FF0AF6E1400E6D
:10020A0043114B6F0DDF47C100F0016A026A036AAE
:10021A0000C04BF105DF46C100F047C101F0026A98
:10022A00036A00C04BF1FCDE45C100F046C101F093
:10023A0047C102F0036A00C04BF1F2DE44C14BF140
:10024A00EFDE950E01014B6FEBDEFF0E01014A6FE7
:10025A0023DF00C012F10A0E0101485D0CE21251BF
:10026A00000A01E108D0FF0E4A6F16DF00C012F142
:10027A000101482BF0D70A0E485D03E3010E006E18
:06028A0001D0006A120021
:10029000A20E0101156F000E166F4A0E176F010EA8
:1002A000186F2A0E1D6F000E1E6F4B0E1F6F010E72
:1002B000206F949A3951040A02E1948601D09496F1
:1002C0009488C66A3951C6123B51C6123A51C712B8
:1002D0003B5305E03C51000AD8B4C78C03D03C53D3
:0802E000D8A4C78CC68A1200E5
:1002E8000900F5CFE6FF0006FBE10106F9E112007F
:1002F8001C0E0101296F000E2A6F4B0E2B6F010E89
:100308002C6FFF0E256FFF0E266F000E276F000E55
:10031800286FFF0E216FFF0E226F000E236F000E55
:10032800246FFF0E196FFF0E1A6F000E1B6F000E61
:100338001C6FAC8A900EAB6E948E949C9EAA03D0D0
:08034800AECF00F0FBD712005C
:1003500001013A6B0D0E0C6EFB0E0D6E0D2EFED7CD
:100360000C2EFCD7000000008B84396B0A0E395D1F
:1003700006E2FF0E4B6F59DE0101392BF7D78B9444
:10038000070E0C6E7D0E0D6E0D2EFED70C2EFCD7BB
:10039000436B446B456B466B476B950E486F8ADE2B
:1003A0000101116B1251010A0FE00A0E115D0CE2FE
:1003B000FF0E4A6F76DE00C012F101011151010FEC
:1003C000006E00C011F1EED70A0E115D02E3010EBE
:1003D0003A6F010E436F446B456B466B476BFF0EE4
:1003E000486F68DE0101116B1251000A1FE0800E98
:1003F000006E800E030A005C02E1E80E115D16E259
:10040000010E436F446B456B466B476BFF0E486FA5
:1004100051DEFF0E01014A6F44DE00C012F10101FE
:100420001151010F006E00C011F1DED7800E006E79
:10043000800E030A005C02E1E80E115D02E3020E89
:100440003A6F100E436F000E446F020E456F000EA0
:10045000466F476FFF0E486F2DDE0101116B125181
:10046000000A15E0800E006E800E030A005C02E1B7
:10047000E80E115D0CE2FF0E4A6F13DE00C012F1B0
:1004800001011151010F006E00C011F1E8D7800E7B
:10049000006E800E030A005C02E1E80E115D02E3CB
:0A04A000030E3A6F3AC100F012009B
:1004AA0001013F6B406B39C141F13AC142F1800E03
:1004BA003A19006E800E005C02E1000E395D0BE213
:1004CA00010E3F6F000E406F39510008416F3AC16B
:1004DA0042F1000E425741C143F142C144F13BC1CE
:1004EA0045F13CC146F12CDE060E3D6F000E3E6F13
:1004FA00000E006E3E51005C02E13D51000819E217
:10050A003D513B25E16E3E513C21E26E010E3D5DBF
:10051A00006E000E3E59016E00503B25E96E0150F7
:10052A003C21EA6EEECFE6FF010E3D5F000E3E5B18
:10053A00DFD73BC1E1FF3CC1E2FF200EE66E3F512F
:10054A0040111AE03D6B3E6B3D513B25E96E3E5131
:10055A003C21EA6EEE50200A03E13D4B3E2BF4D7D4
:10056A00010E3D5F000E3E5B3D513B25E16E3E5163
:0A057A003C21E26E2D0EE66E120029
:10058400190E0101436F446B456B466B476B2BDEC1
:10059400005202E13C6B0AD0010E3C6F3B51010F4B
:1005A400006E00C03BF1320E3B5DEAE33C53D8A43D
:1005B40092D0FF0E4B6F37DDFF0E01014B6F33DD21
:1005C400FF0E01014B6F2FDD0101136B146B7A6A6F
:1005D4007B6A83A469D0FC0E4B6F25DD0101396B66
:1005E4003A6B020E3A5D02E1000E395D10E2F4DD71
:1005F40000C04BF118DD010E01013925006E000E1B
:100604003A21016E00C039F101C03AF1EAD7FF0E78
:100614004B6F09DDFF0E01014B6F05DD0101116B0D
:100624001E0E115D1DE2FF0E4A6F39DD00C012F18E
:100634001F0E01011215016E0150050A0BE1010E96
:100644001325006E000E1421016E00C013F101C0C9
:1006540014F106D01151010F006E00C011F1E0D762
:100664001E0E115D16E3A00E436F000E446F51DDA4
:100674000D0E4A6F08DD0A0E01014A6F04DD010EFA
:100684007A24006E000E7B20016E00C07AF001C057
:100694007BF0FF0E01014A6F02DD00C012F101017F
:1006A4001251FF0AF6E195D7FD0E4B6FBCDCFF0E2D
:1006B40001014B6FB8DCFF0E01014A6FF0DC00C092
:1006C40012F101011251FF0A06E0FF0E4A6FE7DC46
:0C06D40000C012F1F6D73CC100F012008B
:1006E00001013B6B3C6BFF0E4A6FDBDC00C012F17B
:1006F00001011251FF0AF7E1120E436FAFC044F13E
:10070000B0C045F1B1C046F1B2C047F1950E486F97
:10071000D1DC0101116B1251000A0DE17C0E436F17
:10072000000E446FF8DC0D0E4A6FAFDC0A0E0101BB
:100730004A6FABDC0FD0FF0E01014A6FB2DC00C084
:1007400012F101011151010F006E00C011F10A0EEA
:10075000115DE1E301010A0E115D0DE38E0E436FA1
:10076000000E446FD8DC0D0E4A6F8FDC0A0E0101BB
:100770004A6F8BDCFFD783A440D0FF0E01014A6F84
:1007800090DC00C012F101011251FE0AF6E1396B52
:100790003A6B020E3A5D02E1000E395D17E2FF0E80
:1007A0004A6F7FDC00C08AFF1D0E0D6E0D2EFED736
:1007B00000000000010E01013925006E000E3A21F3
:1007C000016E00C039F101C03AF1E3D7FF0E4A6F64
:1007D00068DC00C012F1FF0E01014A6F62DC00C04C
:1007E00012F1010E01013B25006E000E3C21016E4D
:1007F00000C03BF101C03CF1BED701010C0E436FBC
:10080000446B456B466B476B950E486F53DC01019B
:10081000116B1251000A0DE1680E436F000E446F18
:100820007ADC0D0E4A6F31DC0A0E01014A6F2DDCB5
:100830000FD0FF0E01014A6F34DC00C012F101013C
:100840001151010F006E00C011F10A0E115DE1E3BC
:100850000101FF0E4A6F25DC00C012F101011251A7
:10086000FF0AF6E13C0E436F000E446F54DC0D0EA0
:0E0870004A6F0BDC0A0E01014A6F07DC120012
:10087E0096EC06F00101386B0E0EC1122D0EC01251
:10088E00C09EC280030E0B6E8A0E0C6E550E0D6E40
:10089E000D2EFED70C2EFCD70B2EFAD70000000023
:1008AE00F30E956E928495849586936A946AB886B3
:1008BE00020EB06E080EAF6EAC8417DD020E396FED
:1008CE003A6B3B6B010E3C6FDCDC3BDD0050000AEB
:1008DE000FE1470E436F000E446F16DC0D0E4A6F8C
:1008EE0045EC00F00A0E01014A6F45EC00F01AD0FB
:1008FE0001013851010F006E00C038F13851320A33
:10090E0010E1150E436F000E446F8BEC00F00D0ED0
:10091E004A6F45EC00F00A0E01014A6F45EC00F0FB
:10092E00FFD7D3D70101396B3A6B3B6B010E3C6F8E
:10093E00A8DC83A401D0FDD701012E0E436F000E5B
:10094E00446F8BEC00F00D0E4A6F45EC00F00A0E72
:10095E0001014A6F45EC00F083A674D083B422D017
:10096E00080E0B6E9D0E0C6E050E0D6E0D2EFED727
:10097E000C2EFCD70B2EFAD700000000010E5E24C1
:10098E00006E000E5F20016E00C05EF001C05FF0D1
:10099E00000E5F1802E1030E5E1804E1010E5E6E9A
:1009AE00000E5F6E000E5F1802E1010E5E18010E62
:1009BE00D8A4000E016E000E5F1803E15E50010117
:1009CE002D19000ED8A4010E006E0150001611E074
:1009DE000101600E436F000E446F8BEC00F00D0EA4
:1009EE004A6F45EC00F00A0E01014A6F45EC00F02B
:1009FE0026D0000E5F1802E1020E5E18010ED8A47A
:100A0E00000E016E000E5F1803E15E5001012D19FC
:100A1E00000ED8A4010E006E0150001610E0010168
:100A2E00560E436F000E446F8BEC00F00D0E4A6FA6
:100A3E0045EC00F00A0E01014A6F45EC00F05EC075
:100A4E002DF18AD7000E5F1802E1010E5E18D8A4B0
:100A5E00C8D05C6A5D6AB30E0101436F000E446F2D
:100A6E008BEC00F00D0E4A6F45EC00F00A0E010102
:100A7E004A6F45EC00F0816A020E0101396F3A6B44
:100A8E003B6B010E3C6F48EC01F05BDC0050000A42
:100A9E0010E1FB0E436F000E446F8BEC00F00D0E59
:100AAE004A6F45EC00F00A0E01014A6F45EC00F06A
:100ABE001AD001013851010F006E00C038F13851C3
:100ACE00320A10E1D00E436F000E446F8BEC00F033
:100ADE000D0E4A6F45EC00F00A0E01014A6F45EC0F
:100AEE0000F0FFD7D2D70101396B3A6B3B6B010E89
:100AFE003C6F48EC01F03FDD005211E0C30E0101E6
:100B0E00436F000E446F8BEC00F00D0E4A6F45ECF8
:100B1E0000F00A0E01014A6F45EC00F062D0F20EB1
:100B2E000101436F000E446F8BEC00F00D0E4A6F07
:100B3E0045EC00F00A0E01014A6F45EC00F013C1BE
:100B4E0039F114C13AF12E0E01013B6F010E3C6FCB
:100B5E00A5DCE90E436F000E446F8BEC00F00D0E1A
:100B6E004A6F45EC00F00A0E01014A6F45EC00F0A9
:100B7E002E0E0101436F010E446F8BEC00F00D0E33
:100B8E004A6F45EC00F00A0E01014A6F45EC00F089
:100B9E007AC039F17BC03AF12E0E01013B6F010E86
:100BAE003C6F7CDC0A0E436F010E446F8BEC00F041
:100BBE000D0E4A6F45EC00F00A0E01014A6F45EC2E
:100BCE0000F02E0E0101436F010E446F8BEC00F00E
:100BDE000D0E4A6F45EC00F00A0E01014A6F45EC0E
:100BEE0000F0000E5F1802E1020E5E1818E1BB0E57
:100BFE000101436F000E446F8BEC00F00D0E4A6F37
:100C0E0045EC00F00A0E01014A6F45EC00F05C6AFB
:100C1E005D6A5FDD83A403D083A601D0FBD789D69E
:020C2E00FFD7EE
:100D2C0010EE15F0FC0E006E010E016E300EF66E1C
:0E0D3C000C0EF76E000EF86E74EC01F0120053
:100C300043617264206572726F722C20435055209C
:090C40007472617070656421009A
:0E0C490053656C6563742061204D656E750007
:0B0C5700436172642066726565210035
:0F0C620043617264206465746563746564210086
:060C7100506C61790A00DD
:020C770000007B
:020C7900000079
:080C7B005265636F72640A0008
:100C830053746F70706564205472616E736665721D
:020C930021003E
:020C950000005D
:100C9700436F6D6D616E6420616363657074656435
:020CA70021002A
:100CA900436F6D6D616E642052656A656374656436
:020CB900210018
:0F0CBB00446174612072656A6563746564210029
:040CCA000000000026
:080CCE0057726974696E67003A
:080CD60052656164696E67005C
:0D0CDE005772697465206572726F72210093
:100CEB0043617264206572726F722C2043505520E1
:090CFB00747261707065642100DF
:090D04005772697474656E3A00BF
:090D0D0053544F5050454421009D
:0F0D1600436172642064657465637465642100D1
:070D25004C6F73743A2000CB
:020000040030CA
:0D000100021F1EFF8381FF0FC00FE00F40A4
:00000001FF
