:040000006EEF05F0AA
:1000080000C016F001C015F0E1CF19F0E2CF1AF0E8
:10001800E9CF17F0EACF18F09EA040D09E90FE0ED0
:10002800CF6EC70ECE6E000E291802E1010E2818F9
:1000380002E1C28233D0000E291802E1020E28180C
:100048002DE125502B24E96E26502C20EA6EEECFA8
:1000580000F000C08CFF010E2524006E000E262043
:10006800016E00C025F001C026F02650020A02E108
:10007800000E251813E1256A266A010E1F6E275007
:10008800000A07E14B0E2B6E000E2C6E010E276E38
:1000980005D0630E2B6E020E2C6E276A9EAC2ED0F6
:1000A8009E9CC4CF2AF025502B24E16E26502C208C
:1000B800E26E2AC0E6FF010E2524006E000E2620FF
:1000C800016E00C025F001C026F02650020A02E1A8
:1000D800000E251813E1256A266A010E1F6E2750A7
:1000E800000A07E14B0E2B6E000E2C6E010E276ED8
:1000F80005D0630E2B6E020E2C6E276A16C000F018
:1001080015C001F017C0E9FF18C0EAFF19C0E1FFE8
:060118001AC0E2FF110015
:10011E0089C4C9FFC7B002D00000FCD7C9CF00F018
:02012E001200BD
:10013000F250026EF29E0500FF6A0150FE6E005002
:08014000FD6E02BEF28E1200FA
:10014800400E04018025006E3BC0E1FF3CC0E2FF89
:1001580000C0E6FF39C000F03AC001F0E5DF3BC05F
:10016800E1FF3CC0E2FF84C4E6FF39C000F03AC0BA
:1001780001F0DADF3BC0E1FF3CC0E2FF83C4E6FFE9
:1001880039C000F03AC001F0CFDF3BC0E1FF3CC00E
:10019800E2FF82C4E6FF39C000F03AC001F0C4DFD4
:1001A8003BC0E1FF3CC0E2FF81C4E6FF39C000F07C
:1001B8003AC001F0B9DF3BC0E1FF3CC0E2FF85C4B3
:1001C800E6FF39C000F03AC001F0AEDF0401876BEA
:1001D800886B3BC0E1FF3CC0E2FFFF0EE66E39C012
:1001E80000F03AC001F0A0DF00C086F40401874B9C
:1001F800882B800E0014016E0150000A07E0000EE3
:10020800885D02E1640E875D01E2E3D786C400F0F1
:020218001200D2
:10021A008B843BC0E1FF3CC0E2FFFF0EE66E39C0B3
:0A022A0000F03AC001F07FDF12007F
:0E023400ACB202D00000FCD780C4ADFF1200B7
:1002420080C4C9FFC7B002D00000FCD7C9CF00F0FC
:02025200120098
:040254008B94120075
:1002580004017C6B7D6B270E7D5D02E1100E7C5DD9
:10026800D8B09AD0000E000A02E1000E7B1915E101
:10027800EDDF010E806F816B826B836B846BFF0EE9
:10028800856F5EDF00C07EF4C4DF04017E51000A82
:1002980003E1246A006A82D07CD0D8DF370E806FF1
:1002A800816B826B836B846BFF0E856F49DF00C0A7
:1002B8007EF4AFDF04017E51010AD8A469D0C6DFFD
:1002C800290E806F000E816F000E826F000E836F03
:1002D800400E846FFF0E856F33DF00C07EF499DF18
:1002E80004017E51000A53E1000E000A02E1020EE9
:1002F8007B1949E1ABDF3A0E806F816B826B836BB0
:10030800846BFF0E856F1CDF00C07EF43BC0E1FFED
:100318003CC0E2FFFF0EE66E39C000F03AC001F0C3
:1003280003DF00C07FF43BC0E1FF3CC0E2FFFF0EEB
:10033800E66E39C000F03AC001F0F6DE3BC0E1FFDE
:100348003CC0E2FFFF0EE66E39C000F03AC001F093
:10035800EBDE3BC0E1FF3CC0E2FFFF0EE66E39C0BA
:1003680000F03AC001F0E0DE54DF04017E51000ADB
:1003780009E17FAD03D0040E246E02D0030E246E73
:10038800006A0CD004D0010E246E006A07D001D098
:0E03980003D07C4B7D2B5FD7010E006E120050
:1003A600086A096A100E0C6E0134083609360450C4
:1003B600085E0550D8A0053C095ED8B007D00450A9
:1003C60008260550D8B0053C0926D89000360136D7
:0603D6000C2EEAD7120014
:1003DC00050E246E94941BDF0401746B756B000E78
:1003EC00755D02E10A0E745D0FE23BC0E1FF3CC09B
:1003FC00E2FFFF0EE66E39C000F03AC001F092DE6B
:10040C000401744B752BEBD71FDF806B816B826BF8
:10041C00836B846B950E856F91DE00C076F4F7DEEE
:10042C0004017651010A03E0010E006E72D00CDF5C
:10043C00080E806FAA0E816F010E826F000E836F03
:10044C00846F870E856F7ADE00C076F43BC0E1FFC7
:10045C003CC0E2FFFF0EE66E39C000F03AC001F07E
:10046C0061DE3BC0E1FF3CC0E2FFFF0EE66E39C02F
:10047C0000F03AC001F056DE3BC0E1FF3CC0E2FFA9
:10048C00FF0EE66E39C000F03AC001F04BDE3BC007
:10049C00E1FF3CC0E2FFFF0EE66E39C000F03AC04F
:1004AC0001F040DEB4DE04017651010A08E0010ED1
:1004BC007B6FCCDE005202E07B6BC8DE03D0020EF9
:1004CC007B6FC4DE000E000A02E1050E241803E166
:1004DC00020E006E1ED0000E000A02E1040E24185B
:1004EC0017E0B2DE100E806F000E816F020E826F6D
:1004FC00000E836F846FFF0E856F20DE00C076F4D4
:10050C0086DE04017651000A03E0030E006E01D072
:04051C00006A12005F
:100520000401786B050E785D0AE278517625E16E5C
:10053000000E7721E26E200EE66E782BF3D778510D
:100540007625E16E000E7721E26EE66A7807785133
:100550007625796F000E77217A6F0A0E046E000EF1
:10056000056E74C400F075C401F01DDF08C000F012
:1005700009C001F0300E002679C4E1FF7AC4E2FF21
:1005800000C0E6FF0A0E046E000E056E74C400F093
:1005900075C401F008DF00C074F401C075F4000EEA
:1005A000011802E1000E001801E102D07807CFD750
:0205B000120037
:1005B20037C0E1FF38C0E2FF74C4E6FF35C000F087
:0805C20036C001F0B4DD1200A7
:1005CA001E0E396E010E3A6E890E3B6E040E3C6E9B
:1005DA00420E476E020E486E800E496E040E4A6E37
:1005EA00949A04017451040A02E1948601D0949603
:1005FA009488C66A7451C6127651C6127551C712CA
:10060A00765305E07751000AD8B4C78C03D07753E4
:08061A00D8A4C78CC68A1200A7
:100622000401696B66C4E9FF67C4EAFFEECF68F4B0
:100632006851000A0EE068C474F4BADF0401692B41
:1006420069516625E96E000E6721EA6EEECF68F405
:04065200EFD71200CC
:100656000900F5CFE6FF0006FBE10106F9E112000D
:10066600036A4B0E016E020E026E03500126D8B0CD
:10067600022A035004016625F66E000E6721F76E06
:10068600000E6821F86E0900F5CF00F001C0E1FF09
:1006960002C0E2FF00C0E6FF01C0E9FF02C0EAFFB8
:1006A600EE5202E0032ADDD74B0E006E020E016EFB
:0206B600120030
:1006B800340E356E020E366E800E376E040E386EAE
:1006C800FF0E316EFF0E326E000E336E000E346E6A
:1006D800FF0E2D6EFF0E2E6E000E2F6E000E306E6A
:1006E800FF0E02015F6FFF0E606F000E616F000E5C
:1006F800626FAC8A900EAB6E948E949C9EAA03D0C7
:08070800AECF00F0FBD7120098
:0C0710000E0EC16E2D0EC06EC2801200D5
:10071C0004016C6B6D6B66C46EF467C46FF4800E71
:10072C006719006E800E005C02E1000E665D0BE244
:10073C00010E6C6F000E6D6F665100086E6F67C412
:10074C006FF4000E6F576EC474F46FC475F468C404
:10075C0076F469C477F4DEDE060E6A6F000E6B6FFA
:10076C00000E006E6B51005C02E16A51000819E248
:10077C006A516825E16E6B516921E26E010E6A5D6A
:10078C00006E000E6B59016E00506825E96E015029
:10079C006921EA6EEECFE6FF010E6A5F000E6B5B1D
:1007AC00DFD768C4E1FF69C4E2FF200EE66E6C512E
:1007BC006D111AE06A6B6B6B6A516825E96E6B51AF
:1007CC006921EA6EEE50200A03E16A4B6B2BF4D7D9
:1007DC00010E6A5F000E6B5B6A516825E16E6B510E
:0A07EC006921E26E2D0EE66E120088
:1007F6002EDD000E000A02E1040E241809E166C48B
:100806006EF467C46FF468C470F469C471F414D0EC
:10081600090E006E66C46EF467C46FF468C470F4A3
:1008260069C471F4005008E004016E376E916F37A9
:1008360070377137FF0FF7D70401180E806F6EC43B
:1008460081F46FC482F470C483F471C484F4FF0E1F
:10085600856F77DC005204E0DDDC010E006E8CD083
:100866003BC0E1FF3CC0E2FFFF0EE66E39C000F080
:100876003AC001F05ADC3BC0E1FF3CC0E2FFFF0E8C
:10088600E66E39C000F03AC001F04FDC3BC0E1FF34
:100896003CC0E2FFFE0EE66E39C000F03AC001F041
:1008A60044DC04016C6B6D6B6D51010802E16C5107
:1008B600FF0815E36C516A25E96E6D516B21EA6EEE
:1008C6003BC0E1FF3CC0E2FFEECFE6FF39C000F0DF
:1008D6003AC001F02ADC04016C4B6D2BE5D73BC016
:1008E600E1FF3CC0E2FFFF0EE66E39C000F03AC001
:1008F60001F01BDC3BC0E1FF3CC0E2FFFF0EE66EF1
:1009060039C000F03AC001F010DC3BC0E1FF3CC04A
:10091600E2FFFF0EE66E39C000F03AC001F005DCDA
:1009260000C06CF4000E04016D6F1F0E6C15016E95
:100936006DC402F0000E021601C06CF402C06DF424
:10094600000E021802E1050E011804E063DC020E37
:10095600006E12D03BC0E1FF3CC0E2FFFF0EE66E28
:1009660039C000F03AC001F098EC00F00050FF0AE0
:0A09760001E0F0D74FDC006A120028
:0E098000010E9D6EFE0ECF6EC70ECE6E1200E3
:10098E0062DC000E000A02E1040E241809E166C4BE
:10099E006EF467C46FF468C470F469C471F414D053
:1009AE00090E006E66C46EF467C46FF468C470F40A
:1009BE0069C471F4005008E004016E376E916F3710
:1009CE0070377137FF0FF7D70401110E806F6EC4A9
:1009DE0081F46FC482F470C483F471C484F4FF0E86
:1009EE00856FA4EC00F0005204E010DC010E006EE6
:1009FE0050D03BC0E1FF3CC0E2FFFF0EE66E39C0B7
:100A0E0000F03AC001F098EC00F00050FE0A01E050
:100A1E00F0D704016C6B6D6B020E6D5D02E1000E82
:100A2E006C5D1CE26C516A25726F6D516B21736F98
:100A3E003BC0E1FF3CC0E2FFFF0EE66E39C000F0A6
:100A4E003AC001F098EC00F072C4E1FF73C4E2FF0B
:100A5E0000C0E6FF04016C4B6D2BDED73BC0E1FFFF
:100A6E003CC0E2FFFF0EE66E39C000F03AC001F066
:100A7E0098EC00F03BC0E1FF3CC0E2FFFF0EE66EDB
:100A8E0039C000F03AC001F098EC00F00DEC01F026
:040A9E00006A1200D8
:100AA2000B0EBA6E700EB16E3D0EBC6E090EBB6EB1
:020AB200120030
:100AB400020E0401746F756B766B010E776F83DD24
:100AC4008BDC0050000A01E0FBD7746B756B766B0E
:080AD400010E776F78DD1200BE
:100ADC0070EC09F07F0EF116630E2B6E020E2C6E6D
:100AEC00276A10DE030E0B6E8A0E0C6E550E0D6E01
:100AFC000D2EFED70C2EFCD70B2EFAD700000000C3
:100B0C00956AC00E936E9494B886020EB06E080E61
:100B1C00AF6EAC84CBDDC60E0401666F120E676F30
:100B2C00000E686F9ADD00C066F401C067F473DDD7
:100B3C000D0E746F38DD0A0E0401746F34DDB4DFF2
:100B4C00AADF18DF8C9EC00EF21281A001D0FDD757
:100B5C000401850E666F120E676F000E686F7DDDE7
:100B6C0000C066F401C067F456DD0D0E746F1BDD1A
:100B7C000A0E0401746F17DD81A2D2D081B022D08D
:100B8C00080E0B6E9D0E0C6E050E0D6E0D2EFED707
:100B9C000C2EFCD70B2EFAD700000000010E2824D7
:100BAC00006E000E2920016E00C028F001C029F053
:100BBC00000E291802E1050E281804E1010E286E1A
:100BCC00000E296E000E291802E1010E2818010EE4
:100BDC00D8A4000E016E000E291803E12850040160
:100BEC006319000ED8A4010E006E0150001615E01A
:100BFC000401CE0E666F120E676F000E686F2DDD4E
:100C0C0000C066F401C067F406DD0D0E746FCBDC1A
:100C1C000A0E0401746FC7DC80D0000E291802E1A3
:100C2C00020E2818010ED8A4000E016E000E291811
:100C3C0003E1285004016319000ED8A4010E006EC4
:100C4C000150001615E00401DA0E666F120E676F84
:100C5C00000E686F02DD00C066F401C067F4DBDCD7
:100C6C000D0E746FA0DC0A0E0401746F9CDC55D061
:100C7C00000E291802E1030E2818010ED8A4000E4C
:100C8C00016E000E291803E1285004016319000EAF
:100C9C00D8A4010E006E0150001615E00401AB0E35
:100CAC00666F120E676F000E686FD7DC00C066F4BB
:100CBC0001C067F4B0DC0D0E746F75DC0A0E040114
:100CCC00746F71DC2AD0000E291802E1040E28186A
:100CDC00010ED8A4000E016E000E291803E1285055
:100CEC0004016319000ED8A4010E006E0150001609
:100CFC0014E00401620E666F120E676F000E686FCF
:100D0C00ACDC00C066F401C067F485DC0D0E746FBA
:100D1C004ADC0A0E0401746F46DC28C063F42CD73D
:100D2C00000E291802E1010E2818D8A40ED1BE0E0F
:100D3C000401666F120E676F000E686F8EDC00C0C8
:100D4C0066F401C067F467DC0D0E746F2CDC0A0EC0
:100D5C000401746F28DC630E2B6E020E2C6E256A58
:100D6C00266A1B6A1C6A1D6A1E6A1F6A010ECD6EFA
:100D7C0081A091D01F50010AD8A48CD01F6A275291
:100D8C0044E01BC004F01CC005F01DC006F01EC0E2
:100D9C0007F0010E1B24006E000E1C20016E000ECD
:100DAC001D20026E000E1E20036E00C01BF001C041
:100DBC001CF002C01DF003C01EF004C066F405C098
:100DCC0067F406C068F407C069F4630E04016A6F27
:100DDC00020E6B6F0ADD0050000A16E0930E040140
:100DEC00666F120E676F000E686F37DC00C066F41A
:100DFC0001C067F410DC0D0E746FD9EC02F00A0E12
:100E0C000401746FD9EC02F045D01BC004F01CC077
:100E1C0005F01DC006F01EC007F0010E1B24006E6D
:100E2C00000E1C20016E000E1D20026E000E1E20F6
:100E3C00036E00C01BF001C01CF002C01DF003C00B
:100E4C001EF004C066F405C067F406C068F407C061
:100E5C0069F44B0E04016A6F000E6B6FC6DC005018
:100E6C00000A18E0930E0401666F120E676F000EF5
:100E7C00686F33EC03F000C066F401C067F411EC4A
:100E8C0003F00D0E746FD9EC02F00A0E0401746FAE
:100E9C00D9EC02F06DD7CD900D0E0B6EAF0E0C6E23
:100EAC00B60E0D6E0D2EFED70C2EFCD70B2EFAD7D0
:100EBC0000001BC066F41CC067F43D0E0401686F93
:100ECC00000E696F25DCD50E666F120E676F000E73
:100EDC00686F33EC03F000C066F401C067F411ECEA
:100EEC0003F00D0E746FD9EC02F00A0E0401746F4E
:100EFC00D9EC02F03D0E0401666F000E676F11EC29
:100F0C0003F00D0E746FD9EC02F00A0E0401746F2D
:100F1C00D9EC02F020C066F421C067F43D0E040148
:100F2C00686F000E696F8EEC03F03D0E666F000E5D
:100F3C00676F11EC03F00D0E746FD9EC02F00A0E12
:100F4C000401746FD9EC02F078D1000E291802E17B
:100F5C00020E2818D8A40AD1B60E0401666F120E20
:100F6C00676F000E686F33EC03F000C066F401C0CD
:100F7C0067F411EC03F00D0E746FD9EC02F00A0E4D
:100F8C000401746FD9EC02F0630E2B6E020E2C6E02
:100F9C00256A266A1B6A1C6A1D6A1E6A1F6A276AF2
:100FAC001BC066F41CC067F41DC068F41EC069F455
:100FBC00630E04016A6F020E6B6FE3DC0050000AD3
:100FCC0018E04A0E0401666F120E676F000E686F10
:100FDC0033EC03F000C066F401C067F411EC03F0CD
:100FEC000D0E746FD9EC02F00A0E0401746FD9EC7B
:100FFC0002F0CD8081A093D01F50010AD8A48ED0CE
:10100C001F6A275246E01BC004F01CC005F01DC02F
:10101C0006F01EC007F0010E1B24006E000E1C20F3
:10102C00016E000E1D20026E000E1E20036E00C00D
:10103C001BF001C01CF002C01DF003C01EF004C068
:10104C0066F405C067F406C068F407C069F4630E63
:10105C0004016A6F020E6B6F94DC0050000A18E0FA
:10106C00A00E0401666F120E676F000E686F33ECF2
:10107C0003F000C066F401C067F411EC03F00D0E30
:10108C00746FD9EC02F00A0E0401746FD9EC02F003
:10109C0045D01BC004F01CC005F01DC006F01EC0DE
:1010AC0007F0010E1B24006E000E1C20016E000EBA
:1010BC001D20026E000E1E20036E00C01BF001C02E
:1010CC001CF002C01DF003C01EF004C066F405C085
:1010DC0067F406C068F407C069F44B0E04016A6F2C
:1010EC00000E6B6F4EDC0050000A18E0A00E0401DD
:1010FC00666F120E676F000E686F33EC03F000C062
:10110C0066F401C067F411EC03F00D0E746FD9ECAA
:10111C0002F00A0E0401746FD9EC02F06BD7CD907B
:10112C000D0E0B6EAF0E0C6EB60E0D6E0D2EFED799
:10113C000C2EFCD70B2EFAD70000D50E0401666FCF
:10114C00120E676F000E686F33EC03F000C066F48C
:10115C0001C067F411EC03F00D0E746FD9EC02F0C2
:10116C000A0E0401746FD9EC02F067D0000E291836
:10117C0002E1030E281861E10401646B656B020E39
:10118C00655D02E1000E645D11E2630E6425E16EA3
:10119C00020E6521E26EE66A4B0E6425E16E000ECE
:1011AC006521E26EE66A644B652BE9D7050E666F26
:1011BC00000E676F686F696F630E6A6F020E6B6F5C
:1011CC00C7EC04F00A0E0401666F000E676F686FBF
:1011DC00696F4B0E6A6F000E6B6FC7EC04F0040165
:1011EC00646B656B020E655D02E1000E645D25E2C9
:1011FC00630E6425E96E020E6521EA6EEECF00F0F7
:10120C0000C066F4000E676F3D0E686F000E696FCC
:10121C008EEC03F03D0E666F000E676F11EC03F061
:10122C000D0E746FD9EC02F00A0E0401746FD9EC38
:0E123C0002F00401644B652BD5D787D4FFD791
:1012E00010EE1BF0100E006E010E016E750EF66E04
:0E12F000120EF76E000EF86E2BEC03F01200DB
:10124A00496E697469616C20627566666572696E59
:08125A0067206572726F7200DB
:101262004368616E67652073616D706C65207261A1
:03127200746500A0
:041275000000000075
:011279000074
:04127A000000000070
:01127E00006F
:02127F0000006D
:01128100006C
:0212820000006A
:011284000069
:0E12850053656C6563742061206D656E7500A5
:0D1293005772697465206572726F722100D8
:0B12A00052656164206572726F72007D
:0B12AB00547261636B206C6973740067
:0812B60052656164696E670076
:0812BE0057726974696E670044
:0812C60057656C636F6D650054
:0712CE005265636F726400BA
:0512D500446F6E65008E
:0512DA00506C61790079
:020000040030CA
:0D000100021F1EFF8381FF0FC00FE00F40A4
:00000001FF
