:1000000002EF0AF00000000000EF00F00000000026
:0A0010000000000000000000F3D71C
:0E001C00ACB202D00000FCD70DC2ADFF120046
:10002A000DC2C9FFC7B002D00000FCD7C9CF00F08B
:02003A001200B2
:10003C000CC2C9FFC7B002D00000FCD7C9CF00F07A
:02004C001200A0
:10004E00F250026EF29E0500FF6A0150FE6E0050E5
:08005E00FD6E02BEF28E1200DD
:10006600086A096A100E0C6E013408360936045007
:10007600085E0550D8A0053C095ED8B007D00450EC
:1000860008260550D8B0053C0926D890003601361A
:060096000C2EEAD7120057
:10009C000201096B050E095D0AE209510725E16EA3
:1000AC00000E0821E26E200EE66E092BF3D70951E3
:1000BC000725E16E000E0821E26EE66A0907095178
:1000CC0007250A6F000E08210B6F0A0E046E000E36
:1000DC00056E05C200F006C201F0BFDF08C000F0DB
:1000EC0009C001F0300E00260AC2E1FF0BC2E2FF8C
:1000FC0000C0E6FF0A0E046E000E056E05C200F08D
:10010C0006C201F0AADF00C005F201C006F2000E23
:10011C00011802E1000E001801E102D00907CFD747
:02012C001200BF
:10012E00DFC1E1FFE0C1E2FF05C2E6FFDDC100F085
:08013E00DEC101F085DF1200B3
:10014600FF0E02010D6F6EDF400E020105110D6FED
:1001560069DF09C200F0016A026A036A00C00DF293
:1001660061DF08C200F009C201F0026A036A00C03A
:100176000DF258DF07C200F008C201F009C202F012
:10018600036A00C00DF24EDF06C20DF24BDF0AC253
:100196000DF248DFFF0E02010C6F4DDF00C0B9F112
:0201A600120045
:1001A8000B6A0A6A096A086A0E6A03340836045038
:1001B800085E0550D8A0053C095E0650D8A0063C4C
:1001C8000A5E0750D8A0073C0B5EE86AD8A0010E6B
:1001D8000E5E0336070E0C6E0334083609360A36EF
:1001E8000B360E36045003A012D0085E0550D8A076
:1001F800053C095E0650D8A0063C0A5E0750D8A008
:10020800073C0B5EE86AD8A0010E0E5E11D00826E6
:100218000550D8B0053C09260650D8B0063C0A2639
:100228000750D8B0073C0B26E86AD8B0010E0E2656
:1002380003360C2ED1D70234083609360A360B3667
:100248000E36045003A012D0085E0550D8A0053C15
:10025800095E0650D8A0063C0A5E0750D8A0073CA5
:100268000B5EE86AD8A0010E0E5E11D00826055074
:10027800D8B0053C09260650D8B0063C0A260750D7
:10028800D8B0073C0B26E86AD8B0010E0E26023615
:10029800070E0C6E0234083609360A360B360E364F
:1002A800045002A012D0085E0550D8A0053C095E93
:1002B8000650D8A0063C0A5E0750D8A0073C0B5E43
:1002C800E86AD8A0010E0E5E11D008260550D8B0F5
:1002D800053C09260650D8B0063C0A260750D8B077
:1002E800073C0B26E86AD8B0010E0E2602360C2E03
:1002F800D1D70134083609360A360B360E36045083
:1003080002A012D0085E0550D8A0053C095E065030
:10031800D8A0063C0A5E0750D8A0073C0B5EE86AE6
:10032800D8A0010E0E5E11D008260550D8B0053CA5
:1003380009260650D8B0063C0A260750D8B0073C14
:100348000B26E86AD8B0010E0E260136070E0C6E91
:100358000134083609360A360B360E36045001A029
:1003680012D0085E0550D8A0053C095E0650D8A0FA
:10037800063C0A5E0750D8A0073C0B5EE86AD8A086
:10038800010E0E5E11D008260550D8B0053C09268E
:100398000650D8B0063C0A260750D8B0073C0B26B2
:1003A800E86AD8B0010E0E2601360C2ED1D70034DB
:1003B800083609360A360B360E36045001A012D01C
:1003C800085E0550D8A0053C095E0650D8A0063C3A
:1003D8000A5E0750D8A0073C0B5EE86AD8A0010E59
:1003E8000E5E11D008260550D8B0053C09260650E7
:1003F800D8B0063C0A260750D8B0073C0B26E86A56
:10040800D8B0010E0E260036070E0C6E00340836E2
:1004180009360A360B360E36045000A012D0085E94
:100428000550D8A0053C095E0650D8A0063C0A5ED7
:100438000750D8A0073C0B5EE86AD8A0010E0E5EF4
:1004480011D008260550D8B0053C09260650D8B06A
:10045800063C0A260750D8B0073C0B26E86AD8B0F5
:10046800010E0E2600360C2ED1D700B00ED0045047
:1004780008260550D8B0053C09260650D8B0063CD9
:0C0488000A260750D8B0073C0B261200D3
:10049400A69C05C2A9FFA69EA680A8CF00F01200C4
:1004A400A6A202D00000FCD7A69C05C2A9FF06C2E2
:1004B400A8FFA69EA684F2CF00F0F29E550EA76E6A
:1004C400AA0EA76EA68200BE02D0F29E01D0F28EC2
:0404D400A6941200D8
:0E04D800C282C2A201D0FDD7C4CF00F0120034
:1004E6000101FA6BFB6BFC6BFD6B0201016B026B8E
:1004F600036B046B0101F705F96FF937F991F937C9
:10050600F991F937F991F851000A50E1F951010FC3
:100516000201056FBCDF020E0101F9250201056F1C
:10052600B6DF046A056A04C000F005C001F0000EDB
:10053600026E036E00500101FA130150FB130250C4
:10054600FC130350FD13030EF9250201056F9FDF0F
:1005560000C005F0046A04C000F005C001F0000EFA
:10056600026E036E00500101FA130150FB13025094
:10057600FC130350FD13040EF9250201056F87DFF6
:10058600000E016E026E036E0101FA510012FB515C
:100596000112FC510212FD51031200C0FAF101C012
:1005A600FBF102C0FCF103C0FDF156D0F851010A7F
:1005B6004FE1050EF9250201056F69DF060E0101FF
:1005C600F9250201056F63DF046A056A04C000F0BD
:1005D60005C001F0000E026E036E005001130150BB
:1005E60002130250031303500413070E0101F925E9
:1005F6000201056F4CDF00C005F0046A04C000F07C
:1006060005C001F0000E026E036E0050011301508A
:1006160002130250031303500413080E0101F925B7
:100626000201056F34DF000E016E026E036E01518A
:10063600001202510112035102120451031200C0AA
:1006460001F201C002F202C003F203C004F204D0B8
:0A065600006A016A026A036A1200DA
:100660000101FD6BFE6B000EFE5D02E10A0EFD5DF9
:100670000BE2FD51FB25E16EFE51FC21E26E200EE6
:10068000E66EFD4BFE2BEFD7FD51FB25E16EFE51D3
:10069000FC21E26EE66A010EFD5F000EFE5BFD517D
:1006A000FB25FF6FFE51FC210201006F0A0E046E54
:1006B000000E056E066E076EF7C100F0F8C101F07E
:1006C000F9C102F0FAC103F06FDD08C000F009C003
:1006D00001F00AC002F00BC003F0300E0026FFC18B
:1006E000E1FF00C2E2FF00C0E6FF0A0E046E000E4A
:1006F000056E066E076EF7C100F0F8C101F0F9C192
:1007000002F0FAC103F050DD00C0F7F101C0F8F1CA
:1007100002C0F9F103C0FAF1000E046E031808E1FB
:100720000450021805E10450011802E10050000ACB
:1007300001E106D0010E0101FD5F000EFE5BAFD7A7
:020740001200A5
:100742000101FD6BFE6BF7C101F2F8C102F2800EEE
:10075200F819006E800E005C02E1000EF75D0CE2FB
:10076200010EFD6F000EFE6FF75100080201016FCE
:10077200F8C102F2000E025701C205F202C206F2ED
:10078200F9C107F2FAC108F288DC060E0101FB6F1B
:10079200000EFC6F000E006EFC51005C02E1FB518A
:1007A200000819E2FB51F925E16EFC51FA21E26ED3
:1007B200010EFB5D006E000EFC59016E0050F92522
:1007C200E96E0150FA21EA6EEECFE6FF010EFB5F01
:1007D200000EFC5BDFD7F9C1E1FFFAC1E2FF200E98
:1007E200E66EFD51FE111AE0FB6BFC6BFB51F92525
:1007F200E96EFC51FA21EA6EEE50200A03E1FB4B4E
:10080200FC2BF4D7010EFB5F000EFC5BFB51F925BC
:0E081200E16EFC51FA21E26E2D0EE66E120030
:100820000101FC6BFF0E02010D6F15EC00F0FF0ED5
:1008300002010C6F03DC00C0B9F10101B951FF0ADC
:10084000F6E1400EF71102010D6F15EC00F0FBC14F
:1008500000F0016A026A036A00C00DF215EC00F0B4
:10086000FAC100F0FBC101F0026A036A00C00DF298
:1008700015EC00F0F9C100F0FAC101F0FBC102F083
:10088000036A00C00DF215EC00F0F8C10DF215EC92
:1008900000F0950E02010D6F15EC00F0FF0E020145
:1008A0000C6F1EEC00F000C0B9F10A0E0101FC5DF6
:1008B0000EE2B951000A01E10AD0FF0E02010C6FED
:1008C0001EEC00F000C0B9F10101FC2BEED70A0EBE
:0E08D000FC5D03E3010E006E01D0006A120011
:1008DE000101FA6BF7C1E9FFF8C1EAFFEECFF9F1BA
:1008EE00F951000A0EE0F9C105F21ADC0101FA2BEA
:1008FE00FA51F725E96E000EF821EA6EEECFF9F106
:04090E00EFD712000D
:100912003C0E0101D56F000ED66F0C0ED76F020E82
:10092200D86F2A0ED16F000ED26F0D0ED36F020E4A
:10093200D46F949AF751040A02E1948601D09496F6
:100942009488C66AF751C612F951C612F851C712F5
:10095200F95305E0FA51000AD8B4C78C03D0FA5310
:08096200D8A4C78CC68A12005C
:10096A000201056B92DD00C0E2F1E00E0101E21521
:10097A00026E050E006E02C001F0005004E0013262
:10098A00019EFF0FFBD70150050A07E00201056B24
:10099A00A00E066F82DD006A05D01F0E0101E21764
:0609AA00E2C100F01200A2
:1009B0000101F86B0D0E0C6EFB0E0D6E0D2EFED7A9
:1009C0000C2EFCD7000000008B84F76B0A0EF75D3D
:1009D00008E2FF0E02010D6F15EC00F00101F72B8C
:1009E000F5D78B94070E0C6E7D0E0D6E0D2EFED777
:1009F0000C2EFCD70201056B066B076B086B096BAD
:100A0000950E0A6FA3EC00F00101B86BB951010A11
:100A100011E00A0EB85D0EE2FF0E02010C6F1EEC33
:100A200000F000C0B9F10101B851010F006E00C023
:100A3000B8F1ECD70A0EB85D02E3010EF86F010EB3
:100A40000201056F066B076B086B096BFF0E0A6FDF
:100A5000A3EC00F00101B86BB951000A22E0800E4E
:100A6000006E800E030A005C02E1E80EB85D19E238
:100A7000010E0201056F066B076B086B096BFF0E19
:100A80000A6FA3EC00F0FF0E02010C6F1EEC00F0E9
:100A900000C0B9F10101B851010F006E00C0B8F1FA
:100AA000DBD7800E006E800E030A005C02E1E80EC8
:100AB000B85D02E3020EF86F100E0201056F000E22
:100AC000066F020E076F000E086F096FFF0E0A6FA8
:100AD000A3EC00F00101B86BB951000A17E0800ED9
:100AE000006E800E030A005C02E1E80EB85D0EE2C3
:100AF000FF0E02010C6F1EEC00F000C0B9F1010105
:100B0000B851010F006E00C0B8F1E6D7800E006E3C
:100B1000800E030A005C02E1E80EB85D02E3030EFA
:080B2000F86FF8C100F01200AB
:100B28000900F5CFE6FF0006FBE10106F9E1120036
:100B3800010E0101E66FE56B83A603D083A401D003
:100B480001D0FAD72B0EF76F000EF86FC4DE0D0E2A
:100B58000201056F97EC00F00A0E0201056F97EC91
:100B680000F083A67FD083B415D0080E0B6E9D0EBF
:100B78000C6E050E0D6E0D2EFED70C2EFCD70B2E0F
:100B8800FAD7000000000101E62BE651040A02E151
:100B9800010EE66F0101E651010A010ED8A4000E0C
:100BA800016EE551E619000ED8A4010E006E015041
:100BB800001612E0410EF76F000EF86F8CDE0D0E76
:100BC8000201056F97EC00F00A0E0201056F97EC21
:100BD80000F001019E6B43D0E651020A010ED8A431
:100BE800000E016EE551E619000ED8A4010E006E44
:100BF8000150001613E0150EF76F000EF86F6BDE4C
:100C08000D0E0201056F97EC00F00A0E0201056F48
:100C180097EC00F0050E01019E6F21D0E651030A02
:100C2800010ED8A4000E016EE551E619000ED8A4F5
:100C3800010E006E0150001612E0200EF76F000E34
:100C4800F86F49DE0D0E0201056F97EC00F00A0EF1
:100C58000201056F97EC00F00A0E01019E6FE6C1D4
:0A0C6800E5F17FD79EC100F01200F5
:100C72000101EA6B020EF76FF86BF96B010EFA6F66
:100C820047DE95DE0050000A13E1E951010A0FE147
:100C9200560EF76F010EF86F21DE0D0E0201056F81
:100CA20097EC00F00A0E0201056F97EC00F016D0E7
:100CB2000101EA2BEA51320A10E11D0EF76F010E13
:100CC200F86F0CDE0D0E0201056F97EC00F00A0EB4
:100CD2000201056F97EC00F0FFD7D3D70101F76B44
:0C0CE200F86BF96B010EFA6F13DE1200C4
:100CEE001C0E0101DD6F000EDE6F0D0EDF6F020EAA
:100CFE00E06FFF0ED96FFF0EDA6F000EDB6F000E86
:100D0E00DC6FFF0EC86FFF0EC96F000ECA6F000EAC
:100D1E00CB6FFF0EC46FFF0EC56F000EC66F000EB9
:100D2E00C76FAC8A900EAB6E948E949C9EAA03D025
:080D3E00AECF00F0FBD712005C
:100D46000101F46BF56BF66B120EF76FE9C1F8F162
:100D5600EAC1F9F1EBC1FAF1ECC1FBF15EDD00523B
:100D660002E1F36B0AD0010EF36FF651010F006E2C
:100D760000C0F6F1320EF65DE7E3F353D8A4B1D026
:100D86000101000EF05D08E1000EEF5D05E1F55191
:100D9600EE5D02E1F451ED5D5AE3010EF425006EBD
:100DA600000EF521016E00C0F4F101C0F5F1FF0E51
:100DB60002010C6F1EEC00F000C0B9F10101B9513F
:100DC600FE0AF5E1F16BF26B020EF25D02E1000E36
:100DD600F15D2EE2FF0E02010C6F1EEC00F000C06A
:100DE6008AFF00018551000A05E1210E0D6E0D2EC8
:100DF600FED712D08551050A06E1290E0D6E0D2E7D
:100E0600FED7000009D085510A0A06E1310E0D6EA3
:100E16000D2EFED700000000010E0101F125006E27
:100E2600000EF221016E00C0F1F101C0F2F1CCD743
:100E3600FF0E02010C6F1EEC00F000C0B9F1FF0EB0
:100E460002010C6F1EEC00F000C0B9F199D70C0E30
:100E56000201056F066B076B086B096B950E0A6F2F
:100E6600A3EC00F00101B86BB951000A10E1A00E25
:100E7600F76F000EF86F30DD0D0E0201056F97EC6F
:100E860000F00A0E0201056F97EC00F010D0FF0E7D
:100E960002010C6F1EEC00F000C0B9F10101B8515F
:100EA600010F006E00C0B8F10A0EB85DDDE3FF0E5B
:100EB60002010C6F1EEC00F000C0B9F10101B9513E
:100EC600FF0AF5E1780EF76F000EF86F05DD0D0EDF
:100ED6000201056F97EC00F00A0E0201056F97EC10
:080EE60000F0F3C100F012005E
:100EEE000201056B4AEC02F03F0E00140101E36FA4
:100EFE00E3C100F0003600900036009000360090FE
:100F0E0000C0E1F1E151010F0201056FECC100F0EB
:100F1E00016A026A036A00C006F252EC02F0020E87
:100F2E000101E1250201056FEBC100F0ECC101F0FA
:100F3E00026A036A00C006F252EC02F0030E0101CF
:100F4E00E1250201056FEAC100F0EBC101F0ECC131
:100F5E0002F0036A00C006F252EC02F0040E010128
:100F6E00E1250201056FE9C106F252EC02F0050E11
:100F7E000101E1250201056FF0C100F0016A026A6C
:100F8E00036A00C006F252EC02F0060E0101E125E2
:100F9E000201056FEFC100F0F0C101F0026A036AB1
:100FAE0000C006F252EC02F0070E0101E12502012B
:100FBE00056FEEC100F0EFC101F0F0C102F0036A5F
:100FCE0000C006F252EC02F0080E0101E12502010A
:100FDE00056FEDC106F252EC02F00101E351010F73
:100FEE00006E00C0E3F1A00EE3130201056BE3C136
:080FFE0006F252EC02F01200B1
:101006000101EF6BF06B190EF76FE9C1F8F1EAC158
:10101600F9F1EBC1FAF1ECC1FBF110EC04F000526E
:1010260002E1F06B28D0010EF06F030E0B6E8A0EF4
:101036000C6E550E0D6E0D2EFED70C2EFCD70B2EFC
:10104600FAD700000000860EF76F000EF86F44DC3A
:101056000D0E0201056F97EC00F00A0E0201056FF6
:1010660097EC00F00101EF51010F006E00C0EFF1A7
:10107600320EEF5DC8E3F053D8A4F3D0FF0E0201A1
:101086000D6F15EC00F0FF0E02010D6F15EC00F070
:10109600FF0E02010D6F15EC00F00101B46BB56B8C
:1010A600B66BB76B0001836B846B83A4BDD0FC0E5B
:1010B60002010D6F15EC00F00101ED6BEE6B020EF7
:1010C600EE5D02E1000EED5D32E28B800000000075
:1010D6000000000000008B906CEC02F000C00DF2E6
:1010E60015EC00F00DD017D0080E0D6E0D2EFED7A4
:1010F60012D0100E0D6E0D2EFED700000CD00BD0A8
:1011060000018551000AEFE08551050AEDE08551A1
:101116000A0AEFE0F4D7010E0101ED25006E000E7C
:10112600EE21016E00C0EDF101C0EEF1C8D7FF0E51
:1011360002010D6F15EC00F0FF0E02010D6F15ECAC
:1011460000F00101B86B640EB85D29E2FF0E0201E2
:101156000C6F1EEC00F000C0B9F11F0E0101B915AD
:10116600016E0150050A15E1010EB425006E000E50
:10117600B521016E000EB621026E000EB721036E78
:1011860000C0B4F101C0B5F102C0B6F103C0B7F1B9
:1011960006D0B851010F006E00C0B8F1D4D7640E66
:1011A600B85D36E3B9C1F7F1000EF86FBA0EF96F04
:1011B600010EFA6FA1EC03F0BA0EF76F010EF86F8D
:1011C6006FEC04F00D0E0201056F97EC00F00A0EAD
:1011D6000201056F97EC00F0910E0101F76F000E0A
:1011E600F86F6FEC04F00D0E0201056F97EC00F03E
:1011F6000A0E0201056F97EC00F0010E000183252F
:10120600006E000E8421016E00C083F001C084F0E0
:10121600FF0E02010C6F1EEC00F000C0B9F10101D7
:10122600B951FF0AF5E141D7FD0E02010D6F15EC2C
:1012360000F0FF0E02010D6F15EC00F0FF0E02012B
:101246000C6F1EEC00F000C0B9F10101B951FF0AA4
:1012560008E0FF0E02010C6F1EEC00F000C0B9F1B1
:08126600F4D7F0C100F0120002
:10126E00B5EC04F000C0E9F10050000AD8B4B1D0DA
:10127E00510E0101F76F000EF86F6FEC04F00D0EBA
:10128E000201056F97EC00F00A0E0201056F97EC54
:10129E0000F0E9C1EBF1E9C1F7F1000E0101F86FC1
:1012AE00BA0EF96F010EFA6FA1EC03F0630EF76F31
:1012BE00000EF86F6FEC04F0BA0EF76F010EF86FB8
:1012CE006FEC04F00D0E0201056F97EC00F00A0EA4
:1012DE000201056F97EC00F0010E0101EA6FEA5171
:1012EE00EB5D66E3710EF76F000EF86F6FEC04F0B6
:1012FE00EAC1F7F1000EF86FBA0EF96F010EFA6F30
:10130E00A1EC03F0BA0EF76F010EF86F6FEC04F05C
:10131E005D0EF76F000EF86F6FEC04F0EAC1F7F197
:10132E00F86B73EC02F000C0F7F101C0F8F102C0E7
:10133E00F9F103C0FAF1BA0E0101FB6F010EFC6F59
:10134E0030EC03F0BA0E0101F76F010EF86F6FEC7F
:10135E0004F0600EF76F000EF86F6FEC04F0EAC148
:10136E00F7F1010EF86F73EC02F000C0F7F101C057
:10137E00F8F102C0F9F103C0FAF1BA0E0101FB6FE8
:10138E00010EFC6F30EC03F0BA0E0101F76F010E87
:10139E00F86F6FEC04F00D0E0201056F97EC00F084
:1013AE000A0E0201056F97EC00F00101EA2B97D7A8
:1013BE00B20EF76F000EF86F6FEC04F00D0E020117
:1013CE00056F97EC00F00A0E0201056F97EC00F026
:1013DE0011D0420E0101F76F010EF86F6FEC04F0A1
:1013EE000D0E0201056F97EC00F00A0E0201056F5B
:0613FE0097EC00F0120064
:1014040058EC0EF00101E86B0E0EC1122D0EC01245
:10141400C09EC280030E0B6E8A0E0C6E550E0D6EAE
:101424000D2EFED70C2EFCD70B2EFAD70000000091
:10143400FF0E956E928495849586936A946AB88615
:10144400020EB06E080EAF6EAC844FDC010EE96F75
:101454000EDC83A401D0FDD70101060EF76F010E47
:10146400F86F6FEC04F00D0E0201056F97EC00F0BD
:101474000A0E0201056F97EC00F083A6CBD083B46B
:1014840023D0080E0B6E9D0E0C6E050E0D6E0D2EE8
:10149400FED70C2EFCD70B2EFAD700000000010E4D
:1014A4000001F825006E000EF921016E00C0F8F06D
:1014B40001C0F9F0000EF91902E1050EF81904E172
:1014C400010EF86F000EF96F0001000EF91902E128
:1014D400010EF819010ED8A4000E016E000EF919C0
:1014E40003E1F8510101E719000ED8A4010E006EC2
:1014F4000150001612E00101FA0EF76F000EF86FAA
:101504006FEC04F00D0E0201056F97EC00F00A0E6B
:101514000201056F97EC00F07AD0000E0001F91972
:1015240002E1020EF819010ED8A4000E016E000E9D
:10153400F91903E1F8510101E719000ED8A4010ECD
:10154400006E0150001612E00101010EF76F010E4A
:10155400F86F6FEC04F00D0E0201056F97EC00F0CC
:101564000A0E0201056F97EC00F051D0000E000145
:10157400F91902E1030EF819010ED8A4000E016E48
:10158400000EF91903E1F8510101E719000ED8A47E
:10159400010E006E0150001612E00101EA0EF76F11
:1015A400000EF86F6FEC04F00D0E0201056F97EC5E
:1015B40000F00A0E0201056F97EC00F028D0000E2F
:1015C4000001F91902E1040EF819010ED8A4000E65
:1015D400016E000EF91903E1F8510101E719000E3B
:1015E400D8A4010E006E0150001611E00101C00ED6
:1015F400F76F000EF86F6FEC04F00D0E0201056F2B
:1016040097EC00F00A0E0201056F97EC00F0F8C0A9
:10161400E7F133D7000E0001F91902E1010EF819C0
:10162400D8A43BD1BE6BBF6BE20E0101F76F000E75
:10163400F86F6FEC04F00D0E0201056F97EC00F0EB
:101644000A0E0201056F97EC00F0816A010E010198
:10165400E96F39EC06F0CC6BCD6BCE6BCF6BB5EC90
:1016640004F000C0D0F10101D051000A05E1CC6BB7
:10167400CD6BCE6BCF6B3CD0010EE46FE451D05DEB
:1016840037E3E4C1F7F1010EF86F73EC02F000C028
:10169400F7F101C0F8F1BA0E0101F96F010EFA6F0A
:1016A400A1EC03F0BA0EF76F010EF86F6FEC04F0C3
:1016B4000D0E0201056F97EC00F00A0E0201056F92
:1016C40097EC00F0E4C1F7F1010E0101F86F73EC3F
:1016D40002F000500101CC270150CD230250CE234B
:1016E4000350CF23E451010F006E00C0E4F1C6D7CC
:1016F400090E006ECCC1E9F1CDC1EAF1CEC1EBF126
:10170400CFC1ECF1005007E0E937E991EA37EB3754
:10171400EC37FF0FF8D775DC005212E0D50E01014B
:10172400F76F000EF86F6FEC04F00D0E0201056FF9
:1017340097EC00F00A0E0201056F97EC00F0ACD0B4
:10174400140E0101F76F010EF86F6FEC04F00D0E2B
:101754000201056F97EC00F00A0E0201056F97EC89
:1017640000F0B4C1F7F1B5C1F8F1BA0E0101F96F97
:10177400010EFA6FA1EC03F0770EF76F010EF86F0C
:101784006FEC04F00D0E0201056F97EC00F00A0EE9
:101794000201056F97EC00F0BA0E0101F76F010E1C
:1017A400F86F6FEC04F00D0E0201056F97EC00F07A
:1017B4000A0E0201056F97EC00F083C0F7F184C0B4
:1017C400F8F1BA0E0101F96F010EFA6FA1EC03F002
:1017D400700EF76F010EF86F6FEC04F00D0E02013E
:1017E400056F97EC00F00A0E0201056F97EC00F00C
:1017F400BA0E0101F76F010EF86F6FEC04F00D0ED5
:101804000201056F97EC00F00A0E0201056F97ECD8
:1018140000F0CCC1F7F1CDC1F8F1CEC1F9F1CFC1DF
:10182400FAF1BA0E0101FB6F010EFC6F30EC03F00C
:10183400BA0E0101F76F010EF86F6FEC04F00D0E94
:101844000201056F97EC00F00A0E0201056F97EC98
:1018540000F0CCC1E9F1CDC1EAF1CEC1EBF1CFC1C9
:10186400ECF1B4C1EDF1B5C1EEF1B6C1EFF1B7C120
:10187400F0F177EC07F08D0E0101F76F010EF86FB0
:101884006FEC04F00D0E0201056F97EC00F00A0EE8
:101894000201056F97EC00F037D1000E0001F91931
:1018A40002E1020EF819D8A4FFD083B601D0FDD707
:1018B400800E0101F76F010EF86F6FEC04F00D0E4E
:1018C4000201056F97EC00F00A0E0201056F97EC18
:1018D40000F0B5EC04F000C0D0F101019F6BE46BA3
:1018E400D051000A47E083A645D083B422D0080E25
:1018F4000B6E9D0E0C6E050E0D6E01010D2EFDD7A7
:101904000C2EFBD70B2EF9D700000000E451010F79
:10191400006E00C0E4F1D051010F016E026A000EA6
:101924000222000E021802E10150E41902E1010E44
:10193400E46F0101E851E4191AE0E4C1F7F1000E83
:10194400F86FBA0EF96F010EFA6FA1EC03F0BA0E3C
:10195400F76F010EF86F6FEC04F00D0E0201056FC6
:1019640097EC00F00A0E0201056F97EC00F0E4C159
:10197400E8F1B9D7E4C19FF1650E0101F76F010EDB
:10198400F86F6FEC04F09FC1F7F1000EF86FBA0E18
:10199400F96F010EFA6FA1EC03F0BA0EF76F010EA6
:1019A400F86F6FEC04F00D0E0201056F97EC00F078
:1019B4000A0E0201056F97EC00F001019F51000A25
:1019C4006DE09FC1F7F1F86B73EC02F000C0CCF14D
:1019D40001C0CDF102C0CEF103C0CFF19FC1F7F138
:1019E400010E0101F86F73EC02F000C09AF101C01E
:1019F4009BF102C09CF103C09DF1000E006E010139
:101A04009D1908E100509C1905E100509B1902E161
:101A14009A51000A31E0090E006ECCC1E9F1CDC142
:101A2400EAF1CEC1EBF1CFC1ECF1005007E0E937A8
:101A3400E991EA37EB37EC37FF0FF8D79AC1EDF1AC
:101A44009BC1EEF19CC1EFF19DC1F0F1A3EC06F056
:101A5400005211E0360E0101F76F010EF86F6FECC2
:101A640004F00D0E0201056F97EC00F00A0E02015E
:101A7400056F97EC00F011D0A00E0101F76F010E75
:101A8400F86F6FEC04F00D0E0201056F97EC00F097
:101A94000A0E0201056F97EC00F000D083A403D076
:101AA40083A601D0FBD730D0000E0001F91902E162
:101AB400030EF81908E137EC09F083A403D083A6D8
:101AC40001D0FBD721D0000E0001F91902E1040E68
:101AD400F8191AE19CEC05F000C085F0AD0E010187
:101AE400F76F010EF86F6FEC04F00D0E0201056F35
:101AF40097EC00F00A0E0201056F97EC00F083A446
:0C1B040003D083A601D0FBD7A4D4FFD7E8
:101CB00010EE15F09F0E006E020E016E100EF66E05
:0E1CC0001B0EF76E000EF86E94EC05F012008D
:0B1B10002D2D203430204B737073002B
:0B1B1B002D2D203230204B7370730022
:101B260053656C6563742073616D706C696E6720B4
:061B3600726174653A00C3
:101B3C002D2D204D6178696D756D20726174650075
:0C1B4C00547261636B206C6973743A0082
:031B58003A200030
:031B5B0020200047
:0E1B5E00546F74616C20747261636B3A2000E6
:071B6C00547261636B20005D
:0B1B730043617264206672656521000A
:021B7E00000065
:011B80000064
:0B1B8100434D44206572726F7221001A
:0F1B8C00446174612072656A6563746564210049
:101B9B0053746F70706564205472616E73666572F6
:021BAB00210017
:0C1BAD002A2A2A20454E44202A2A2A0019
:021BB90000002A
:101BBB004368616E67652073616D706C696E672039
:051BCB00726174650069
:0D1BD0005772697465206572726F72210092
:081BDD0057726974696E67001C
:0E1BE500547261636B206C697374696E6700E3
:021BF3000000F0
:071BF5005265636F7264008A
:051BFC00506C6179004E
:0E1C010053656C6563742061204D656E75003F
:091C0F0053544F5050454421008C
:101C180043617264206572726F722C2043505520A4
:091C2800747261707065642100A2
:0C1C310052656164206572726F722100C0
:101C3D004E6F20747261636B20617661696C6162B5
:041C4D006C652100A1
:0F1C510043617264206465746563746564210087
:0B1C600053656C65637465643A2000F6
:071C6B004C6F73743A200076
:091C72005772697474656E3A0042
:0D1C7B00576869636820747261636B3F00F5
:0D1C8800547261636B206164646564210027
:041C9500000000004B
:011C9900004A
:011C9A000049
:0D1C9B00547261636B20656D7074792100D7
:071CA8005361766564210021
:020000040030CA
:0D000100021F1EFF8381FF0FC00FE00F40A4
:00000001FF
