:1000000088EF04F00000000000EF00F000000000A6
:0A0010000000000000000000F3D71C
:0E001C00ACB202D00000FCD73CC1ADFF120018
:10002A003CC1C9FFC7B002D00000FCD7C9CF00F05D
:02003A001200B2
:10003C00F250026EF29E0500FF6A0150FE6E0050F7
:08004C00FD6E02BEF28E1200EF
:10005400086A096A100E0C6E013408360936045019
:10006400085E0550D8A0053C095ED8B007D00450FE
:1000740008260550D8B0053C0926D890003601362C
:060084000C2EEAD7120069
:10008A0035C1C9FFC7B002D00000FCD7C9CF00F004
:02009A00120052
:10009C000FC1E1FF10C1E2FF35C1E6FF0DC100F059
:0800AC000EC101F0C5DF1200D6
:1000B4000101396B050E395D0AE239513725E16ECC
:1000C400000E3821E26E200EE66E392BF3D739513B
:1000D4003725E16E000E3821E26EE66A39073951A0
:1000E40037253A6F000E38213B6F0A0E046E000E5E
:1000F400056E35C100F036C101F0AADF08C000F07A
:1001040009C001F0300E00263AC1E1FF3BC1E2FF15
:1001140000C0E6FF0A0E046E000E056E35C100F045
:1001240036C101F095DF00C035F101C036F1000E93
:10013400011802E1000E001801E102D03907CFD7FF
:020144001200A7
:1001460001012E6B2BC1E9FF2CC1EAFFEECF2DF189
:100156002D51000A0EE02DC135F19DDF01012E2B38
:100166002E512B25E96E000E2C21EA6EEECF2DF1D5
:04017600EFD71200AD
:10017A000101316B326B2BC133F12CC134F1800E8A
:10018A002C19006E800E005C02E1000E2B5D0BE262
:10019A00010E316F000E326F2B510008336F2CC1E4
:1001AA0034F1000E345733C135F134C136F12DC163
:1001BA0037F12EC138F179DF060E2F6F000E306F3E
:1001CA00000E006E3051005C02E12F51000819E266
:1001DA002F512D25E16E30512E21E26E010E2F5D39
:1001EA00006E000E3059016E00502D25E96E015047
:1001FA002E21EA6EEECFE6FF010E2F5F000E305B76
:10020A00DFD72DC1E1FF2EC1E2FF200EE66E31518C
:10021A0032111AE02F6B306B2F512D25E96E3051B8
:10022A002E21EA6EEE50200A03E12F4B302BF4D731
:10023A00010E2F5F000E305B2F512D25E16E3051DC
:0A024A002E21E26E2D0EE66E12006A
:08025400C282C4CF00F01200C9
:10025C00FF0E01013C6FE3DE400E01012B113C6FE0
:10026C00DEDE2FC100F0016A026A036A00C03CF1B5
:10027C00D6DE2EC100F02FC101F0026A036A00C065
:10028C003CF1CDDE2DC100F02EC101F02FC102F0EA
:10029C00036A00C03CF1C3DE2CC13CF1C0DE30C1AE
:1002AC003CF1BDDEFF0E0101356FE9DE00C0FEF052
:0202BC0012002E
:1002BE000101306BFF0E3C6FB1DEFF0E0101356F99
:1002CE00DDDE00C0FEF00001FE51FF0AF6E1400E39
:1002DE0001012B113C6FA2DE2FC100F0016A026AF0
:1002EE00036A00C03CF19ADE2EC100F02FC101F06E
:1002FE00026A036A00C03CF191DE2DC100F02EC1EE
:10030E0001F02FC102F0036A00C03CF187DE2CC160
:10031E003CF184DE950E01013C6F80DEFF0E010183
:10032E00356FACDE00C0FEF00A0E0101305D0EE24C
:10033E000001FE51000A01E109D0FF0E0101356FE7
:10034E009DDE00C0FEF00101302BEED701010A0E3A
:0E035E00305D03E3010E006E01D0006A120054
:10036C008A0E0001FA6F000EFB6F350EFC6F010E4A
:10037C00FD6F2A0E0101016F000E026F3C0E036F20
:10038C00010E046F949A2051040A02E1948601D064
:10039C0094969488C66A2051C6122251C6122151D5
:1003AC00C712225305E02351000AD8B4C78C03D0DE
:0A03BC002353D8A4C78CC68A120090
:1003C6000900F5CFE6FF0006FBE10106F9E11200A0
:1003D6001C0E01010D6F000E0E6F3C0E0F6F010E0D
:1003E600106FFF0E096FFF0E0A6F000E0B6F000EE7
:1003F6000C6FFF0E056FFF0E066F000E076F000EE7
:10040600086FFF0E116FFF0E126F000E136F000EB6
:10041600146FAC8A900EAB6E948E949C9EAA03D0F9
:08042600AECF00F0FBD712007D
:10042E00190E01012B6F2C6B2D6B2E6B2F6B40DF7A
:10043E00005202E1236B0AD0010E236F2251010FED
:10044E00006E00C022F1320E225DEAE32353D8A4DF
:10045E00ABD0FF0E3C6FE2DDFF0E01013C6FDEDD27
:10046E00FF0E01013C6FDADD0001F86BF96B786A63
:10047E00796A83A480D0FC0E01013C6FCFDD0101AF
:10048E00206B216B020E215D02E1000E205D16E253
:10049E00DADE00C03CF1C2DD180E0D6E0D2EFED759
:1004AE0000000000010E01012025006E000E21212A
:1004BE00016E00C020F101C021F1E4D7FF0E3C6FA8
:1004CE00ADDDFF0E01013C6FA9DD0001FF6B1E0EBD
:1004DE00FF5D2CE2FF0E0101356FD0DD00C0FEF096
:1004EE001F0E0001FE15016E0150050A19E1690E7D
:1004FE0001012B6F000E2C6F1FDE0D0E356FC7DD49
:10050E000A0E0101356FC3DD010E0001F825006EE4
:10051E00000EF921016E00C0F8F001C0F9F006D00E
:10052E00FF51010F006E00C0FFF0D1D71E0EFF5D10
:10053E0017E32B0E01012B6F000E2C6FFDDD0D0E40
:10054E00356FA5DD0A0E0101356FA1DD010E782490
:10055E00006E000E7920016E00C078F001C079F0B7
:10056E00FF0E0101356F8ADD00C0FEF00001FE5165
:10057E00FF0AF6E17ED7FD0E01013C6F4FDDFF0E47
:10058E0001013C6F4BDDFF0E0101356F77DD00C0C1
:10059E00FEF00001FE51FF0A07E0FF0E0101356F6C
:0E05AE006DDD00C0FEF0F5D723C100F0120095
:1005BC000101296B2A6B0101FF0E356F60DD00C054
:1005CC00FEF00001FE51FF0AF6E1120E01012B6F45
:1005DC0027C02CF128C02DF129C02EF12AC02FF1F3
:1005EC00950E306F35DE0001FF6BFE51000A0EE1F7
:1005FC00150E01012B6F000E2C6F9FDD0D0E356F4C
:10060C0047DD0A0E0101356F43DD0FD0FF0E0101EE
:10061C00356F35DD00C0FEF00001FF51010F006E9B
:10062C0000C0FFF00A0EFF5DE0E300010A0EFF5D63
:10063C000EE3570E01012B6F000E2C6F7EDD0D0E9D
:10064C00356F26DD0A0E0101356F22DDFFD7000E56
:10065C0001012A5D02E10A0E295D5BE20101FF0E38
:10066C00356F0DDD00C0FEF00001FE51FE0AF6E113
:10067C000101206B216B020E215D02E1000E205D59
:10068C0031E2FF0E356FFBDC00C0FEF0FEC02BF13B
:10069C00000E01012C6F220E2D6F010E2E6F67DDE7
:1006AC00220E2B6F010E2C6F48DD0D0E356FF0DC1A
:1006BC000A0E0101356FECDC0D0E0C6EFB0E0D6E8F
:1006CC000D2EFED70C2EFCD700000000010E0101F0
:1006DC002025006E000E2121016E00C020F101C00A
:1006EC0021F1C9D7FF0E356FCADC00C0FEF0FF0E3A
:1006FC000101356FC4DC00C0FEF0010E010129259B
:10070C00006E000E2A21016E00C029F101C02AF1F1
:10071C009ED70C0E2B6F2C6B2D6B2E6B2F6B950E9F
:10072C00306F96DD0001FF6BFE51000A0EE1450EA5
:10073C0001012B6F000E2C6F00DD0D0E356FA8DC48
:10074C000A0E0101356FA4DC0FD0FF0E0101356FCD
:10075C0096DC00C0FEF00001FF51010F006E00C0DE
:10076C00FFF00A0EFF5DE0E3FF0E0101356F87DC41
:10077C0000C0FEF00001FE51FF0AF6E13A0E010145
:10078C002B6F000E2C6FD9DC0D0E356F81DC0A0E31
:08079C000101356F7DDC120044
:1007A4000101216B0D0E0C6EFB0E0D6E0D2EFED78E
:1007B4000C2EFCD7000000008B84206B0A0E205DF9
:1007C40006E2FF0E3C6F2FDC0101202BF7D78B9440
:1007D400070E0C6E7D0E0D6E0D2EFED70C2EFCD763
:1007E4002B6B2C6B2D6B2E6B2F6B950E306F34DDBA
:1007F4000001FF6BFE51010A10E00A0EFF5D0DE2DD
:10080400FF0E0101356F3FDC00C0FEF00001FF5117
:10081400010F006E00C0FFF0EDD70A0EFF5D03E389
:10082400010E0101216F0101010E2B6F2C6B2D6B49
:100834002E6B2F6BFF0E306F0FDD0001FF6BFE512F
:10084400000A20E0800E006E800E030A005C02E1C4
:10085400E80EFF5D17E2010E01012B6F2C6B2D6B6F
:100864002E6B2F6BFF0E306FF7DCFF0E0101356F1F
:100874000ADC00C0FEF00001FF51010F006E00C051
:10088400FFF0DDD7800E006E800E030A005C02E1EB
:10089400E80EFF5D03E3020E0101216F0101100E5A
:1008A4002B6F000E2C6F020E2D6F000E2E6F2F6F0C
:1008B400FF0E306FD1DC0001FF6BFE51000A17E020
:1008C400800E006E800E030A005C02E1E80EFF5DFC
:1008D4000EE2FF0E0101356F45EC00F000C0FEF0A2
:1008E4000001FF51010F006E00C0FFF0E6D7800E3B
:1008F400006E800E030A005C02E1E80EFF5D03E374
:0C090400030E0101216F21C100F0120060
:100910009EEC06F001011F6B0E0EC1122D0EC012CF
:10092000C09EC280030E0B6E8A0E0C6E550E0D6EAD
:100930000D2EFED70C2EFCD70B2EFAD70000000090
:10094000F30E956E928495849586936A946AB88620
:10095000020EB06E080EAF6EAC843DDD020E206F4D
:10096000216B226B010E236F01DD1CDF0050000A9A
:1009700011E1D30E01012B6F000E2C6FA3EC00F0E0
:100980000D0E356F4EEC00F00A0E0101356F4EEC86
:1009900000F01AD001011F51010F006E00C01FF1BD
:1009A0001F51320A10E1A20E2B6F000E2C6FA3EC28
:1009B00000F00D0E356F4EEC00F00A0E0101356FA0
:1009C0004EEC00F0FFD7D1D70101206B216B226BD9
:1009D000010E236FCBDC83A401D0FDD70101840E6F
:1009E0002B6F000E2C6FA3EC00F00D0E356F4EEC4C
:1009F00000F00A0E0101356F4EEC00F083A677D0AF
:100A000083B423D0080E0B6E9D0E0C6E050E0D6E7A
:100A10000D2EFED70C2EFCD70B2EFAD700000000AF
:100A2000010E00018225006E000E8321016E00C0C0
:100A300082F001C083F0000E831902E1030E8219D7
:100A400004E1010E826F000E836F0001000E831916
:100A500002E1010E8219010ED8A4000E016E000EF3
:100A6000831903E1825101010019000ED8A4010E7F
:100A7000006E0150001611E001017A0E2B6F000E7E
:100A80002C6FA3EC00F00D0E356F4EEC00F00A0E4B
:100A90000101356F4EEC00F027D0000E00018319E4
:100AA00002E1020E8219010ED8A4000E016E000EA2
:100AB000831903E1825101010019000ED8A4010E2F
:100AC000006E0150001610E001019C0E2B6F000E0D
:100AD0002C6FA3EC00F00D0E356F4EEC00F00A0EFB
:100AE0000101356F4EEC00F082C000F187D7000E97
:100AF0000001831902E1010E8219D8A48BD09A6BF0
:100B00009B6B920E01012B6F000E2C6FA3EC00F07B
:100B10000D0E356F4EEC00F00A0E0101356F4EECF4
:100B200000F0816A84DC005211E0E20E01012B6FBB
:100B3000000E2C6FA3EC00F00D0E356F4EEC00F0A4
:100B40000A0E0101356F4EEC00F064D0EF0E01018A
:100B50002B6F000E2C6FA3EC00F00D0E356F4EECDA
:100B600000F00A0E0101356F4EEC00F0F8C02BF1D9
:100B7000F9C02CF1150E01012D6F010E2E6FBDEC89
:100B800000F0BB0E2B6F000E2C6FA3EC00F00D0ECF
:100B9000356F4EEC00F00A0E0101356F4EEC00F09F
:100BA000150E01012B6F010E2C6FA3EC00F00D0E42
:100BB000356F4EEC00F00A0E0101356F4EEC00F07F
:100BC00078C02BF179C02CF1150E01012D6F010EAB
:100BD0002E6FBDEC00F0C40E2B6F000E2C6FA3EC3B
:100BE00000F00D0E356F4EEC00F00A0E0101356F6E
:100BF0004EEC00F0150E01012B6F010E2C6FA3ECD3
:100C000000F00D0E356F4EEC00F00A0E0101356F4D
:100C10004EEC00F0000E0001831902E1020E821971
:100C200019E1CB0E01012B6F000E2C6FA3EC00F02D
:100C30000D0E356F4EEC00F00A0E0101356F4EECD3
:100C400000F000019A6B9B6BB9DC83A403D083A6F0
:080C500001D0FBD7C0D6FFD78D
:100D3C0010EE15F0E30E006E010E016E580EF66EFD
:0E0D4C000C0EF76E000EF86EE3EC01F01200D4
:100C5800436F6D6D616E6420616363657074656474
:020C6800210069
:040C6A000000000086
:0F0C6E00446174612072656A6563746564210076
:0B0C7D0043617264206672656521000F
:100C880053746F70706564205472616E7366657218
:020C9800210039
:100C9A00436F6D6D616E642052656A656374656445
:020CAA00210027
:0F0CAC0044617461206163636570746564210045
:020CBB00000037
:080CBD005265636F72640A00C6
:020CC50000002D
:0E0CC70053656C6563742061204D656E750089
:080CD50057726974696E670033
:020CDD00000015
:060CDF00506C61790A006F
:100CE50043617264206572726F722C2043505520E7
:090CF500747261707065642100E5
:090CFE005772697474656E3A00C6
:070D07004C6F73743A2000E9
:080D0E0052656164696E670023
:0F0D1600436172642064657465637465642100D1
:0D0D25005772697465206572726F7221004B
:090D320053544F50504544210078
:020000040030CA
:0D000100021F1EFF8381FF0FC00FE00F40A4
:00000001FF
