:100000002CEF04F00000000000EF00F00000000002
:0A0010000000000000000000F3D71C
:0E001C00ACB202D00000FCD729C1ADFF12002B
:10002A0029C1C9FFC7B002D00000FCD7C9CF00F070
:02003A001200B2
:10003C00F250026EF29E0500FF6A0150FE6E0050F7
:08004C00FD6E02BEF28E1200EF
:10005400086A096A100E0C6E013408360936045019
:10006400085E0550D8A0053C095ED8B007D00450FE
:1000740008260550D8B0053C0926D890003601362C
:060084000C2EEAD7120069
:10008A000BC1E1FF0CC1E2FF28C1E6FF09C100F084
:08009A000AC101F0CEDF1200E3
:1000A20028C1C9FFC7B002D00000FCD7C9CF00F0F9
:0200B20012003A
:1000B4000101266BFF0E296FB6DFFF0E0101286FC9
:1000C400EEDF00C0EEF00001EE51FF0AF6E1400E53
:1000D40001012111296FA7DF25C100F0016A026A1D
:1000E400036A00C029F19FDF24C100F025C101F09B
:1000F400026A036A00C029F196DF23C100F024C11B
:1001040001F025C102F0036A00C029F18CDF22C18D
:1001140029F189DF950E0101296F85DFFF0E0101A9
:10012400286FBDDF00C0EEF00A0E0101265D0EE26D
:100134000001EE51000A01E109D0FF0E0101286F10
:10014400AEDF00C0EEF00101262BEED701010A0E4E
:0E015400265D03E3010E006E01D0006A12006A
:100162000101256B050E255D0AE225512325E16E6D
:10017200000E2421E26E200EE66E252BF3D72551C8
:100182002325E16E000E2421E26EE66A2507255141
:100192002325266F000E2421276F0A0E046E000EFF
:1001A200056E21C100F022C101F053DF08C000F04A
:1001B20009C001F0300E002626C1E1FF27C1E2FF8F
:1001C20000C0E6FF0A0E046E000E056E21C100F0AB
:1001D20022C101F03EDF00C021F101C022F1000E78
:1001E200011802E1000E001801E102D02507CFD765
:0201F2001200F9
:1001F4000101246B21C1E9FF22C1EAFFEECF23F103
:100204002351000A0EE023C128F13DDF0101242B14
:1002140024512125E96E000E2221EA6EEECF23F14E
:04022400EFD71200FE
:10022800FF0E0101296FFDDE400E01012111296F2A
:10023800F8DE25C100F0016A026A036A00C029F1EC
:10024800F0DE24C100F025C101F0026A036A00C093
:1002580029F1E7DE23C100F024C101F025C102F035
:10026800036A00C029F1DDDE22C129F1DADE26C1E8
:1002780029F1D7DEFF0E0101286F0FDF00C0EEF075
:02028800120062
:10028A00A20E0101016F000E026F280E036F010E0C
:10029A00046F2A0E056F000E066F290E076F010EF6
:1002AA00086F949A1751040A02E1948601D0949631
:1002BA009488C66A1751C6121951C6121851C71224
:1002CA00195305E01A51000AD8B4C78C03D01A533F
:0802DA00D8A4C78CC68A1200EB
:1002E2000900F5CFE6FF0006FBE10106F9E1120085
:1002F2001C0E0101096F000E0A6F290E0B6F010E11
:100302000C6FFF0E0001F16FFF0EF26F000EF36F24
:10031200000EF46FFF0EF56FFF0EF66F000EF76F13
:10032200000EF86FFF0EF96FFF0EFA6F000EFB6FF3
:10033200000EFC6FAC8A900EAB6E948E949C9EAABB
:0A03420003D0AECF00F0FBD712008D
:10034C000101006B0D0E0C6EFB0E0D6E0D2EFED70B
:10035C000C2EFCD7000000008B840001FF6B0A0EF2
:10036C00FF5D07E2FF0E0101296F59DE0001FF2B33
:10037C00F6D78B94070E0C6E7D0E0D6E0D2EFED7E0
:10038C000C2EFCD70101216B226B236B246B256B8C
:10039C00950E266F43DF0001ED6BEE51010A10E064
:1003AC000A0EED5D0DE2FF0E0101286F74DE00C038
:1003BC00EEF00001ED51010F006E00C0EDF0EDD735
:1003CC000A0EED5D03E3010E0101006F0101010E48
:1003DC00216F226B236B246B256BFF0E266F1EDFA8
:1003EC000001ED6BEE51000A20E0800E006E800ED5
:1003FC00030A005C02E1E80EED5D17E2010E01015B
:10040C00216F226B236B246B256BFF0E266F06DF8F
:10041C00FF0E0101286F3FDE00C0EEF00001ED5130
:10042C00010F006E00C0EDF0DDD7800E006E800E67
:10043C00030A005C02E1E80EED5D03E3020E01012C
:10044C00006F0101100E216F000E226F020E236F40
:10045C00000E246F256FFF0E266FE0DE0001ED6BA2
:10046C00EE51000A16E0800E006E800E030A005C4E
:10047C0002E1E80EED5D0DE2FF0E0101286F0BDECF
:10048C0000C0EEF00001ED51010F006E00C0EDF068
:10049C00E7D7800E006E800E030A005C02E1E80EC6
:1004AC00ED5D03E3030E0101006F00C100F01200CB
:1004BC0001011D6B1E6B17C11FF118C120F1800EBD
:1004CC001819006E800E005C02E1000E175D0BE245
:1004DC00010E1D6F000E1E6F175100081F6F18C103
:1004EC0020F1000E20571FC121F120C122F119C1AA
:1004FC0023F11AC124F12FDE060E1B6F000E1C6FA8
:10050C00000E006E1C51005C02E11B51000819E248
:10051C001B511925E16E1C511A21E26E010E1B5D57
:10052C00006E000E1C59016E00501925E96E015029
:10053C001A21EA6EEECFE6FF010E1B5F000E1C5B6C
:10054C00DFD719C1E1FF1AC1E2FF200EE66E1D5183
:10055C001E111AE01B6B1C6B1B511925E96E1C51EB
:10056C001A21EA6EEE50200A03E11B4B1C2BF4D728
:10057C00010E1B5F000E1C5B1B511925E16E1C51FB
:0A058C001A21E26E2D0EE66E120039
:10059600190E0101216F226B236B246B256B87DDFE
:1005A600005202E1006B0BD0010E006F0001FF51FB
:1005B600010F006E00C0FFF0320EFF5DE9E301019E
:1005C6000053D8A49CD0FF0E296F2CDDFF0E01012D
:1005D600296F28DDFF0E0101296F24DD0001EF6B75
:1005E600F06B656A666A83A471D0FC0E0101296FFF
:1005F60019DD0101176B186B020E185D02E1000E82
:10060600175D15E217C129F10DDD180E0D6E0D2EC1
:10061600FED700000000010E01011725006E000E36
:100626001821016E00C017F101C018F1E5D7FF0EC1
:10063600296FF8DCFF0E0101296FF4DC0001ED6B78
:100646001E0EED5D1EE2FF0E0101286F27DD00C0C4
:10065600EEF01F0E0001EE15016E0150050A0BE1CA
:10066600010EEF25006E000EF021016E00C0EFF0C6
:1006760001C0F0F006D0ED51010F006E00C0EDF0A4
:10068600DFD71E0EED5D17E3810E0101216F000E0F
:10069600226FADDD0D0E286FF5DC0A0E0101286F05
:1006A600F1DC010E6524006E000E6620016E00C0AE
:1006B60065F001C066F0FF0E0101286FEFDC00C097
:1006C600EEF00001EE51FF0AF6E18DD7FD0E0101B5
:1006D600296FA8DCFF0E0101296FA4DCFF0E0101C2
:1006E600286FDCDC00C0EEF00001EE51FF0A07E0E7
:1006F600FF0E0101286FD2DC00C0EEF0F5D700C175
:0407060000F01200ED
:10070A000101196B1A6B006B120E216F226B236B9E
:10071A00246B256BCADC005203E10001FF6B0CD08D
:10072A000001010EFF6F01010051010F006E00C0B0
:10073A0000F1320E005DE8E30001FF53D8A484D033
:10074A0083A43FD0FF0E0101286FA6DC00C0EEF0A3
:10075A000001EE51FE0AF6E10101176B186B020E59
:10076A00185D02E1000E175D15E2FF0E286F94DC9A
:10077A0000C08AFF1C0E0D6E0D2EFED7010E010160
:10078A001725006E000E1821016E00C017F101C076
:10079A0018F1E5D7FF0E286F7FDC00C0EEF0FF0EE0
:1007AA000101286F79DC00C0EEF0010E0101192564
:1007BA00006E000E1A21016E00C019F101C01AF173
:1007CA00BFD701010C0E216F226B236B246B256BA3
:1007DA00950E266F24DD0001ED6BEE51000A0EE145
:1007EA00900E0101216F000E226FFFDC0D0E286FA3
:1007FA0047DC0A0E0101286F43DC0FD0FF0E01010E
:10080A00286F4ADC00C0EEF00001ED51010F006EC6
:10081A0000C0EDF00A0EED5DE0E3FF0E0101286F66
:10082A003BDC00C0EEF00001EE51FF0AF6E1670E74
:10083A000101216F000E226FD8DC0D0E286F20DC1B
:0E084A000A0E0101286F1CDCFFC000F0120036
:1008580072EC06F00001FE6B0E0EC1122D0EC012D6
:10086800C09EC280030E0B6E8A0E0C6E550E0D6E66
:100878000D2EFED70C2EFCD70B2EFAD70000000049
:10088800F30E956E928495849586936A946AB886D9
:10089800020EB06E080EAF6EAC8427DD020E0101A9
:1008A800176F186B196B010E1A6FEBDC4BDD0050DC
:1008B800000A10E1720E0101216F000E226F96DC12
:1008C8000D0E286F45EC00F00A0E0101286F45EC6B
:1008D80000F01AD00001FE51010F006E00C0FEF0BA
:1008E800FE51320A10E11F0E0101216F000E226F26
:1008F8007DDC0D0E286F45EC00F00A0E0101286F13
:1009080045EC00F0FFD7D2D70101176B186B196BB4
:10091800010E1A6FB6DC83A401D0FDD70101380E91
:10092800216F000E226F62DC0D0E286F45EC00F07F
:100938000A0E0101286F45EC00F083A673D083B43A
:1009480022D0080E0B6E9D0E0C6E050E0D6E0D2E30
:10095800FED70C2EFCD70B2EFAD700000000010E94
:100968001524006E000E1620016E00C015F001C09F
:1009780016F0000E161802E1030E151804E1010E18
:10098800156E000E166E000E161802E1010E1518EF
:10099800010ED8A4000E016E000E161803E11550C2
:1009A8000001FD19000ED8A4010E006E01500016BA
:1009B80010E0170E0101216F000E226F17DC0D0EDB
:1009C800286F45EC00F00A0E0101286F45EC00F095
:1009D80026D0000E161802E1020E1518010ED8A432
:1009E800000E016E000E161803E115500001FD19E6
:1009F800000ED8A4010E006E0150001610E05D0E26
:100A08000101216F000E226FFAEC00F00D0E286F25
:100A180045EC00F00A0E0101286F45EC00F015C006
:100A2800FDF08BD7000E161802E1010E1518D8A498
:100A3800C9D0636A646A460E0101216F000E226FF5
:100A4800FAEC00F00D0E286F45EC00F00A0E0101DB
:100A5800286F45EC00F0816A020E0101176F186BD0
:100A6800196B010E1A6F0DDC6DDC0050000A11E1E4
:100A78004E0E0101216F000E226FFAEC00F00D0EF0
:100A8800286F45EC00F00A0E0101286F45EC00F0D4
:100A98001BD00001FE51010F006E00C0FEF0FE5198
:100AA800320A11E1B80E0101216F000E226FFAEC33
:100AB80000F00D0E286F45EC00F00A0E0101286FBA
:100AC80045EC00F0FFD7D0D70101176B186B196BF5
:100AD800010E1A6F45EC01F05ADD005211E0AB0E21
:100AE8000101216F000E226FFAEC00F00D0E286F45
:100AF80045EC00F00A0E0101286F45EC00F062D0C9
:100B0800A20E0101216F000E226FFAEC00F00D0E0B
:100B1800286F45EC00F00A0E0101286F45EC00F043
:100B2800EFC017F1F0C018F10D0E0101196F010E99
:100B38001A6FC0DCD10E216F000E226FFAEC00F0A4
:100B48000D0E286F45EC00F00A0E0101286F45ECE8
:100B580000F00D0E0101216F010E226FFAEC00F07A
:100B68000D0E286F45EC00F00A0E0101286F45ECC8
:100B780000F065C017F166C018F10D0E0101196F7C
:100B8800010E1A6F97DCE60E216F000E226FFAEC49
:100B980000F00D0E286F45EC00F00A0E0101286FD9
:100BA80045EC00F00D0E0101216F010E226FFAECE9
:100BB80000F00D0E286F45EC00F00A0E0101286FB9
:100BC80045EC00F0000E161802E1020E151818E1A7
:100BD80098DD005210E0DA0E0101216F000E226F3D
:100BE800FAEC00F00D0E286F45EC00F00A0E01013A
:100BF800286F45EC00F083A403D083A601D0FBD76F
:040C08008AD6FFD7B2
:100CE40010EE15F0D80E006E010E016E0C0EF66EAD
:0E0CF4000C0EF76E000EF86E71EC01F012009F
:020C0C000000E6
:080C0E005265636F72640A0075
:100C160043617264206572726F722C2043505520B6
:090C2600747261707065642100B4
:0E0C2F0053656C6563742061204D656E750021
:080C3D0057726974696E6700CB
:0F0C4500436172642064657465637465642100A3
:060C5400506C61790A00FA
:020C5A00000098
:020C5C00000096
:0B0C5E0043617264206672656521002E
:0F0C69004361726420646574656374656421007F
:0F0C7800446174612072656A656374656421006C
:100C870053746F70706564205472616E7366657219
:020C970021003A
:090C990053544F50504544210012
:0D0CA2005772697465206572726F722100CF
:100CAF0043617264206572726F722C20435055201D
:090CBF007472617070656421001B
:090CC8005772697474656E3A00FC
:0C0CD10052656164206572726F72210030
:070CDD004C6F73743A200014
:020000040030CA
:0D000100021F1EFF8381FF0FC00FE00F40A4
:00000001FF
