:100000004EEF05F00000000000EF00F000000000DF
:0A0010000000000000000000F3D71C
:0E001C00ACB202D00000FCD786C1ADFF1200CE
:10002A0086C1C9FFC7B002D00000FCD7C9CF00F013
:02003A001200B2
:10003C00F250026EF29E0500FF6A0150FE6E0050F7
:08004C00FD6E02BEF28E1200EF
:10005400086A096A100E0C6E013408360936045019
:10006400085E0550D8A0053C095ED8B007D00450FE
:1000740008260550D8B0053C0926D890003601362C
:060084000C2EEAD7120069
:10008A0057C1E1FF58C1E2FF85C1E6FF55C100F043
:08009A0056C101F0CEDF120097
:1000A2000101826B050E825D0AE282518025E16EBA
:1000B200000E8121E26E200EE66E822BF3D7825172
:1000C2008025E16E000E8121E26EE66A820782518E
:1000D2008025836F000E8121846F0A0E046E000E4C
:1000E200056E7EC100F07FC101F0B3DF08C000F0F1
:1000F20009C001F0300E002683C1E1FF84C1E2FF96
:1001020000C0E6FF0A0E046E000E056E7EC100F00E
:100112007FC101F09EDF00C07EF101C07FF1000EC1
:10012200011802E1000E001801E102D08207CFD7C8
:020132001200B9
:100134000101816B7EC1E9FF7FC1EAFFEECF80F14F
:100144008051000A0EE080C185F19DDF0101812B01
:1001540081517E25E96E000E7F21EA6EEECF80F19B
:04016400EFD71200BF
:100168007EC1C9FFC7B002D00000FCD7C9CF00F0DC
:02017800120073
:10017A0001017A6B7B6B74C17CF175C17DF1800ED4
:10018A007519006E800E005C02E1000E745D0BE2D0
:10019A00010E7A6F000E7B6F745100087C6F75C177
:1001AA007DF1000E7D577CC17EF17DC17FF176C164
:1001BA0080F177C181F170DF060E786F000E796FDA
:1001CA00000E006E7951005C02E17851000819E2D4
:1001DA0078517625E16E79517721E26E010E785DCC
:1001EA00006E000E7959016E00507625E96E0150B5
:1001FA007721EA6EEECFE6FF010E785F000E795B9B
:10020A00DFD776C1E1FF77C1E2FF200EE66E7A51B1
:10021A007B111AE0786B796B78517625E96E795102
:10022A007721EA6EEE50200A03E1784B792BF4D756
:10023A00010E785F000E795B78517625E16E79516F
:0A024A007721E26E2D0EE66E120021
:10025400680E0101636F010E646F7E0E656F010EFF
:10026400666F2A0E5F6F000E606F860E616F010E5F
:10027400626F949A7451040A02E1948601D09496B0
:100284009488C66A7451C6127651C6127551C71243
:10029400765305E07751000AD8B4C78C03D077535E
:0802A400D8A4C78CC68A120021
:1002AC00FF0E0101866FBBDE400E01017411866FDB
:1002BC00B6DE78C100F0016A026A036A00C086F1FA
:1002CC00AEDE77C100F078C101F0026A036A00C0AB
:1002DC0086F1A5DE76C100F077C101F078C102F09D
:1002EC00036A00C086F19BDE75C186F198DE79C188
:1002FC0086F195DEFF0E01017E6F30DF00C05EF1EE
:02030C001200DD
:10030E000101796BFF0E866F89DEFF0E01017E6F94
:10031E0024DF00C05EF101015E51FF0A01E0FBD750
:10032E00FF0E7E6F1ADF00C05EF1380E01017E6F88
:10033E00010E7F6FF8DE0D0E856FA0DE0A0E010135
:10034E00856F9CDE400E01017411866F67DE78C1E9
:10035E0000F0016A026A036A00C086F15FDE77C1AF
:10036E0000F078C101F0026A036A00C086F156DE21
:10037E0076C100F077C101F078C102F0036A00C0C7
:10038E0086F14CDE75C186F149DE950E0101866F50
:10039E0045DEFF0E01017E6FE0DE00C05EF10A0E4B
:1003AE000101795D0CE25E51000A01E108D0FF0EF9
:1003BE007E6FD3DE00C05EF10101792BF0D70A0EFD
:0E03CE00795D03E3010E006E01D0006A12009B
:1003DC001C0E0101556F000E566F860E576F010EE5
:1003EC00586FFF0E4D6FFF0E4E6F000E4F6F000ECD
:1003FC00506FFF0E516FFF0E526F000E536F000EB9
:10040C00546FFF0E596FFF0E5A6F000E5B6F000E8C
:10041C005C6FAC8A900EAB6E948E949C9EAA03D0AB
:08042C00AECF00F0FBD7120077
:100434000900F5CFE6FF0006FBE10106F9E1120031
:10044400020E0101746F756B766B010E776F00DF1E
:100454000D0E0C6EFB0E0D6E0D2EFED70C2EFCD762
:10046400000000008B84A30E7E6F000E7F6F60DEA1
:100474000D0E856F08DE0A0E0101856F04DE010191
:10048400686B0A0E685D06E2FF0E866FCCDD010123
:10049400682BF7D7EE0E7E6F000E7F6F49DE0D0ED0
:1004A400856FF1DD0A0E0101856FEDDD8B94000E81
:1004B40001017E6F010E7F6F3BDE0D0E856FE3DD64
:1004C4000A0E0101856FDFDD070E0C6E7D0E0D6EC9
:1004D4000D2EFED70C2EFCD70101746B756B766B59
:1004E400776B786B950E796FDFDEE30E01017E6F1B
:1004F400000E7F6F1DDE0D0E856FC5DD0A0E010136
:10050400856FC1DD01015D6B5E51010A0FE00A0ECA
:100514005D5D0CE2FF0E7E6F25DE00C05EF1010121
:100524005D51010F006E00C05DF1EED70A0E5D5DF6
:100534000DE3BF0E7E6F000E7F6FFADD0D0E856F2B
:10054400A2DD0A0E0101856F9EDDFFD7010E0101B8
:10055400746F756B766B776B786BFF0E796FA4DEB7
:1005640001015D6B5E51000A1FE0800E006E800E7B
:10057400030A005C02E1E80E5D5D16E2010E746F91
:10058400756B766B776B786BFF0E796F8DDEFF0E74
:1005940001017E6FE7DD00C05EF101015D51010FD5
:1005A400006E00C05DF1DED7800E006E800E030A7F
:1005B400005C02E1E80E5D5D0DE3D10E7E6F000E7E
:1005C4007F6FB6DD0D0E856F5EDD0A0E0101856F4E
:1005D4005ADDFFD7100E0101746F000E756F020E05
:1005E400766F000E776F786FFF0E796F5DDE010115
:1005F4005D6B5E51000A15E0800E006E800E030AEA
:10060400005C02E1E80E5D5D0CE2FF0E7E6FAADD88
:1006140000C05EF101015D51010F006E00C05DF18B
:10062400E8D7800E006E800E030A005C02E1E80E3B
:100634005D5D0DE3170E7E6F010E7F6F79DD0D0E8C
:10064400856F21DD0A0E0101856F1DDDFFD78D0E3B
:1006540001017E6F000E7F6F6BDD0D0E856F13DD64
:100664000A0E0101856F0FDD820E0C6EDD0E0D6E1C
:0E0674000D2EFED70C2EFCD700000000120049
:100682000101716B726B736B010E716F5D6B010116
:10069200715324E0190E746F756B766B776B786B00
:1006A20035DE00C071F15D51010F006E00C05DF1D9
:1006B2005DC174F1000E756F6A0E766F010E776F71
:1006C2005BDD6A0E7E6F010E7F6F33DD0D0E856F6F
:1006D200DBDC0A0E0101856FD7DCD9D75D0E010183
:1006E2007E6F000E7F6F25DD0D0E856FCDDC0A0E4D
:1006F2000101856FC9DCFF0E0101866F95DCFF0EDB
:100702000101866F91DCFF0E0101866F8DDC83A4EF
:1007120093D0FC0E0101866F87DC0101686B696B67
:10072200020E695D02E1000E685D2FE268C186F18A
:100732007BDC68C174F169C175F16A0E0101766FE3
:10074200010E776F19DD6A0E7E6F010E7F6FF1DC8D
:100752000D0E856F99DC0A0E0101856F95DC0D0E79
:100762000C6EFB0E0D6E0D2EFED70C2EFCD700006C
:100772000000010E01016825006E000E6921016E64
:1007820000C068F101C069F1CBD7FF0E866F4CDC67
:10079200FF0E0101866F48DC01015D6B080E5D5D95
:1007A20020E2FF0E7E6FDFDC00C05EF11F0E010152
:1007B2005E15016E0150050A0DE16F0E7E6F000E8F
:1007C2007F6FB7DC0D0E856F5FDC0A0E0101856F4E
:1007D2005BDC07D001015D51010F006E00C05DF1CD
:1007E200DDD70101080E5D5D17E37E0E7E6F000E00
:1007F2007F6F9FDC0D0E856F47DC0A0E0101856F4E
:1008020043DC010E01017225006E000E7321016EA0
:1008120000C072F101C073F1FF0E7E6FA4DC00C054
:100822005EF101015E51FF0A06E0FF0E7E6F9BDC66
:1008320000C05EF1F6D76BD7FD0E0101866F15EC95
:1008420000F0FF0E0101866F15EC00F0FF0E0101B2
:100852007E6F89DC00C05EF101015E51FF0A06E095
:10086200FF0E7E6F80DC00C05EF1F6D74F0E0101F5
:100872007E6F000E7F6F5DDC0D0E856F05DC0A0E4C
:100882000101856F01DC72C174F173C175F16A0EE9
:100892000101766F010E776F6FDC6A0E7E6F010EBB
:1008A2007F6F47DC0D0E856F45EC00F00A0E0101EB
:0808B200856F45EC00F0120017
:1008BA00FF0E01017E6F53DC00C05EF101015E5143
:1008CA00FF0AF6E1120E746F15C075F116C076F1C3
:1008DA0017C077F118C078F1950E796FE2DC010143
:1008EA005D6B5E51000A0FE13D0E7E6F000E7F6F59
:1008FA001CDC0D0E856F45EC00F00A0E0101856FB8
:10090A0045EC00F00FD0FF0E01017E6F28DC00C01D
:10091A005EF101015D51010F006E00C05DF10A0E2A
:10092A005D5DDFE301010A0E5D5D10E3190E7E6F66
:10093A00000E7F6F9AEC00F00D0E856F45EC00F00B
:10094A000A0E0101856F45EC00F0FFD783A456D04B
:10095A00FF0E01017E6F03DC00C05EF101015E51F2
:10096A00FE0AF6E1686B696B020E695D02E1000E30
:10097A00685D36E2FF0E7E6FB4EC00F000C05EF1F7
:10098A005EC174F1000E0101756F6A0E766F010E79
:10099A00776FBDEC00F06A0E7E6F010E7F6F9AECE6
:1009AA0000F00D0E856F45EC00F00A0E0101856F0F
:1009BA0045EC00F00D0E0C6EFB0E0D6E0D2EFED7E3
:1009CA000C2EFCD700000000010E01016825006E04
:1009DA00000E6921016E00C068F101C069F1C4D737
:1009EA00FF0E7E6FB4EC00F000C05EF1FF0E010155
:1009FA007E6FB4EC00F000C05EF1A8D70C0E0101C6
:100A0A00746F756B766B776B786B950E796F49DCC3
:100A1A0001015D6B5E51000A10E12B0E7E6F000E24
:100A2A007F6F9AEC00F00D0E856F45EC00F00A0E10
:100A3A000101856F45EC00F010D0FF0E01017E6FB9
:100A4A00B4EC00F000C05EF101015D51010F006ECF
:100A5A0000C05DF10A0E5D5DDDE30101FF0E7E6FF0
:100A6A00B4EC00F000C05EF101015E51FF0AF5E14D
:100A7A000C0E7E6F010E7F6F9AEC00F00D0E856FE3
:100A8A0045EC00F00A0E0101856F45EC00F0FFD736
:020A9A00120048
:100A9C00D4EC06F00E0EC1122D0EC012C09EC280F8
:100AAC00030E0B6E8A0E0C6E550E0D6E0D2EFED7B0
:100ABC000C2EFCD70B2EFAD700000000F30E956E0F
:100ACC00928495849586936A946AB886020EB06E69
:100ADC00080EAF6EAC847CDCAFDC83A401D0FDD7F8
:100AEC002A0E01017E6F010E7F6F9AEC00F00D0E45
:100AFC00856F45EC00F00A0E0101856F45EC00F0A6
:100B0C0083A673D083B423D0080E0B6E9D0E0C6E8F
:100B1C00050E0D6E0D2EFED70C2EFCD70B2EFAD714
:100B2C0000000000010E01014325006E000E44215F
:100B3C00016E00C043F101C044F1000E441902E102
:100B4C00030E431904E1010E436F000E446F0101C3
:100B5C00000E441902E1010E4319010ED8A4000E37
:100B6C00016E000E441902E143516719000ED8A41E
:100B7C00010E006E0150001610E0450E7E6F010E46
:100B8C007F6F9AEC00F00D0E856F45EC00F00A0EAD
:100B9C000101856F45EC00F025D0000E01014419D0
:100BAC0002E1020E4319010ED8A4000E016E000ED4
:100BBC00441902E143516719000ED8A4010E006ECE
:100BCC00015000160FE0B70E7E6F000E7F6F9AEC8F
:100BDC0000F00D0E856F45EC00F00A0E0101856FDB
:100BEC0045EC00F043C167F18BD7000E01014419AD
:100BFC0002E1010E431915E10001BD6BBE6BAF0E96
:100C0C0001017E6F000E7F6F9AEC00F00D0E856F68
:100C1C0045EC00F00A0E0101856F45EC00F0816A8D
:100C2C002ADD000E0101441902E1020E431918E1FC
:100C3C009B0E7E6F000E7F6F9AEC00F00D0E856F91
:100C4C0045EC00F00A0E0101856F45EC00F0000147
:100C5C00BD6BBE6B2CDE83A403D083A601D0FBD767
:040C6C003CD7FFD79B
:100DA80010EE15F0380E006E020E016E700EF66E23
:0E0DB8000C0EF76E000EF86E1AEC02F0120030
:040C70000000000080
:100C7400436F6D6D616E642052656A65637465646B
:020C840021004D
:100C860053746F70706564205472616E736665721A
:020C960021003B
:100C9800436F6D6D616E6420616363657074656434
:020CA800210029
:0E0CAA00444F4E452057726974696E672100F1
:100CB800436F6D6D616E6420616363657074656414
:020CC800210009
:0F0CCA0044617461206163636570746564210027
:0F0CD900446174612072656A656374656421000B
:0E0CE8004D4D432044657465637465642100BE
:080CF60052656164696E67003C
:0C0CFE00435320697320484947482100F7
:080D0A0057726974696E6700FD
:060D1200506C61790A003B
:020D18000000D9
:100D1A0043415244204552524F52202D20434D44C4
:020D2A00300097
:100D2C0043617264204552524F52202D20434D4452
:020D3C00310084
:0B0D3E00434D44302073656E742100AB
:100D490044756D6D7920636C6F636B2073656E7488
:020D5900210077
:0C0D5B004353206973204C4F57210A00BD
:0B0D6700436172642066726565210024
:100D720043617264206572726F72202D20434D446C
:030D820031360007
:0E0D850053656C6563742061204D656E7500CA
:0B0D93004361726420667265652100F8
:020D9E00000053
:080DA0005265636F72640A00E2
:020000040030CA
:0D000100021F1EFF8381FF0FC00FE00F40A4
:00000001FF
