:04000000F6EF04F023
:1000080000C016F001C015F0E1CF19F0E2CF1AF0E8
:10001800E9CF17F0EACF18F09EA044D08B7C9E90D1
:100028006AC0CFFF68C0CEFF02019451010A02E105
:10003800C28238D000018E5102019125E96E00017B
:100048008F5102019221EA6EEECF00F000C08CFFC2
:10005800010E00018E25006E000E8F21016E00C07A
:100068008EF001C08FF08F51020A02E1000E8E1946
:1000780019E18E6B8F6B010E0201906F00018D519B
:10008800000A09E1900E0201916F000E926F010EB5
:1000980000018D6F07D0950E0201916F020E926FCD
:1000A80000018D6B9EAC39D000019E9CC4CF93F2A9
:1000B8008E5102019125E16E00018F5102019221BA
:1000C800E26E93C2E6FF010E00018E25006E000E5F
:1000D8008F21016E00C08EF001C08FF08F51020A8F
:1000E80002E1000E8E1919E18E6B8F6B010E020171
:1000F800906F00018D51000A09E1900E0201916F85
:10010800000E926F010E00018D6F07D0950E02014F
:10011800916F020E926F00018D6B16C000F015C032
:1001280001F017C0E9FF18C0EAFF19C0E1FF1AC0C3
:04013800E2FF1100D1
:10013C00C3C4C9FFC7B002D00000FCD7C9CF00F0C0
:02014C0012009F
:0A014E00530E0D6E0D2EFED71200A9
:10015800F250026EF29E0500FF6A0150FE6E0050DA
:08016800FD6E02BEF28E1200D2
:0C01700000000000000000000000120071
:10017C00240E0C6EB50E0D6E0D2EFED70C2EFCD76C
:06018C000000000012005B
:040192008B94120038
:100196000401BABF02D0819401D08184BABD02D0D5
:1001A600819601D08186BABB02D0819801D0818820
:1001B600BAB902D0819A01D0818A95B102D0818ED6
:1001C60001D0819E818CD1DF819CBAB702D0819407
:1001D60001D08184BAB502D0819601D08186BAB3A6
:1001E60002D0819801D08188BAB102D0819A01D01B
:1001F600818A95B102D0818E01D0819E818CB5DF36
:0E020600819C95A102D0B7DF01D09EDF1200CF
:100214008B849CC4E1FF9DC4E2FFFF0EE66E9AC48A
:0A02240000F09BC401F096DF120009
:10022E00400E0401BA25006E9CC4E1FF9DC4E2FF9E
:10023E0000C0E6FF9AC400F09BC401F086DF9CC4A8
:10024E00E1FF9DC4E2FFBEC4E6FF9AC400F09BC46A
:10025E0001F07BDF9CC4E1FF9DC4E2FFBDC4E6FF5D
:10026E009AC400F09BC401F070DF9CC4E1FF9DC4F2
:10027E00E2FFBCC4E6FF9AC400F09BC401F065DF48
:10028E009CC4E1FF9DC4E2FFBBC4E6FF9AC400F02C
:10029E009BC401F05ADF9CC4E1FF9DC4E2FFBFC4C2
:1002AE00E6FF9AC400F09BC401F04FDF0401C16B5E
:1002BE00C26B9CC4E1FF9DC4E2FFFF0EE66E9AC4C2
:1002CE0000F09BC401F041DF00C0C0F40401C14B3B
:1002DE00C22B800E0014016E0150000A07E0000EC2
:1002EE00C25D02E1640EC15D01E2E3D7C0C400F05D
:0202FE001200EC
:0E03000004019591B5C4BAF446DF9581120050
:10030E000401B66BB76B270EB75D02E1100EB65D3A
:10031E00D8B09AD0000E000A02E1000EB51915E110
:10032E0031DF010EBA6FBB6BBC6BBD6BBE6BFF0ECC
:10033E00BF6F76DF00C0B8F466DF0401B851000A63
:10034E0003E1696A006A82D07CD01CDF370EBA6F77
:10035E00BB6BBC6BBD6BBE6BFF0EBF6F61DF00C0B6
:10036E00B8F451DF0401B851010AD8A469D00ADFEC
:10037E00290EBA6F000EBB6F000EBC6F000EBD6F64
:10038E00400EBE6FFF0EBF6F4BDF00C0B8F43BDFF9
:10039E000401B851000A53E1000E000A02E1020EF8
:1003AE00B51949E1EFDE3A0EBA6FBB6BBC6BBD6B94
:1003BE00BE6BFF0EBF6F34DF00C0B8F49CC4E1FF0C
:1003CE009DC4E2FFFF0EE66E9AC400F09BC401F0DE
:1003DE00BCDE00C0B9F49CC4E1FF9DC4E2FFFF0E79
:1003EE00E66E9AC400F09BC401F0AFDE9CC4E1FF40
:1003FE009DC4E2FFFF0EE66E9AC400F09BC401F0AE
:10040E00A4DE9CC4E1FF9DC4E2FFFF0EE66E9AC41B
:10041E0000F09BC401F099DEF6DE0401B851000A2B
:10042E0009E1B9AD03D0040E696E02D0030E696EF8
:10043E00006A0CD004D0010E696E006A07D001D09C
:0E044E0003D0B64BB72B5FD7010E006E120025
:0C045C000E0EC16E2D0EC06EC28012008C
:100468000900F5CFE6FF0006FBE10106F9E11200FD
:1004780010D0800E0401A76F1AD0C00EA76F17D036
:10048800940EA76F14D0D40EA76F11D0800EA76F4B
:100498000ED00401A751010AECE0A751020AEDE0D1
:1004A800A751030AEDE0A751040AEDE0EFD7A8052C
:1004B800006EA751002600C0A7F400C0BAF467DE9A
:1004C8009591AB6BAB51A925E96E000EAA21EA6E96
:1004D800EE520BE0AB51A925E96E000EAA21EA6E97
:0E04E800EECFB5F409DFAB2BEDD795811200F6
:1004F600939C939E939A939893969394819C819EB2
:10050600819481968198819A36DE35DE34DE818843
:10051600818A818C2ADE819C2EDE818C26DE819C5E
:100526002ADE818C22DE819C26DE819A818C1DDE6C
:10053600819C21DE818C19DE819C81988184818C4D
:1005460014DE819C18DE8194818A818C0EDE819C6A
:10055600819A818C0ADE819C0EDE818C06DE819C6E
:10056600818A818C02DE819C06DE819A818CFDDD8A
:10057600819C818481868188818A818CF6DD819C3B
:08058600FADD04019581120069
:10058E0001DE000E000A02E1040E691809E1A7C49B
:10059E00AFF4A8C4B0F4A9C4B1F4AAC4B2F414D090
:1005AE00090E006EA7C4AFF4A8C4B0F4A9C4B1F488
:1005BE00AAC4B2F4005008E00401AF37AF91B037CF
:1005CE00B137B237FF0FF7D70401180EBA6FAFC4A9
:1005DE00BBF4B0C4BCF4B1C4BDF4B2C4BEF4FF0EDF
:1005EE00BF6F1EDE005204E00EDE010E006E8BD0D9
:1005FE009CC4E1FF9DC4E2FFFF0EE66E9AC400F0BC
:10060E009BC401F0A2DD9CC4E1FF9DC4E2FFFF0E7E
:10061E00E66E9AC400F09BC401F097DD9CC4E1FF26
:10062E009DC4E2FFFE0EE66E9AC400F09BC401F07C
:10063E008CDD0401AD6BAE6BAE51010802E1AD5124
:10064E00FF0815E3AD51AB25E96EAE51AC21EA6E54
:10065E009CC4E1FF9DC4E2FFEECFE6FF9AC400F01A
:10066E009BC401F072DD0401AD4BAE2BE5D79CC4EB
:10067E00E1FF9DC4E2FFFF0EE66E9AC400F09BC43C
:10068E0001F063DD9CC4E1FF9DC4E2FFFF0EE66E48
:10069E009AC400F09BC401F058DD9CC4E1FF9DC4D8
:1006AE00E2FFFF0EE66E9AC400F09BC401F04DDD32
:1006BE0000C0ADF4000E0401AE6F1F0EAD15016E3D
:1006CE00AEC402F0000E021601C0ADF402C0AEF4CC
:1006DE00000E021802E1050E011804E094DD020E70
:1006EE00006E11D09CC4E1FF9DC4E2FFFF0EE66ECA
:1006FE009AC400F09BC401F028DD0050FF0A01E00F
:08070E00F1D781DD006A120041
:100716003DDD000E000A02E1040E691809E1A7C4D6
:10072600AFF4A8C4B0F4A9C4B1F4AAC4B2F414D006
:10073600090E006EA7C4AFF4A8C4B0F4A9C4B1F4FE
:10074600AAC4B2F4005008E00401AF37AF91B03745
:10075600B137B237FF0FF7D70401110EBA6FAFC426
:10076600BBF4B0C4BCF4B1C4BDF4B2C4BEF4FF0E55
:10077600BF6F5ADD005204E04ADD010E006E4BD019
:100786009CC4E1FF9DC4E2FFFF0EE66E9AC400F032
:100796009BC401F0DEDC0050FE0A01E0F1D7040143
:1007A600AD6BAE6B020EAE5D02E1000EAD5D1BE2FF
:1007B600AD51AB25B36FAE51AC21B46F9CC4E1FF14
:1007C6009DC4E2FFFF0EE66E9AC400F09BC401F0E2
:1007D600C0DCB3C4E1FFB4C4E2FF00C0E6FF04011D
:1007E600AD4BAE2BDFD79CC4E1FF9DC4E2FFFF0EED
:1007F600E66E9AC400F09BC401F0ABDC9CC4E1FF3A
:100806009DC4E2FFFF0EE66E9AC400F09BC401F0A1
:08081600A0DCFDDC006A120009
:10081E00010E9D6E7250000A05E1FE0E6A6ED70E35
:10082E00686E07D07250010A04E1FD0E6A6EBF0EAB
:0C083E00686E6AC0CFFF68C0CEFF1200D9
:10084A003C0E04019A6F010E9B6FC30E9C6F040E3F
:10085A009D6FFF0E966FFF0E976FFF0E986FFF0E3C
:10086A00996F949AA751040A02E1948601D094964A
:10087A009488C66AA751C612A951C612A851C712AE
:10088A00A95305E0AA51000AD8B4C78C03D0AA53C9
:08089A00D8A4C78CC68A120025
:1008A200050E696E9494B5DC0401A76BA86B000E6B
:1008B200A85D02E10A0EA75D0FE29CC4E1FF9DC4A0
:1008C200E2FFFF0EE66E9AC400F09BC401F043DC27
:1008D2000401A74BA82BEBD75BDCBA6BBB6BBC6BE1
:1008E200BD6BBE6B950EBF6FA1DC00C0A9F491DC9D
:1008F2000401A951010A03E0010E006E75D048DC23
:10090200080EBA6FAA0EBB6F010EBC6F000EBD6F50
:10091200BE6F870EBF6F8ADC00C0A9F49CC4E1FFE2
:100922009DC4E2FFFF0EE66E9AC400F09BC401F084
:1009320012DC9CC4E1FF9DC4E2FFFF0EE66E9AC486
:1009420000F09BC401F007DC9CC4E1FF9DC4E2FF00
:10095200FF0EE66E9AC400F09BC401F0ACEC00F00E
:100962009CC4E1FF9DC4E2FFFF0EE66E9AC400F054
:100972009BC401F0ACEC00F04CDC0401A951010A6B
:1009820008E0010EB56FC2DC005202E0B56BBEDCBE
:1009920003D0020EB56FBADC000E000A02E1050EAA
:1009A200691803E1020E006E1FD0000E000A02E178
:1009B200040E691818E0C9EC00F0100EBA6F000EB0
:1009C200BB6F020EBC6F000EBD6FBE6FFF0EBF6F1E
:1009D2002DDC00C0A9F41DDC0401A951000A03E0CA
:0A09E200030E006E01D0006A12003F
:1009EC002DEC08F00201906B946B936B7F0EF1165B
:1009FC00950E916F020E926F2BDD030E0B6E8A0E0D
:100A0C000C6E550E0D6E0D2EFED70C2EFCD70B2E2C
:100A1C00FAD700000000956A030E936EBB0E941675
:100A2C00400E8C6E62DD010EBA6FCBEC00F00C0E3A
:100A3C00BA6FCBEC00F0010EA76F020EA86F570E29
:100A4C00A96F000EAA6F12DD020EA76FA86BA96B1F
:100A5C00010EAA6FF4DE1FDF0050000A01E0FBD785
:100A6C00A76BA86BA96B010EAA6FE9DEC00EF21280
:100A7C0081A001D0FDD70201946B04019E6B010E85
:100A8C00BA6FCBEC00F081A280D081B019D0080EE7
:100A9C000B6E9D0E0C6E050E0D6E0D2EFED70C2ED4
:100AAC00FCD70B2EFAD70000000002019451010F65
:100ABC00006E00C094F29451040A02E1010E946F8E
:100ACC0002019451010A010ED8A4000E016E04011A
:100ADC009E5102019419000ED8A4010E006E015013
:100AEC0000160FE0010E0401BA6FCBEC00F0010E02
:100AFC00A76F020EA86F470EA96F000EAA6FB6DC87
:100B0C0041D002019451020A010ED8A4000E016ECC
:100B1C0004019E5102019419000ED8A4010E006E1E
:100B2C00015000160FE0010E0401BA6FCBEC00F07F
:100B3C00010EA76F020EA86F500EA96F000EAA6FC0
:100B4C0095DC20D002019451030A010ED8A4000EAA
:100B5C00016E04019E5102019419000ED8A4010EDD
:100B6C00006E015000160EE0010E0401BA6FCBECC2
:100B7C0000F0010EA76F020EA86F390EA96F000EC0
:100B8C00AA6F74DC94C29EF47ED702019451010AC0
:100B9C00D8A4B2D03EDE010E0401BA6FCBEC00F04B
:100BAC00010EA76F020EA86F1D0EA96F000EAA6F83
:100BBC005DDC950E0201916F020E926F00018E6B3F
:100BCC008F6B04019F6BA06BA16BA26B0201906BEE
:100BDC0000018D6B010ECD6E81A055D0020190519C
:100BEC00010A50E1906B00018D5326E09FC4A7F4DD
:100BFC00A0C4A8F4A1C4A9F4A2C4AAF4010E0401CF
:100C0C009F27000EA023A123A223950EAB6F020EEB
:100C1C00AC6FB7DC0050000A0EE0010E0401BA6F95
:100C2C00CBEC00F0020EA76F020EA86F1B0EA96F83
:100C3C00000EAA6F1BDC26D004019FC4A7F4A0C42D
:100C4C00A8F4A1C4A9F4A2C4AAF4010E9F27000E13
:100C5C00A023A123A223900EAB6F000EAC6F91DCEE
:100C6C000050000A0FE0010E0401BA6FCBEC00F04B
:100C7C00020EA76F020EA86F370EA96F000EAA6F97
:100C8C003CEC02F0A9D70401CD90A56BA66B020E2B
:100C9C00A65D02E1000EA55D0AE2950EA525E16EAA
:100CAC00020EA621E26EE66AA54BA62BF0D79FC4D6
:100CBC00A7F4A0C4A8F4A1C4A9F4A2C4AAF4010E78
:100CCC009F27000EA023A123A223950EAB6F020E2B
:100CDC00AC6F57DC0050000A00E0030E0B6E8A0E5E
:100CEC000C6E550E0D6E0D2EFED70C2EFCD70B2E4A
:100CFC00FAD70000000070D102019451020AD8A466
:100D0C00D1D00401A46B9F6BA06BA16BA26B81DD96
:100D1C00010E0401BA6FCBEC00F0010EA76F020EAE
:100D2C00A86F2A0EA96F000EAA6F3CEC02F0950E6C
:100D3C000201916F020E926F00018E6B8F6B02019C
:100D4C00906B00018D6B010E0201956F9FC4A7F48F
:100D5C00A0C4A8F4A1C4A9F4A2C4AAF4950E0401D9
:100D6C00AB6F020EAC6FD1DC0050000A01E0EED785
:100D7C00CD800401A453D8A475D081A073D0010EEA
:100D8C00A46FA56BA66B020EA65D02E1000EA55D1D
:100D9C0013E2A55102019125E96E0401A65102014D
:100DAC009221EA6EEECF00F0005202E00401A46B37
:100DBC000401A54BA62BE7D702019051010A51E182
:100DCC00906B00018D5327E09FC4A7F4A0C4A8F436
:100DDC00A1C4A9F4A2C4AAF4010E04019F27000E19
:100DEC00A023A123A223950EAB6F020EAC6F8DDC5A
:100DFC000050000A0FE0010E0401BA6FCBEC00F0BA
:100E0C00020EA76F020EA86F350EA96F000EAA6F07
:100E1C003CEC02F026D004019FC4A7F4A0C4A8F4B3
:100E2C00A1C4A9F4A2C4AAF4010E9F27000EA0230A
:100E3C00A123A223900EAB6F000EAC6F66DC0050AA
:100E4C00000A0FE0010E0401BA6FCBEC00F0020EA9
:100E5C00A76F020EA86F660EA96F000EAA6F3CEC6E
:100E6C0002F087D70401A46BCD90030E0B6E8A0E93
:100E7C000C6E550E0D6E0D2EFED70C2EFCD70B2EB8
:100E8C00FAD700000000010EBA6FCBEC00F0010E97
:100E9C00A76F020EA86F730EA96F000EAA6F3CEC21
:100EAC0002F09AD002019451030AD8A495D094C2AE
:100EBC00A3F4010E946F0D0E0B6EAF0E0C6EB60EEE
:100ECC000D6E0D2EFED70C2EFCD70B2EFAD7000074
:100EDC00010E0401BA6FCBEC00F081A261D081B09D
:100EEC0019D0080E0B6E9D0E0C6E050E0D6E0D2E90
:100EFC00FED70C2EFCD70B2EFAD7000000000201F7
:100F0C009451010F006E00C094F29451030A02E157
:100F1C00010E946F02019451010A010ED8A4000E27
:100F2C00016E04019E5102019419000ED8A4010E09
:100F3C00006E0150001610E0010E0401BA6FCBECEC
:100F4C0000F0010EA76F020EA86F7E0EA96F000EA7
:100F5C00AA6F3CEC02F021D002019451020A010E5E
:100F6C00D8A4000E016E04019E5102019419000ECA
:100F7C00D8A4010E006E015000160FE0010E040102
:100F8C00BA6FCBEC00F0010EA76F020EA86F6B0EC0
:100F9C00A96F000EAA6F3CEC02F094C29EF49DD790
:100FAC0002019451010A02E1726A05D09451020ABD
:100FBC0002E1010E726E010E0401BA6FCBEC00F06F
:100FCC00010EA76F020EA86F860EA96F000EAA6FF6
:0C0FDC003CEC02F0A3C494F24BD5FFD70C
:10105A0010EE1BF0720E006E010E016EE80EF66EB7
:0E106A000F0EF76E000EF86E34EC02F012005E
:020FE8004500C2
:0D0FEA005265636F7264696E672E2E2E00D3
:0B0FF700506C6179696E672E2E2E0091
:021002004500A7
:021004004500A5
:0E1006003E2053616D706C6520526174650070
:091014003E205265636F72640016
:07101D003E20506C617900D8
:0F102400564F494345205245434F5244455200D1
:02103300450076
:01103500D7E3
:0110360000B9
:01103700FEBA
:071038003E20386B687A00CE
:01103F0000B0
:0B104000436F6D706C657465642100E7
:08104B003E2031364B687A00AB
:071053005361766564210082
:020000040030CA
:0D000100021F1EFF8381FF0FC00FE00F40A4
:00000001FF
