:1000000072EF05F00000000000EF00F000000000BB
:0A0010000000000000000000F3D71C
:0E001C00ACB202D00000FCD789C1ADFF1200CB
:10002A0089C1C9FFC7B002D00000FCD7C9CF00F010
:02003A001200B2
:10003C00F250026EF29E0500FF6A0150FE6E0050F7
:08004C00FD6E02BEF28E1200EF
:10005400086A096A100E0C6E013408360936045019
:10006400085E0550D8A0053C095ED8B007D00450FE
:1000740008260550D8B0053C0926D890003601362C
:060084000C2EEAD7120069
:10008A005EC1E1FF5FC1E2FF88C1E6FF5CC100F02B
:08009A005DC101F0CEDF120090
:1000A2000101856B050E855D0AE285518325E16EAE
:1000B200000E8421E26E200EE66E852BF3D7855169
:1000C2008325E16E000E8421E26EE66A8507855182
:1000D2008325866F000E8421876F0A0E046E000E40
:1000E200056E81C100F082C101F0B3DF08C000F0EB
:1000F20009C001F0300E002686C1E1FF87C1E2FF90
:1001020000C0E6FF0A0E046E000E056E81C100F00B
:1001120082C101F09EDF00C081F101C082F1000EB8
:10012200011802E1000E001801E102D08507CFD7C5
:020132001200B9
:100134000101846B81C1E9FF82C1EAFFEECF83F143
:100144008351000A0EE083C188F19DDF0101842BF5
:1001540084518125E96E000E8221EA6EEECF83F18F
:04016400EFD71200BF
:1001680081C1C9FFC7B002D00000FCD7C9CF00F0D9
:02017800120073
:10017A0001017D6B7E6B77C17FF178C180F1800EC2
:10018A007819006E800E005C02E1000E775D0BE2CA
:10019A00010E7D6F000E7E6F775100087F6F78C168
:1001AA0080F1000E80577FC181F180C182F179C14F
:1001BA0083F17AC184F170DF060E7B6F000E7C6FCB
:1001CA00000E006E7C51005C02E17B51000819E2CE
:1001DA007B517925E16E7C517A21E26E010E7B5DBD
:1001EA00006E000E7C59016E00507925E96E0150AF
:1001FA007A21EA6EEECFE6FF010E7B5F000E7C5B92
:10020A00DFD779C1E1FF7AC1E2FF200EE66E7D51A8
:10021A007E111AE07B6B7C6B7B517925E96E7C51F0
:10022A007A21EA6EEE50200A03E17B4B7C2BF4D74D
:10023A00010E7B5F000E7C5B7B517925E16E7C5160
:0A024A007A21E26E2D0EE66E12001E
:10025400680E01014C6F010E4D6F810E4E6F010E41
:100264004F6F2A0E546F000E556F890E566F010E94
:10027400576F949A7751040A02E1948601D09496B8
:100284009488C66A7751C6127951C6127851C7123A
:10029400795305E07A51000AD8B4C78C03D07A5355
:0802A400D8A4C78CC68A120021
:1002AC00FF0E0101896FBBDE400E01017711896FD2
:1002BC00B6DE7BC100F0016A026A036A00C089F1F4
:1002CC00AEDE7AC100F07BC101F0026A036A00C0A5
:1002DC0089F1A5DE79C100F07AC101F07BC102F091
:1002EC00036A00C089F19BDE78C189F198DE7CC17C
:1002FC0089F195DEFF0E0101816F30DF00C050F1F6
:02030C001200DD
:10030E0001017C6BFF0E896F89DEFF0E0101816F8B
:10031E0024DF00C050F101015051FF0AF6E1140E26
:10032E00816F010E826FFFDE0D0E886FA7DE0A0E43
:10033E000101886FA3DE400E01017711896F6EDE19
:10034E007BC100F0016A026A036A00C089F166DEB1
:10035E007AC100F07BC101F0026A036A00C089F124
:10036E005DDE79C100F07AC101F07BC102F0036A53
:10037E0000C089F153DE78C189F150DE950E01017E
:10038E00896F4CDEFF0E0101816FE7DE00C050F178
:10039E000A0E01017C5D0CE25051000A01E108D009
:1003AE00FF0E816FDADE00C050F101017C2BF0D719
:1003BE000A0E7C5D03E3010E006E01D0006A12008E
:1003CE001C0E01015C6F000E5D6F890E5E6F010EDB
:1003DE005F6FFF0E586FFF0E596F000E5A6F000EB3
:1003EE005B6FFF0E646FFF0E656F000E666F000E83
:1003FE00676FFF0E606FFF0E616F000E626F000E73
:10040E00636FAC8A900EAB6E948E949C9EAA03D0B2
:08041E00AECF00F0FBD7120085
:100426000900F5CFE6FF0006FBE10106F9E112003F
:10043600020E0101776F786B796B010E7A6F07DF19
:100446000D0E0C6EFB0E0D6E0D2EFED70C2EFCD770
:10045600000000008B84DB0E816F000E826F67DE6A
:100466000D0E886F0FDE0A0E0101886F0BDE01018B
:10047600696B0A0E695D06E2FF0E896FD3DD010125
:10048600692BF7D7C90E816F000E826F50DE0D0EF5
:10049600886FF8DD0A0E0101886FF4DD8B94BD0EBE
:1004A6000101816F000E826F42DE0D0E886FEADD5C
:1004B6000A0E0101886FE6DD070E0C6E7D0E0D6ECD
:1004C6000D2EFED70C2EFCD70101776B786B796B5E
:1004D6007A6B7B6B950E7C6FE6DE410E0101816FB8
:1004E600010E826F24DE0D0E886FCCDD0A0E01012F
:1004F600886FC8DD0101516B5051010A0FE00A0EE9
:10050600515D0CE2FF0E816F2CDE00C050F101013F
:100516005151010F006E00C051F1EED70A0E515D28
:100526000DE31F0E816F010E826F01DE0D0E886FC7
:10053600A9DD0A0E0101886FA5DDFFD7010E0101B5
:10054600776F786B796B7A6B7B6BFF0E7C6FABDEAC
:100556000101516B5051000A1FE0800E006E800EA3
:10056600030A005C02E1E80E515D16E2010E776FA8
:10057600786B796B7A6B7B6BFF0E7C6F94DEFF0E6C
:100586000101816FEEDD00C050F101015151010FF3
:10059600006E00C051F1DED7800E006E800E030A99
:1005A600005C02E1E80E515D0DE3EF0E816F000E77
:1005B600826FBDDD0D0E886F65DD0A0E0101886F45
:1005C60061DDFFD7100E0101776F000E786F020E06
:1005D600796F000E7A6F7B6FFF0E7C6F64DE010110
:1005E600516B5051000A15E0800E006E800E030A12
:1005F600005C02E1E80E515D0CE2FF0E816FB1DD99
:1006060000C050F101015151010F006E00C051F1BF
:10061600E8D7800E006E800E030A005C02E1E80E49
:10062600515D0DE3010E816F010E826F80DD0D0EAF
:10063600886F28DD0A0E0101886F24DDFFD7850E3D
:100646000101816F000E826F72DD0D0E886F1ADD5B
:100656000A0E0101886F16DD010E0101776F786BB6
:10066600796B010E7A6FF3DD820E0C6EDD0E0D6E68
:0E0676000D2EFED70C2EFCD700000000120047
:100684000101756B766B0101190E776F786B796BCD
:100694007A6B7B6B3ADE005216E0730E816F000EAC
:1006A400826F46DD0D0E886FEEDC0A0E0101886F45
:1006B400EADC410E0C6EEE0E0D6E0D2EFED70C2EE6
:1006C400FCD7000001D001D0DED7930E0101816F69
:1006D400000E826F2DDD0D0E886FD5DC0A0E010130
:1006E400886FD1DCFF0E0101896F9DDCFF0E0101D3
:1006F400896F99DCFF0E0101896F95DC0101526B52
:10070400536B83A47BD0FC0E896F8DDC0101696B74
:100714006A6B020E6A5D02E1000E695D2FE269C137
:1007240089F181DC69C177F16AC178F16B0E01014D
:10073400796F010E7A6F1FDD6B0E816F010E826F70
:10074400F7DC0D0E886F9FDC0A0E0101886F9BDCBD
:100754000D0E0C6EFB0E0D6E0D2EFED70C2EFCD75F
:1007640000000000010E01016925006E000E6A21DF
:10077400016E00C069F101C06AF1CBD7FF0E896F29
:1007840052DCFF0E0101896F4EDC0101516B080E32
:10079400515D1DE2FF0E816FE5DC00C050F11F0EBC
:1007A40001015015016E0150050A0BE1010E52259D
:1007B400006E000E5321016E00C052F101C053F1CE
:1007C40006D05151010F006E00C051F1E0D7080E60
:1007D400515D0AE3010E7525006E000E7621016E4F
:1007E40000C075F101C076F1FF0E816FBBDC00C063
:1007F40050F101015051FF0AF7E183D7FD0E896FD3
:1008040012DCFF0E0101896F0EDCFF0E0101816F06
:10081400A9DC00C050F101015051FF0A06E0FF0EAF
:10082400816FA0DC00C050F1F6D76A0E0101816F20
:10083400000E826F7DDC0D0E886F25DC0A0E01012F
:10084400886F21DC52C177F153C178F16B0E01013D
:10085400796F010E7A6F8FDC200E816F000E826F2C
:1008640067DC0D0E886F0FDC0A0E0101886F0BDC4C
:100874006B0E0101816F010E826F5ADC0D0E886FC1
:1008840002DC0A0E0101886F45EC00F075C177F1B6
:1008940076C178F16B0E0101796F010E7A6F6BDC12
:1008A400190E816F000E826F43DC0D0E886F45ECCC
:1008B40000F00A0E0101886F45EC00F06B0E010197
:1008C400816F010E826F34DC0D0E886F45EC00F0F1
:0C08D4000A0E0101886F45EC00F01200D4
:1008E0000101726B736BFF0E816F3EDC00C050F133
:1008F00001015051FF0AF7E1120E776F15C078F130
:1009000016C079F117C07AF118C07BF1950E7C6F93
:10091000CDDC0101516B5051000A0FE1290E816FAE
:10092000000E826F07DC0D0E886F45EC00F00A0E9A
:100930000101886F45EC00F00FD0FF0E0101816FBF
:1009400013DC00C050F101015151010F006E00C0D5
:1009500051F10A0E515DDFE301010A0E515D10E312
:10096000580E816F000E826F9AEC00F00D0E886FAA
:1009700045EC00F00A0E0101886F45EC00F0FFD74E
:1009800001015351735D02E15251725D61E2FF0E4C
:10099000816FB4EC00F000C050F101015051FE0A2B
:1009A000F6E1696B6A6B020E6A5D02E1000E695D39
:1009B00036E2FF0E816FB4EC00F000C050F150C180
:1009C00077F1000E0101786F6B0E796F010E7A6F6F
:1009D000BDEC00F06B0E816F010E826F9AEC00F09F
:1009E0000D0E886F45EC00F00A0E0101886F45EC92
:1009F00000F00D0E0C6EFB0E0D6E0D2EFED70C2EA4
:100A0000FCD700000000010E01016925006E000EF8
:100A10006A21016E00C069F101C06AF1C4D7FF0EFE
:100A2000816FB4EC00F000C050F1FF0E0101816F46
:100A3000B4EC00F000C050F1010E01017225006E0F
:100A4000000E7321016E00C072F101C073F198D7DE
:100A50000C0E776F786B796B7A6B7B6B950E7C6F76
:100A600025DC0101516B5051000A10E1460E816FE7
:100A7000000E826F9AEC00F00D0E886F45EC00F0CE
:100A80000A0E0101886F45EC00F010D0FF0E010145
:100A9000816FB4EC00F000C050F101015151010F21
:100AA000006E00C051F10A0E515DDDE30101FF0E41
:100AB000816FB4EC00F000C050F101015051FF0A09
:100AC000F5E13B0E816F000E826F9AEC00F00D0E87
:100AD000886F45EC00F00A0E0101886F45EC00F0CC
:040AE000FFD712002A
:100AE400F8EC06F00E0EC1122D0EC012C09EC2808C
:100AF400030E0B6E8A0E0C6E550E0D6E0D2EFED768
:100B04000C2EFCD70B2EFAD700000000F30E956EC6
:100B1400928495849586936A946AB886020EB06E20
:100B2400080EAF6EAC8451DC84DC83A401D0FDD705
:100B34000101330E816F010E826F9AEC00F00D0EED
:100B4400886F45EC00F00A0E0101886F45EC00F057
:100B540083A673D083B423D0080E0B6E9D0E0C6E47
:100B6400050E0D6E0D2EFED70C2EFCD70B2EFAD7CC
:100B740000000000010E01013125006E000E32213B
:100B8400016E00C031F101C032F1000E321902E1F0
:100B9400030E311904E1010E316F000E326F0101B1
:100BA400000E321902E1010E3119010ED8A4000E13
:100BB400016E000E321902E131516819000ED8A4F9
:100BC400010E006E0150001610E0E70E816F000E5A
:100BD400826F9AEC00F00D0E886F45EC00F00A0E5F
:100BE4000101886F45EC00F025D0000E0101321997
:100BF40002E1020E3119010ED8A4000E016E000E9E
:100C0400321902E131516819000ED8A4010E006EA8
:100C1400015000160FE0AF0E816F000E826F9AEC48
:100C240000F00D0E886F45EC00F00A0E0101886F8C
:100C340045EC00F031C168F18BD7000E0101321987
:100C440002E1010E311915E10001AD6BAE6BA50E89
:100C54000101816F000E826F9AEC00F00D0E886F17
:100C640045EC00F00A0E0101886F45EC00F0816A42
:100C740007DD000E0101321902E1020E311918E1FB
:100C8400B50E816F000E826F9AEC00F00D0E886F26
:100C940045EC00F00A0E0101886F45EC00F00001FC
:100CA400AD6BAE6B1BDE83A403D083A601D0FBD750
:040CB4003CD7FFD753
:100DF00010EE15F0370E006E020E016EB80EF66E94
:0E0E00000C0EF76E000EF86E13EC02F01200EE
:040CB8000000000038
:070CBC004C6F73743A200035
:090CC3005772697474656E3A0001
:100CCC00436F6D6D616E6420616363657074656400
:020CDC002100F5
:0B0CDE004361726420667265652100AE
:100CE90053746F70706564205472616E73666572B7
:020CF9002100D8
:100CFB00436F6D6D616E642052656A6563746564E4
:020D0B002100C5
:090D0D0053544F5050454421009D
:100D1600436F6D6D616E642072656A6563746564A8
:020D26002100AA
:0E0D28004D4D4320446574656374656421007D
:100D3600436F6D6D616E6420616363657074656495
:020D460021008A
:080D480057726974696E6700BF
:020D50000000A1
:060D5200506C61790A00FB
:080D580052656164696E6700D9
:0C0D60004353206973204C4F57210A00B8
:100D6C0044756D6D7920636C6F636B2073656E7465
:020D7C00210054
:0C0D7E0043532069732048494748210076
:080D8A005265636F72640A00F8
:100D920043617264204552524F52202D20434D44EC
:020DA20031001E
:100DA40043617264206572726F72202D20434D443A
:030DB400313600D5
:0B0DB7004361726420667265652100D4
:100DC20043415244204552524F52202D20434D441C
:020DD2003000EF
:020DD40000001D
:0E0DD60053656C6563742061204D656E750079
:0B0DE400434D44302073656E74210005
:020000040030CA
:0D000100021F1EFF8381FF0FC00FE00F40A4
:00000001FF
