:1000000045EF05F00000000000EF00F000000000E8
:0A0010000000000000000000F3D71C
:0E001C00ACB202D00000FCD797C1ADFF1200BD
:10002A0097C1C9FFC7B002D00000FCD7C9CF00F002
:02003A001200B2
:10003C00F250026EF29E0500FF6A0150FE6E0050F7
:08004C00FD6E02BEF28E1200EF
:10005400086A096A100E0C6E013408360936045019
:10006400085E0550D8A0053C095ED8B007D00450FE
:1000740008260550D8B0053C0926D890003601362C
:060084000C2EEAD7120069
:10008A0065C1E1FF66C1E2FF96C1E6FF63C100F008
:08009A0064C101F0CEDF120089
:1000A2000101936B050E935D0AE293519125E16E76
:1000B200000E9221E26E200EE66E932BF3D793513F
:1000C2009125E16E000E9221E26EE66A930793514A
:1000D2009125946F000E9221956F0A0E046E000E08
:1000E200056E8FC100F090C101F0B3DF08C000F0CF
:1000F20009C001F0300E002694C1E1FF95C1E2FF74
:1001020000C0E6FF0A0E046E000E056E8FC100F0FD
:1001120090C101F09EDF00C08FF101C090F1000E8E
:10012200011802E1000E001801E102D09307CFD7B7
:020132001200B9
:100134000101926B8FC1E9FF90C1EAFFEECF91F10B
:100144009151000A0EE091C196F19DDF0101922BBD
:1001540092518F25E96E000E9021EA6EEECF91F157
:04016400EFD71200BF
:100168008FC1C9FFC7B002D00000FCD7C9CF00F0CB
:02017800120073
:10017A0001018B6B8C6B85C18DF186C18EF1800E6E
:10018A008619006E800E005C02E1000E855D0BE2AE
:10019A00010E8B6F000E8C6F855100088D6F86C122
:1001AA008EF1000E8E578DC18FF18EC190F187C1ED
:1001BA0091F188C192F170DF060E896F000E8A6F85
:1001CA00000E006E8A51005C02E18951000819E2B2
:1001DA0089518725E16E8A518821E26E010E895D77
:1001EA00006E000E8A59016E00508725E96E015093
:1001FA008821EA6EEECFE6FF010E895F000E8A5B68
:10020A00DFD787C1E1FF88C1E2FF200EE66E8B517E
:10021A008C111AE0896B8A6B89518725E96E8A519C
:10022A008821EA6EEE50200A03E1894B8A2BF4D723
:10023A00010E895F000E8A5B89518725E16E8A511A
:0A024A008821E26E2D0EE66E120010
:10025400680E0101756F010E766F8F0E776F010EB8
:10026400786F2A0E5F6F000E606F970E616F010E3C
:10027400626F949A8551040A02E1948601D094969F
:100284009488C66A8551C6128751C6128651C71210
:10029400875305E08851000AD8B4C78C03D088532B
:0802A400D8A4C78CC68A120021
:1002AC00FF0E0101976FBBDE400E01018511976FA8
:1002BC00B6DE89C100F0016A026A036A00C097F1D8
:1002CC00AEDE88C100F089C101F0026A036A00C089
:1002DC0097F1A5DE87C100F088C101F089C102F059
:1002EC00036A00C097F19BDE86C197F198DE8AC144
:1002FC0097F195DEFF0E01018F6F30DF00C073F1B7
:02030C001200DD
:10030E0001018A6BFF0E976F89DEFF0E01018F6F61
:10031E0024DF00C073F101017351FF0AF6E12D0EC7
:10032E008F6F010E906FFFDE0D0E966FA7DE0A0E19
:10033E000101966FA3DE400E01018511976F6EDEEF
:10034E0089C100F0016A026A036A00C097F166DE95
:10035E0088C100F089C101F0026A036A00C097F1FA
:10036E005DDE87C100F088C101F089C102F0036A29
:10037E0000C097F153DE86C197F150DE950E010154
:10038E00976F4CDEFF0E01018F6FE7DE00C073F139
:10039E000A0E01018A5D0CE27351000A01E108D0D8
:1003AE00FF0E8F6FDADE00C073F101018A2BF0D7DA
:1003BE000A0E8A5D03E3010E006E01D0006A120080
:1003CE001C0E0101636F000E646F970E656F010EB8
:1003DE00666FFF0E6B6FFF0E6C6F000E6D6F000E73
:1003EE006E6FFF0E6F6FFF0E706F000E716F000E4F
:1003FE00726FFF0E676FFF0E686F000E696F000E53
:10040E006A6FAC8A900EAB6E948E949C9EAA03D0AB
:08041E00AECF00F0FBD7120085
:100426000900F5CFE6FF0006FBE10106F9E112003F
:10043600020E0101856F866B876B010E886F07DFE1
:100446000D0E0C6EFB0E0D6E0D2EFED70C2EFCD770
:10045600000000008B84DB0E8F6F000E906F67DE4E
:100466000D0E966F0FDE0A0E0101966F0BDE01016F
:100476007A6B0A0E7A5D06E2FF0E976FD3DD0101F5
:100486007A2BF7D7FB0E8F6F000E906F50DE0D0E96
:10049600966FF8DD0A0E0101966FF4DD8B94EF0E70
:1004A60001018F6F000E906F42DE0D0E966FEADD32
:1004B6000A0E0101966FE6DD070E0C6E7D0E0D6EBF
:1004C6000D2EFED70C2EFCD70101856B866B876B34
:1004D600886B896B950E8A6FE6DED00E01018F6FF1
:1004E600000E906F24DE0D0E966FCCDD0A0E010114
:1004F600966FC8DD0101746B7351010A0FE00A0E95
:10050600745D0CE2FF0E8F6F2CDE00C073F10101EB
:100516007451010F006E00C074F1EED70A0E745DBF
:100526000DE34B0E8F6F010E906F01DE0D0E966F71
:10053600A9DD0A0E0101966FA5DDFFD7010E0101A7
:10054600856F866B876B886B896BFF0E8A6FABDE58
:100556000101746B7351000A1FE0800E006E800E5D
:10056600030A005C02E1E80E745D16E2010E856F77
:10057600866B876B886B896BFF0E8A6F94DEFF0E26
:1005860001018F6FEEDD00C073F101017451010F9F
:10059600006E00C074F1DED7800E006E800E030A76
:1005A600005C02E1E80E745D0DE30D0E8F6F010E27
:1005B600906FBDDD0D0E966F65DD0A0E0101966F1B
:1005C60061DDFFD7100E0101856F000E866F020EEA
:1005D600876F000E886F896FFF0E8A6F64DE0101D8
:1005E600746B7351000A15E0800E006E800E030ACC
:1005F600005C02E1E80E745D0CE2FF0E8F6FB1DD68
:1006060000C073F101017451010F006E00C074F156
:10061600E8D7800E006E800E030A005C02E1E80E49
:10062600745D0DE3380E8F6F010E906F80DD0D0E39
:10063600966F28DD0A0E0101966F24DDFFD77B0E2B
:1006460001018F6F000E906F72DD0D0E966F1ADD31
:100656000A0E0101966F16DD010E0101856F866B8C
:10066600876B010E886FF3DD820E0C6EDD0E0D6E4C
:0E0676000D2EFED70C2EFCD700000000120047
:100684000101836B846B0101190E856F866B876B87
:10069400886B896B3ADE005216E09B0E8F6F000E5A
:1006A400906F46DD0D0E966FEEDC0A0E0101966F1B
:1006B400EADC410E0C6EEE0E0D6E0D2EFED70C2EE6
:1006C400FCD7000001D001D0DED7890E01018F6F65
:1006D400000E906F2DDD0D0E966FD5DC0A0E010114
:1006E400966FD1DCFF0E0101976F9DDCFF0E0101B7
:1006F400976F99DCFF0E0101976F95DC83A493D06B
:10070400FC0E0101976F8FDC01017A6B7B6B020E8B
:100714007B5D02E1000E7A5D2FE27AC197F183DC02
:100724007AC185F17BC186F17C0E0101876F010ED0
:10073400886F21DD7C0E8F6F010E906FF9DC0D0E3A
:10074400966FA1DC0A0E0101966F9DDC0D0E0C6EF6
:10075400FB0E0D6E0D2EFED70C2EFCD700000000F4
:10076400010E01017A25006E000E7B21016E00C08E
:100774007AF101C07BF1CBD7FF0E976F54DCFF0EEB
:100784000101976F50DC0101746B080E745D20E267
:10079400FF0E8F6FE7DC00C073F11F0E01017315AC
:1007A400016E0150050A0DE15E0E8F6F000E906F11
:1007B400BFDC0D0E966F67DC0A0E0101966F63DCD9
:1007C40007D001017451010F006E00C074F1DDD730
:1007D4000101080E745D17E34F0E8F6F000E906FCA
:1007E400A7DC0D0E966F4FDC0A0E0101966F4BDCF1
:1007F400010E01018325006E000E8421016E00C0EC
:1008040083F101C084F1FF0E8F6FACDC00C073F183
:1008140001017351FF0A06E0FF0E8F6FA3DC00C0D5
:1008240073F1F6D76BD7FD0E0101976F15EC00F04D
:10083400FF0E0101976F15EC00F0FF0E01018F6FA1
:1008440091DC00C073F101017351FF0A06E0FF0E51
:100854008F6F88DC00C073F1F6D76D0E01018F6FC6
:10086400000E906F65DC0D0E966F0DDC0A0E010113
:10087400966F09DC83C185F184C186F17C0E010188
:10088400876F010E886F77DC7C0E8F6F010E906F7F
:100894004FDC0D0E966F45EC00F00A0E0101966FC9
:0608A40045EC00F012001B
:1008AA00FF0E01018F6F5BDC00C073F10101735110
:1008BA00FF0AF6E1120E856F39C086F13AC087F158
:1008CA003BC088F13CC089F1950E8A6FEADC0101D0
:1008DA00746B7351000A0FE1150E8F6F000E906F43
:1008EA0024DC0D0E966F45EC00F00A0E0101966F9E
:1008FA0045EC00F00FD0FF0E01018F6F30DC00C015
:10090A0073F101017451010F006E00C074F10A0EF7
:10091A00745DDFE301010A0E745D0FE3270E8F6F2A
:10092A00000E906F02DC0D0E966F45EC00F00A0E79
:10093A000101966F45EC00F0FFD783A456D0FF0E55
:10094A0001018F6F0CDC00C073F101017351FE0AC3
:10095A00F6E17A6B7B6B020E7B5D02E1000E7A5D3B
:10096A0036E2FF0E8F6FB4EC00F000C073F173C172
:10097A0085F1000E0101866F7C0E876F010E886F6C
:10098A00BDEC00F07C0E8F6F010E906F9AEC00F0B8
:10099A000D0E966F45EC00F00A0E0101966F45ECBC
:1009AA0000F00D0E0C6EFB0E0D6E0D2EFED70C2EEA
:1009BA00FCD700000000010E01017A25006E000E2E
:1009CA007B21016E00C07AF101C07BF1C4D7FF0E12
:1009DA008F6FB4EC00F000C073F1FF0E01018F6F4E
:1009EA00B4EC00F000C073F1A8D70C0E0101856FBA
:1009FA00866B876B886B896B950E8A6F52DC010157
:100A0A00746B7351000A10E13D0E8F6F000E906FE8
:100A1A009AEC00F00D0E966F45EC00F00A0E0101FB
:100A2A00966F45EC00F010D0FF0E01018F6FB4EC09
:100A3A0000F000C073F101017451010F006E00C093
:100A4A0074F10A0E745DDDE30101FF0E8F6FB4ECE1
:100A5A0000F000C073F101017351FF0AF5E1AD0E18
:100A6A008F6F000E906F9AEC00F00D0E966F45ECAA
:100A7A0000F00A0E0101966F45EC00F0FFD7120054
:100A8A00D4EC06F00E0EC1122D0EC012C09EC2800A
:100A9A00030E0B6E8A0E0C6E550E0D6E0D2EFED7C2
:100AAA000C2EFCD70B2EFAD700000000F30E956E21
:100ABA00928495849586936A946AB886020EB06E7B
:100ACA00080EAF6EAC847EDCB1DC83A401D0FDD706
:100ADA0001011F0E8F6F010E906F9AEC00F00D0E40
:100AEA00966F45EC00F00A0E0101966F45EC00F096
:100AFA0083A673D083B423D0080E0B6E9D0E0C6EA2
:100B0A00050E0D6E0D2EFED70C2EFCD70B2EFAD726
:100B1A0000000000010E01015D25006E000E5E213D
:100B2A00016E00C05DF101C05EF1000E5E1902E1C6
:100B3A00030E5D1904E1010E5D6F000E5E6F010187
:100B4A00000E5E1902E1010E5D19010ED8A4000E15
:100B5A00016E000E5E1902E15D517919000ED8A4EA
:100B6A00010E006E0150001610E0C20E8F6F000ECB
:100B7A00906F9AEC00F00D0E966F45EC00F00A0E9D
:100B8A000101966F45EC00F025D0000E01015E19B7
:100B9A0002E1020E5D19010ED8A4000E016E000ECC
:100BAA005E1902E15D517919000ED8A4010E006E9A
:100BBA00015000160FE0CA0E8F6F000E906F9AEC6C
:100BCA0000F00D0E966F45EC00F00A0E0101966FCB
:100BDA0045EC00F05DC179F18BD7000E01015E1979
:100BEA0002E1010E5D1915E10001B86BB96BBA0E8D
:100BFA0001018F6F000E906F9AEC00F00D0E966F48
:100C0A0045EC00F00A0E0101966F45EC00F0816A8E
:100C1A0034DD000E01015E1902E1020E5D1918E1D0
:100C2A00E70E8F6F000E906F9AEC00F00D0E966F24
:100C3A0045EC00F00A0E0101966F45EC00F0000148
:100C4A00B86BB96B2DDE83A403D083A601D0FBD782
:040C5A003CD7FFD7AD
:100DA80010EE15F04A0E006E020E016E5E0EF66E23
:0E0DB8000C0EF76E000EF86E13EC02F0120037
:100C5E00436F6D6D616E642061636365707465646E
:020C6E00210063
:100C7000436F6D6D616E642052656A65637465646F
:020C8000210051
:040C8200000000006E
:100C860053746F70706564205472616E736665721A
:020C960021003B
:0F0C9800446174612072656A656374656421004C
:0F0CA7004461746120616363657074656421004A
:0E0CB600444F4E452057726974696E672100E5
:0E0CC4004D4D432044657465637465642100E2
:100CD200436F6D6D616E64206163636570746564FA
:020CE2002100EF
:100CE400436F6D6D616E642072656A6563746564DB
:020CF4002100DD
:0B0CF600436172642066726565210096
:020D01000000F0
:080D030057726974696E670004
:080D0B005265636F72640A0077
:060D1300506C61790A003A
:0B0D1900434D44302073656E742100D0
:0C0D2400435320697320484947482100D0
:080D300052656164696E670001
:0C0D38004353206973204C4F57210A00E0
:100D440044756D6D7920636C6F636B2073656E748D
:020D540021007C
:100D560043617264204552524F52202D20434D4428
:020D660031005A
:0E0D680053656C6563742061204D656E7500E7
:0B0D7600436172642066726565210015
:100D810043617264206572726F72202D20434D445D
:030D9100313600F8
:100D940043415244204552524F52202D20434D444A
:020DA40030001D
:020DA60000004B
:020000040030CA
:0D000100021F1EFF8381FF0FC00FE00F40A4
:00000001FF
